{
  "contractName": "Skizzle",
  "abi": [
    {
      "anonymous": false,
      "inputs": [
        {
          "indexed": true,
          "internalType": "address",
          "name": "identity",
          "type": "address"
        },
        {
          "indexed": true,
          "internalType": "bytes32",
          "name": "file",
          "type": "bytes32"
        },
        {
          "indexed": false,
          "internalType": "uint256",
          "name": "validity",
          "type": "uint256"
        },
        {
          "indexed": false,
          "internalType": "bytes32",
          "name": "access_type",
          "type": "bytes32"
        }
      ],
      "name": "NewDownload",
      "type": "event"
    },
    {
      "anonymous": false,
      "inputs": [
        {
          "indexed": true,
          "internalType": "address",
          "name": "identity",
          "type": "address"
        },
        {
          "indexed": true,
          "internalType": "bytes32",
          "name": "file",
          "type": "bytes32"
        },
        {
          "indexed": false,
          "internalType": "uint256",
          "name": "n",
          "type": "uint256"
        },
        {
          "indexed": false,
          "internalType": "uint256",
          "name": "k",
          "type": "uint256"
        },
        {
          "indexed": false,
          "internalType": "uint256",
          "name": "file_size",
          "type": "uint256"
        },
        {
          "indexed": true,
          "internalType": "bytes",
          "name": "ueb",
          "type": "bytes"
        }
      ],
      "name": "NewFileUpdate",
      "type": "event"
    },
    {
      "anonymous": false,
      "inputs": [
        {
          "indexed": true,
          "internalType": "address",
          "name": "identity",
          "type": "address"
        },
        {
          "indexed": true,
          "internalType": "bytes32",
          "name": "file",
          "type": "bytes32"
        },
        {
          "indexed": true,
          "internalType": "address",
          "name": "user",
          "type": "address"
        },
        {
          "indexed": false,
          "internalType": "bytes32",
          "name": "access_type",
          "type": "bytes32"
        },
        {
          "indexed": false,
          "internalType": "uint256",
          "name": "validity",
          "type": "uint256"
        },
        {
          "indexed": false,
          "internalType": "uint256",
          "name": "nonce",
          "type": "uint256"
        }
      ],
      "name": "NewShare",
      "type": "event"
    },
    {
      "anonymous": false,
      "inputs": [
        {
          "indexed": true,
          "internalType": "address",
          "name": "identity",
          "type": "address"
        },
        {
          "indexed": true,
          "internalType": "bytes32",
          "name": "file",
          "type": "bytes32"
        },
        {
          "indexed": true,
          "internalType": "address",
          "name": "user",
          "type": "address"
        },
        {
          "indexed": false,
          "internalType": "bytes32",
          "name": "access_type",
          "type": "bytes32"
        }
      ],
      "name": "NewUpdateACK",
      "type": "event"
    },
    {
      "anonymous": false,
      "inputs": [
        {
          "indexed": true,
          "internalType": "address",
          "name": "identity",
          "type": "address"
        },
        {
          "indexed": true,
          "internalType": "bytes32",
          "name": "file",
          "type": "bytes32"
        }
      ],
      "name": "deleteFileEvent",
      "type": "event"
    },
    {
      "constant": true,
      "inputs": [
        {
          "internalType": "bytes32",
          "name": "",
          "type": "bytes32"
        },
        {
          "internalType": "bytes32",
          "name": "",
          "type": "bytes32"
        },
        {
          "internalType": "address",
          "name": "",
          "type": "address"
        }
      ],
      "name": "accessSpecifier",
      "outputs": [
        {
          "internalType": "uint256",
          "name": "validity",
          "type": "uint256"
        },
        {
          "internalType": "uint256",
          "name": "version",
          "type": "uint256"
        }
      ],
      "payable": false,
      "stateMutability": "view",
      "type": "function"
    },
    {
      "constant": true,
      "inputs": [
        {
          "internalType": "bytes32",
          "name": "",
          "type": "bytes32"
        }
      ],
      "name": "files",
      "outputs": [
        {
          "internalType": "uint256",
          "name": "n",
          "type": "uint256"
        },
        {
          "internalType": "uint256",
          "name": "k",
          "type": "uint256"
        },
        {
          "internalType": "uint256",
          "name": "file_size",
          "type": "uint256"
        },
        {
          "internalType": "address",
          "name": "handling_node",
          "type": "address"
        },
        {
          "internalType": "bytes",
          "name": "ueb",
          "type": "bytes"
        }
      ],
      "payable": false,
      "stateMutability": "view",
      "type": "function"
    },
    {
      "constant": true,
      "inputs": [
        {
          "internalType": "bytes32",
          "name": "",
          "type": "bytes32"
        }
      ],
      "name": "isDeleted",
      "outputs": [
        {
          "internalType": "bool",
          "name": "",
          "type": "bool"
        }
      ],
      "payable": false,
      "stateMutability": "view",
      "type": "function"
    },
    {
      "constant": true,
      "inputs": [
        {
          "internalType": "address",
          "name": "",
          "type": "address"
        }
      ],
      "name": "isNode",
      "outputs": [
        {
          "internalType": "bool",
          "name": "",
          "type": "bool"
        }
      ],
      "payable": false,
      "stateMutability": "view",
      "type": "function"
    },
    {
      "constant": true,
      "inputs": [],
      "name": "log",
      "outputs": [
        {
          "internalType": "bytes32",
          "name": "",
          "type": "bytes32"
        }
      ],
      "payable": false,
      "stateMutability": "view",
      "type": "function"
    },
    {
      "constant": true,
      "inputs": [
        {
          "internalType": "address",
          "name": "",
          "type": "address"
        }
      ],
      "name": "nonce",
      "outputs": [
        {
          "internalType": "uint256",
          "name": "",
          "type": "uint256"
        }
      ],
      "payable": false,
      "stateMutability": "view",
      "type": "function"
    },
    {
      "constant": true,
      "inputs": [],
      "name": "owner",
      "outputs": [
        {
          "internalType": "address",
          "name": "",
          "type": "address"
        }
      ],
      "payable": false,
      "stateMutability": "view",
      "type": "function"
    },
    {
      "constant": true,
      "inputs": [
        {
          "internalType": "bytes32",
          "name": "",
          "type": "bytes32"
        }
      ],
      "name": "owners",
      "outputs": [
        {
          "internalType": "address",
          "name": "",
          "type": "address"
        }
      ],
      "payable": false,
      "stateMutability": "view",
      "type": "function"
    },
    {
      "constant": true,
      "inputs": [],
      "name": "total_nodes",
      "outputs": [
        {
          "internalType": "uint256",
          "name": "",
          "type": "uint256"
        }
      ],
      "payable": false,
      "stateMutability": "view",
      "type": "function"
    },
    {
      "constant": true,
      "inputs": [
        {
          "internalType": "bytes32",
          "name": "",
          "type": "bytes32"
        },
        {
          "internalType": "bytes32",
          "name": "",
          "type": "bytes32"
        },
        {
          "internalType": "uint256",
          "name": "",
          "type": "uint256"
        }
      ],
      "name": "userAccess",
      "outputs": [
        {
          "internalType": "address",
          "name": "",
          "type": "address"
        }
      ],
      "payable": false,
      "stateMutability": "view",
      "type": "function"
    },
    {
      "constant": true,
      "inputs": [
        {
          "internalType": "bytes32",
          "name": "",
          "type": "bytes32"
        }
      ],
      "name": "version",
      "outputs": [
        {
          "internalType": "uint256",
          "name": "",
          "type": "uint256"
        }
      ],
      "payable": false,
      "stateMutability": "view",
      "type": "function"
    },
    {
      "constant": false,
      "inputs": [
        {
          "internalType": "address[]",
          "name": "_nodes",
          "type": "address[]"
        }
      ],
      "name": "initialize",
      "outputs": [],
      "payable": false,
      "stateMutability": "nonpayable",
      "type": "function"
    },
    {
      "constant": false,
      "inputs": [
        {
          "internalType": "address",
          "name": "_node",
          "type": "address"
        }
      ],
      "name": "addNode",
      "outputs": [],
      "payable": false,
      "stateMutability": "nonpayable",
      "type": "function"
    },
    {
      "constant": false,
      "inputs": [
        {
          "internalType": "address",
          "name": "_node",
          "type": "address"
        }
      ],
      "name": "deleteNode",
      "outputs": [],
      "payable": false,
      "stateMutability": "nonpayable",
      "type": "function"
    },
    {
      "constant": true,
      "inputs": [
        {
          "internalType": "bytes32",
          "name": "payloadHash",
          "type": "bytes32"
        },
        {
          "internalType": "address",
          "name": "signer",
          "type": "address"
        },
        {
          "internalType": "uint8",
          "name": "v",
          "type": "uint8"
        },
        {
          "internalType": "bytes32",
          "name": "r",
          "type": "bytes32"
        },
        {
          "internalType": "bytes32",
          "name": "s",
          "type": "bytes32"
        }
      ],
      "name": "getSigner",
      "outputs": [
        {
          "internalType": "address",
          "name": "",
          "type": "address"
        }
      ],
      "payable": false,
      "stateMutability": "pure",
      "type": "function"
    },
    {
      "constant": false,
      "inputs": [
        {
          "internalType": "bytes32",
          "name": "_file",
          "type": "bytes32"
        },
        {
          "internalType": "uint256",
          "name": "n",
          "type": "uint256"
        },
        {
          "internalType": "uint256",
          "name": "k",
          "type": "uint256"
        },
        {
          "internalType": "uint256",
          "name": "_file_size",
          "type": "uint256"
        },
        {
          "internalType": "address",
          "name": "signer",
          "type": "address"
        },
        {
          "internalType": "uint8",
          "name": "v",
          "type": "uint8"
        },
        {
          "internalType": "bytes32",
          "name": "r",
          "type": "bytes32"
        },
        {
          "internalType": "bytes32",
          "name": "s",
          "type": "bytes32"
        },
        {
          "internalType": "bytes",
          "name": "_ueb",
          "type": "bytes"
        }
      ],
      "name": "createDIDSigned",
      "outputs": [],
      "payable": false,
      "stateMutability": "nonpayable",
      "type": "function"
    },
    {
      "constant": false,
      "inputs": [
        {
          "internalType": "bytes32",
          "name": "_file",
          "type": "bytes32"
        },
        {
          "internalType": "address",
          "name": "signer",
          "type": "address"
        },
        {
          "internalType": "uint8",
          "name": "v",
          "type": "uint8"
        },
        {
          "internalType": "bytes32",
          "name": "r",
          "type": "bytes32"
        },
        {
          "internalType": "bytes32",
          "name": "s",
          "type": "bytes32"
        }
      ],
      "name": "deleteFileSigned",
      "outputs": [],
      "payable": false,
      "stateMutability": "nonpayable",
      "type": "function"
    },
    {
      "constant": true,
      "inputs": [
        {
          "internalType": "bytes32",
          "name": "_file",
          "type": "bytes32"
        },
        {
          "internalType": "bytes32",
          "name": "_access_type",
          "type": "bytes32"
        }
      ],
      "name": "getAllUsers",
      "outputs": [
        {
          "internalType": "address[]",
          "name": "",
          "type": "address[]"
        }
      ],
      "payable": false,
      "stateMutability": "view",
      "type": "function"
    },
    {
      "constant": false,
      "inputs": [
        {
          "internalType": "bytes32[]",
          "name": "_files",
          "type": "bytes32[]"
        },
        {
          "internalType": "address[]",
          "name": "_user",
          "type": "address[]"
        },
        {
          "internalType": "bytes32[]",
          "name": "_access_type",
          "type": "bytes32[]"
        },
        {
          "internalType": "uint256[]",
          "name": "_validity",
          "type": "uint256[]"
        },
        {
          "internalType": "address",
          "name": "signer",
          "type": "address"
        },
        {
          "internalType": "uint8",
          "name": "v",
          "type": "uint8"
        },
        {
          "internalType": "bytes32",
          "name": "r",
          "type": "bytes32"
        },
        {
          "internalType": "bytes32",
          "name": "s",
          "type": "bytes32"
        }
      ],
      "name": "shareSigned",
      "outputs": [],
      "payable": false,
      "stateMutability": "nonpayable",
      "type": "function"
    },
    {
      "constant": false,
      "inputs": [
        {
          "internalType": "bytes32",
          "name": "_file",
          "type": "bytes32"
        },
        {
          "internalType": "bytes32",
          "name": "_access_type",
          "type": "bytes32"
        },
        {
          "internalType": "address",
          "name": "signer",
          "type": "address"
        },
        {
          "internalType": "uint8",
          "name": "v",
          "type": "uint8"
        },
        {
          "internalType": "bytes32",
          "name": "r",
          "type": "bytes32"
        },
        {
          "internalType": "bytes32",
          "name": "s",
          "type": "bytes32"
        }
      ],
      "name": "downloadSigned",
      "outputs": [
        {
          "internalType": "uint256",
          "name": "",
          "type": "uint256"
        }
      ],
      "payable": false,
      "stateMutability": "nonpayable",
      "type": "function"
    },
    {
      "constant": false,
      "inputs": [
        {
          "internalType": "bytes32",
          "name": "_file",
          "type": "bytes32"
        },
        {
          "internalType": "address",
          "name": "_user",
          "type": "address"
        },
        {
          "internalType": "bytes32",
          "name": "_access_type",
          "type": "bytes32"
        },
        {
          "internalType": "address",
          "name": "signer",
          "type": "address"
        },
        {
          "internalType": "uint8",
          "name": "v",
          "type": "uint8"
        },
        {
          "internalType": "bytes32",
          "name": "r",
          "type": "bytes32"
        },
        {
          "internalType": "bytes32",
          "name": "s",
          "type": "bytes32"
        }
      ],
      "name": "revokeSigned",
      "outputs": [],
      "payable": false,
      "stateMutability": "nonpayable",
      "type": "function"
    },
    {
      "constant": false,
      "inputs": [
        {
          "internalType": "bytes32",
          "name": "_file",
          "type": "bytes32"
        },
        {
          "internalType": "address",
          "name": "_new_owner",
          "type": "address"
        },
        {
          "internalType": "address",
          "name": "signer",
          "type": "address"
        },
        {
          "internalType": "uint8",
          "name": "v",
          "type": "uint8"
        },
        {
          "internalType": "bytes32",
          "name": "r",
          "type": "bytes32"
        },
        {
          "internalType": "bytes32",
          "name": "s",
          "type": "bytes32"
        }
      ],
      "name": "changeOwnerSigned",
      "outputs": [
        {
          "internalType": "bool",
          "name": "",
          "type": "bool"
        }
      ],
      "payable": false,
      "stateMutability": "nonpayable",
      "type": "function"
    }
  ],
  "bytecode": "0x608060405234801561001057600080fd5b5061352a806100206000396000f3fe608060405234801561001057600080fd5b50600436106101425760003560e01c8063799d59c7116100b8578063ad28fd0c1161007c578063ad28fd0c14610848578063bb8947da14610afe578063c12ed14f14610c23578063df1abe3614610ca5578063fb8ad6ff14610d3e578063fde40cb614610dac57610142565b8063799d59c7146105865780638da5cb5b1461061357806398c9adff1461065d5780639d95f1cc1461074c578063a224cee71461079057610142565b80635bf8aa6e1161010a5780635bf8aa6e146102ca5780635db27a30146103395780635f784b8a146103e85780636184533f1461045b57806367823325146104e857806370ae92d21461052e57610142565b80630175015214610147578063104046bd146101a3578063297cda7b146101c15780632d4ede931461026857806351973ec9146102ac575b600080fd5b6101896004803603602081101561015d57600080fd5b81019080803573ffffffffffffffffffffffffffffffffffffffff169060200190929190505050610dee565b604051808215151515815260200191505060405180910390f35b6101ab610e0e565b6040518082815260200191505060405180910390f35b61024e600480360360c08110156101d757600080fd5b8101908080359060200190929190803573ffffffffffffffffffffffffffffffffffffffff169060200190929190803573ffffffffffffffffffffffffffffffffffffffff169060200190929190803560ff1690602001909291908035906020019092919080359060200190929190505050610e14565b604051808215151515815260200191505060405180910390f35b6102aa6004803603602081101561027e57600080fd5b81019080803573ffffffffffffffffffffffffffffffffffffffff169060200190929190505050610fa5565b005b6102b461106d565b6040518082815260200191505060405180910390f35b610337600480360360a08110156102e057600080fd5b8101908080359060200190929190803573ffffffffffffffffffffffffffffffffffffffff169060200190929190803560ff1690602001909291908035906020019092919080359060200190929190505050611073565b005b6103a6600480360360a081101561034f57600080fd5b8101908080359060200190929190803573ffffffffffffffffffffffffffffffffffffffff169060200190929190803560ff16906020019092919080359060200190929190803590602001909291905050506113aa565b604051808273ffffffffffffffffffffffffffffffffffffffff1673ffffffffffffffffffffffffffffffffffffffff16815260200191505060405180910390f35b61043e600480360360608110156103fe57600080fd5b810190808035906020019092919080359060200190929190803573ffffffffffffffffffffffffffffffffffffffff1690602001909291905050506114af565b604051808381526020018281526020019250505060405180910390f35b6104916004803603604081101561047157600080fd5b8101908080359060200190929190803590602001909291905050506114ed565b6040518080602001828103825283818151815260200191508051906020019060200280838360005b838110156104d45780820151818401526020810190506104b9565b505050509050019250505060405180910390f35b610514600480360360208110156104fe57600080fd5b8101908080359060200190929190505050611745565b604051808215151515815260200191505060405180910390f35b6105706004803603602081101561054457600080fd5b81019080803573ffffffffffffffffffffffffffffffffffffffff169060200190929190505050611765565b6040518082815260200191505060405180910390f35b6105fd600480360360c081101561059c57600080fd5b810190808035906020019092919080359060200190929190803573ffffffffffffffffffffffffffffffffffffffff169060200190929190803560ff169060200190929190803590602001909291908035906020019092919050505061177d565b6040518082815260200191505060405180910390f35b61061b611b9b565b604051808273ffffffffffffffffffffffffffffffffffffffff1673ffffffffffffffffffffffffffffffffffffffff16815260200191505060405180910390f35b6106896004803603602081101561067357600080fd5b8101908080359060200190929190505050611bc1565b604051808681526020018581526020018481526020018373ffffffffffffffffffffffffffffffffffffffff1673ffffffffffffffffffffffffffffffffffffffff16815260200180602001828103825283818151815260200191508051906020019080838360005b8381101561070d5780820151818401526020810190506106f2565b50505050905090810190601f16801561073a5780820380516001836020036101000a031916815260200191505b50965050505050505060405180910390f35b61078e6004803603602081101561076257600080fd5b81019080803573ffffffffffffffffffffffffffffffffffffffff169060200190929190505050611caf565b005b610846600480360360208110156107a657600080fd5b81019080803590602001906401000000008111156107c357600080fd5b8201836020820111156107d557600080fd5b803590602001918460208302840111640100000000831117156107f757600080fd5b919080806020026020016040519081016040528093929190818152602001838360200280828437600081840152601f19601f820116905080830192505050505050509192919290505050611d76565b005b610afc600480360361010081101561085f57600080fd5b810190808035906020019064010000000081111561087c57600080fd5b82018360208201111561088e57600080fd5b803590602001918460208302840111640100000000831117156108b057600080fd5b919080806020026020016040519081016040528093929190818152602001838360200280828437600081840152601f19601f8201169050808301925050505050505091929192908035906020019064010000000081111561091057600080fd5b82018360208201111561092257600080fd5b8035906020019184602083028401116401000000008311171561094457600080fd5b919080806020026020016040519081016040528093929190818152602001838360200280828437600081840152601f19601f820116905080830192505050505050509192919290803590602001906401000000008111156109a457600080fd5b8201836020820111156109b657600080fd5b803590602001918460208302840111640100000000831117156109d857600080fd5b919080806020026020016040519081016040528093929190818152602001838360200280828437600081840152601f19601f82011690508083019250505050505050919291929080359060200190640100000000811115610a3857600080fd5b820183602082011115610a4a57600080fd5b80359060200191846020830284011164010000000083111715610a6c57600080fd5b919080806020026020016040519081016040528093929190818152602001838360200280828437600081840152601f19601f820116905080830192505050505050509192919290803573ffffffffffffffffffffffffffffffffffffffff169060200190929190803560ff1690602001909291908035906020019092919080359060200190929190505050611f51565b005b610c216004803603610120811015610b1557600080fd5b8101908080359060200190929190803590602001909291908035906020019092919080359060200190929190803573ffffffffffffffffffffffffffffffffffffffff169060200190929190803560ff169060200190929190803590602001909291908035906020019092919080359060200190640100000000811115610b9b57600080fd5b820183602082011115610bad57600080fd5b80359060200191846001830284011164010000000083111715610bcf57600080fd5b91908080601f016020809104026020016040519081016040528093929190818152602001838380828437600081840152601f19601f82011690508083019250505050505050919291929050505061261f565b005b610c6360048036036060811015610c3957600080fd5b81019080803590602001909291908035906020019092919080359060200190929190505050612c90565b604051808273ffffffffffffffffffffffffffffffffffffffff1673ffffffffffffffffffffffffffffffffffffffff16815260200191505060405180910390f35b610d3c600480360360e0811015610cbb57600080fd5b8101908080359060200190929190803573ffffffffffffffffffffffffffffffffffffffff16906020019092919080359060200190929190803573ffffffffffffffffffffffffffffffffffffffff169060200190929190803560ff1690602001909291908035906020019092919080359060200190929190505050612ce8565b005b610d6a60048036036020811015610d5457600080fd5b81019080803590602001909291905050506130ad565b604051808273ffffffffffffffffffffffffffffffffffffffff1673ffffffffffffffffffffffffffffffffffffffff16815260200191505060405180910390f35b610dd860048036036020811015610dc257600080fd5b81019080803590602001909291905050506130e0565b6040518082815260200191505060405180910390f35b603c6020528060005260406000206000915054906101000a900460ff1681565b603e5481565b6000603c60003373ffffffffffffffffffffffffffffffffffffffff1673ffffffffffffffffffffffffffffffffffffffff16815260200190815260200160002060009054906101000a900460ff16610ed5576040517f08c379a00000000000000000000000000000000000000000000000000000000081526004018080602001828103825260198152602001807f53686f756c642062652063616c6c6564206279206f776e65720000000000000081525060200191505060405180910390fd5b60008787603860008973ffffffffffffffffffffffffffffffffffffffff1673ffffffffffffffffffffffffffffffffffffffff16815260200190815260200160002054604051602001808481526020018373ffffffffffffffffffffffffffffffffffffffff1673ffffffffffffffffffffffffffffffffffffffff16815260200182815260200193505050506040516020818303038152906040528051906020012090506000610f8a82888888886113aa565b9050610f97818a8a6130f8565b925050509695505050505050565b603360009054906101000a900473ffffffffffffffffffffffffffffffffffffffff1673ffffffffffffffffffffffffffffffffffffffff163373ffffffffffffffffffffffffffffffffffffffff1614610fff57600080fd5b603e60008154809291906001900391905055506000603c60008373ffffffffffffffffffffffffffffffffffffffff1673ffffffffffffffffffffffffffffffffffffffff16815260200190815260200160002060006101000a81548160ff02191690831515021790555050565b60345481565b603c60003373ffffffffffffffffffffffffffffffffffffffff1673ffffffffffffffffffffffffffffffffffffffff16815260200190815260200160002060009054906101000a900460ff16611132576040517f08c379a00000000000000000000000000000000000000000000000000000000081526004018080602001828103825260198152602001807f53686f756c642062652063616c6c6564206279206f776e65720000000000000081525060200191505060405180910390fd5b600085603860008773ffffffffffffffffffffffffffffffffffffffff1673ffffffffffffffffffffffffffffffffffffffff16815260200190815260200160002054604051602001808381526020018281526020019250505060405160208183030381529060405280519060200120905060006111b382878787876113aa565b90508073ffffffffffffffffffffffffffffffffffffffff166035600089815260200190815260200160002060009054906101000a900473ffffffffffffffffffffffffffffffffffffffff1673ffffffffffffffffffffffffffffffffffffffff1614611289576040517f08c379a00000000000000000000000000000000000000000000000000000000081526004018080602001828103825260148152602001807f4f776e657220646f6573206e6f74206d6174636800000000000000000000000081525060200191505060405180910390fd5b6001603a600089815260200190815260200160002060006101000a81548160ff021916908315150217905550603b6000888152602001908152602001600020600081548092919060010191905055506035600088815260200190815260200160002060006101000a81549073ffffffffffffffffffffffffffffffffffffffff0219169055603860008273ffffffffffffffffffffffffffffffffffffffff1673ffffffffffffffffffffffffffffffffffffffff16815260200190815260200160002060008154809291906001019190505550868173ffffffffffffffffffffffffffffffffffffffff167f81743a3708ed5c44fdbfae0d726dbd4b3df98e47b90eb1e58a23a392d67abb8260405160405180910390a350505050505050565b6000808660405160200180807f19457468657265756d205369676e6564204d6573736167653a0a333200000000815250601c01828152602001915050604051602081830303815290604052805190602001209050600060018287878760405160008152602001604052604051808581526020018460ff1660ff1681526020018381526020018281526020019450505050506020604051602081039080840390855afa15801561145d573d6000803e3d6000fd5b5050506020604051035190508073ffffffffffffffffffffffffffffffffffffffff168773ffffffffffffffffffffffffffffffffffffffff16146114a157600080fd5b809250505095945050505050565b603660205282600052604060002060205281600052604060002060205280600052604060002060009250925050508060000154908060010154905082565b60608060376000858152602001908152602001600020600084815260200190815260200160002080548060200260200160405190810160405280929190818152602001828054801561159457602002820191906000526020600020905b8160009054906101000a900473ffffffffffffffffffffffffffffffffffffffff1673ffffffffffffffffffffffffffffffffffffffff168152602001906001019080831161154a575b50505050509050600080600090505b82518110156117395760376000878152602001908152602001600020600086815260200190815260200160002081815481106115db57fe5b9060005260206000200160009054906101000a900473ffffffffffffffffffffffffffffffffffffffff1691506000603b60008881526020019081526020016000205490504260366000898152602001908152602001600020600088815260200190815260200160002060008573ffffffffffffffffffffffffffffffffffffffff1673ffffffffffffffffffffffffffffffffffffffff168152602001908152602001600020600001541115806116f757508060366000898152602001908152602001600020600088815260200190815260200160002060008573ffffffffffffffffffffffffffffffffffffffff1673ffffffffffffffffffffffffffffffffffffffff1681526020019081526020016000206001015414155b1561172b5783828151811061170857fe5b60200260200101600073ffffffffffffffffffffffffffffffffffffffff168152505b5080806001019150506115a3565b50819250505092915050565b603a6020528060005260406000206000915054906101000a900460ff1681565b60386020528060005260406000206000915090505481565b6000603c60003373ffffffffffffffffffffffffffffffffffffffff1673ffffffffffffffffffffffffffffffffffffffff16815260200190815260200160002060009054906101000a900460ff1661183e576040517f08c379a00000000000000000000000000000000000000000000000000000000081526004018080602001828103825260198152602001807f53686f756c642062652063616c6c6564206279206f776e65720000000000000081525060200191505060405180910390fd5b60008787603860008973ffffffffffffffffffffffffffffffffffffffff1673ffffffffffffffffffffffffffffffffffffffff1681526020019081526020016000205460405160200180848152602001838152602001828152602001935050505060405160208183030381529060405280519060200120905060006118c782888888886113aa565b90506118d16133bc565b603660008b815260200190815260200160002060008a815260200190815260200160002060008373ffffffffffffffffffffffffffffffffffffffff1673ffffffffffffffffffffffffffffffffffffffff168152602001908152602001600020604051806040016040529081600082015481526020016001820154815250509050600081600001519050603560008c815260200190815260200160002060009054906101000a900473ffffffffffffffffffffffffffffffffffffffff1673ffffffffffffffffffffffffffffffffffffffff168373ffffffffffffffffffffffffffffffffffffffff1614156119e0576119d9620f4240426132b890919063ffffffff16565b9050611ae4565b603b60008c815260200190815260200160002054826020015114611a6c576040517f08c379a000000000000000000000000000000000000000000000000000000000815260040180806020018281038252601d8152602001807f56657273696f6e206f662066696c6520646f65736e2774206d6174636800000081525060200191505060405180910390fd5b6000811415611ae3576040517f08c379a000000000000000000000000000000000000000000000000000000000815260040180806020018281038252600d8152602001807f56616c696469747920697320300000000000000000000000000000000000000081525060200191505060405180910390fd5b5b603860008473ffffffffffffffffffffffffffffffffffffffff1673ffffffffffffffffffffffffffffffffffffffff168152602001908152602001600020600081548092919060010191905055508a8373ffffffffffffffffffffffffffffffffffffffff167f04ae3dbe53f49b64aa789955e7a9afcf971bb3210b68808773f4efe0aa8ad3be838d604051808381526020018281526020019250505060405180910390a3809450505050509695505050505050565b603360009054906101000a900473ffffffffffffffffffffffffffffffffffffffff1681565b60396020528060005260406000206000915090508060000154908060010154908060020154908060030160009054906101000a900473ffffffffffffffffffffffffffffffffffffffff1690806004018054600181600116156101000203166002900480601f016020809104026020016040519081016040528092919081815260200182805460018160011615610100020316600290048015611ca55780601f10611c7a57610100808354040283529160200191611ca5565b820191906000526020600020905b815481529060010190602001808311611c8857829003601f168201915b5050505050905085565b603360009054906101000a900473ffffffffffffffffffffffffffffffffffffffff1673ffffffffffffffffffffffffffffffffffffffff163373ffffffffffffffffffffffffffffffffffffffff1614611d0957600080fd5b603e600081548092919060010191905055506001603c60008373ffffffffffffffffffffffffffffffffffffffff1673ffffffffffffffffffffffffffffffffffffffff16815260200190815260200160002060006101000a81548160ff02191690831515021790555050565b600060019054906101000a900460ff1680611d955750611d94613340565b5b80611dac57506000809054906101000a900460ff16155b611e01576040517f08c379a000000000000000000000000000000000000000000000000000000000815260040180806020018281038252602e81526020018061347c602e913960400191505060405180910390fd5b60008060019054906101000a900460ff161590508015611e51576001600060016101000a81548160ff02191690831515021790555060016000806101000a81548160ff0219169083151502179055505b33603360006101000a81548173ffffffffffffffffffffffffffffffffffffffff021916908373ffffffffffffffffffffffffffffffffffffffff16021790555060008090505b8251811015611f2b57603e600081548092919060010191905055506001603c6000858481518110611ec557fe5b602002602001015173ffffffffffffffffffffffffffffffffffffffff1673ffffffffffffffffffffffffffffffffffffffff16815260200190815260200160002060006101000a81548160ff0219169083151502179055508080600101915050611e98565b508015611f4d5760008060016101000a81548160ff0219169083151502179055505b5050565b603c60003373ffffffffffffffffffffffffffffffffffffffff1673ffffffffffffffffffffffffffffffffffffffff16815260200190815260200160002060009054906101000a900460ff16612010576040517f08c379a00000000000000000000000000000000000000000000000000000000081526004018080602001828103825260198152602001807f53686f756c642062652063616c6c6564206279206f776e65720000000000000081525060200191505060405180910390fd5b600088888888603860008a73ffffffffffffffffffffffffffffffffffffffff1673ffffffffffffffffffffffffffffffffffffffff16815260200190815260200160002054604051602001808060200180602001806020018060200186815260200185810385528a818151815260200191508051906020019060200280838360005b838110156120ae578082015181840152602081019050612093565b50505050905001858103845289818151815260200191508051906020019060200280838360005b838110156120f05780820151818401526020810190506120d5565b50505050905001858103835288818151815260200191508051906020019060200280838360005b83811015612132578082015181840152602081019050612117565b50505050905001858103825287818151815260200191508051906020019060200280838360005b83811015612174578082015181840152602081019050612159565b50505050905001995050505050505050505060405160208183030381529060405280519060200120905060006121ad82878787876113aa565b905060008090505b8a518110156125c35760008090505b8a518110156125b557603560008d84815181106121dd57fe5b6020026020010151815260200190815260200160002060009054906101000a900473ffffffffffffffffffffffffffffffffffffffff1673ffffffffffffffffffffffffffffffffffffffff168373ffffffffffffffffffffffffffffffffffffffff161461224b57600080fd5b600089828151811061225957fe5b602002602001015114156122d5576040517f08c379a00000000000000000000000000000000000000000000000000000000081526004018080602001828103825260198152602001807f56616c6964697479206d757374206265206e6f6e207a65726f0000000000000081525060200191505060405180910390fd5b60405180604001604052806123068b84815181106122ef57fe5b6020026020010151426132b890919063ffffffff16565b8152602001603b60008f868151811061231b57fe5b6020026020010151815260200190815260200160002054815250603660008e858151811061234557fe5b6020026020010151815260200190815260200160002060008c848151811061236957fe5b6020026020010151815260200190815260200160002060008d848151811061238d57fe5b602002602001015173ffffffffffffffffffffffffffffffffffffffff1673ffffffffffffffffffffffffffffffffffffffff1681526020019081526020016000206000820151816000015560208201518160010155905050603760008d84815181106123f657fe5b6020026020010151815260200190815260200160002060008b838151811061241a57fe5b602002602001015181526020019081526020016000208b828151811061243c57fe5b602002602001015190806001815401808255809150509060018203906000526020600020016000909192909190916101000a81548173ffffffffffffffffffffffffffffffffffffffff021916908373ffffffffffffffffffffffffffffffffffffffff160217905550508a81815181106124b357fe5b602002602001015173ffffffffffffffffffffffffffffffffffffffff168c83815181106124dd57fe5b60200260200101518473ffffffffffffffffffffffffffffffffffffffff167ffd417397adfcc8ca5b3f07719bf7c028a2e3b1748ac83e90888dfe7558f96f6c8d858151811061252957fe5b60200260200101518d868151811061253d57fe5b6020026020010151603860008a73ffffffffffffffffffffffffffffffffffffffff1673ffffffffffffffffffffffffffffffffffffffff1681526020019081526020016000205460405180848152602001838152602001828152602001935050505060405180910390a480806001019150506121c4565b5080806001019150506121b5565b50603860008273ffffffffffffffffffffffffffffffffffffffff1673ffffffffffffffffffffffffffffffffffffffff1681526020019081526020016000206000815480929190600101919050555050505050505050505050565b603c60003373ffffffffffffffffffffffffffffffffffffffff1673ffffffffffffffffffffffffffffffffffffffff16815260200190815260200160002060009054906101000a900460ff166126de576040517f08c379a00000000000000000000000000000000000000000000000000000000081526004018080602001828103825260198152602001807f53686f756c642062652063616c6c6564206279206f776e65720000000000000081525060200191505060405180910390fd5b600073ffffffffffffffffffffffffffffffffffffffff16603560008b815260200190815260200160002060009054906101000a900473ffffffffffffffffffffffffffffffffffffffff1673ffffffffffffffffffffffffffffffffffffffff1614612796576040517f08c379a00000000000000000000000000000000000000000000000000000000081526004018080602001828103825260218152602001806134d56021913960400191505060405180910390fd5b603e548811156127f1576040517f08c379a000000000000000000000000000000000000000000000000000000000815260040180806020018281038252602b8152602001806134aa602b913960400191505060405180910390fd5b868811612866576040517f08c379a00000000000000000000000000000000000000000000000000000000081526004018080602001828103825260038152602001807f6e3e6b000000000000000000000000000000000000000000000000000000000081525060200191505060405180910390fd5b600187116128dc576040517f08c379a00000000000000000000000000000000000000000000000000000000081526004018080602001828103825260118152602001807f6b2073686f756c64206e6f74206265203000000000000000000000000000000081525060200191505060405180910390fd5b6000861415612953576040517f08c379a000000000000000000000000000000000000000000000000000000000815260040180806020018281038252600f8152602001807f53686f756c64206e6f742062652030000000000000000000000000000000000081525060200191505060405180910390fd5b600089898989603860008b73ffffffffffffffffffffffffffffffffffffffff1673ffffffffffffffffffffffffffffffffffffffff16815260200190815260200160002054604051602001808681526020018581526020018481526020018381526020018281526020019550505050505060405160208183030381529060405280519060200120905060006129ec82888888886113aa565b905080603560008d815260200190815260200160002060006101000a81548173ffffffffffffffffffffffffffffffffffffffff021916908373ffffffffffffffffffffffffffffffffffffffff1602179055506040518060a001604052808b81526020018a81526020018981526020013373ffffffffffffffffffffffffffffffffffffffff16815260200184815250603960008d815260200190815260200160002060008201518160000155602082015181600101556040820151816002015560608201518160030160006101000a81548173ffffffffffffffffffffffffffffffffffffffff021916908373ffffffffffffffffffffffffffffffffffffffff1602179055506080820151816004019080519060200190612b119291906133d6565b509050506000603a60008d815260200190815260200160002060006101000a81548160ff021916908315150217905550826040518082805190602001908083835b60208310612b755780518252602082019150602081019050602083039250612b52565b6001836020036101000a03801982511681845116808217855250505050505090500191505060405180910390208b603560008e815260200190815260200160002060009054906101000a900473ffffffffffffffffffffffffffffffffffffffff1673ffffffffffffffffffffffffffffffffffffffff167f3e73b9dec7331900012d58d71143bfd49168fb6d969fbd6c797e1b736a24dd068d8d8d60405180848152602001838152602001828152602001935050505060405180910390a4603860008273ffffffffffffffffffffffffffffffffffffffff1673ffffffffffffffffffffffffffffffffffffffff168152602001908152602001600020600081548092919060010191905055505050505050505050505050565b60376020528260005260406000206020528160005260406000208181548110612cb557fe5b90600052602060002001600092509250509054906101000a900473ffffffffffffffffffffffffffffffffffffffff1681565b603c60003373ffffffffffffffffffffffffffffffffffffffff1673ffffffffffffffffffffffffffffffffffffffff16815260200190815260200160002060009054906101000a900460ff16612da7576040517f08c379a00000000000000000000000000000000000000000000000000000000081526004018080602001828103825260198152602001807f53686f756c642062652063616c6c6564206279206f776e65720000000000000081525060200191505060405180910390fd5b6000878787603860008973ffffffffffffffffffffffffffffffffffffffff1673ffffffffffffffffffffffffffffffffffffffff16815260200190815260200160002054604051602001808581526020018473ffffffffffffffffffffffffffffffffffffffff1673ffffffffffffffffffffffffffffffffffffffff1681526020018381526020018281526020019450505050506040516020818303038152906040528051906020012090506000612e6482878787876113aa565b9050603660008a8152602001908152602001600020600088815260200190815260200160002060008973ffffffffffffffffffffffffffffffffffffffff1673ffffffffffffffffffffffffffffffffffffffff168152602001908152602001600020600080820160009055600182016000905550506000612f8e603760008c815260200190815260200160002060008a8152602001908152602001600020805480602002602001604051908101604052809291908181526020018280548015612f8357602002820191906000526020600020905b8160009054906101000a900473ffffffffffffffffffffffffffffffffffffffff1673ffffffffffffffffffffffffffffffffffffffff1681526020019060010190808311612f39575b50505050508a613357565b9050603760008b815260200190815260200160002060008981526020019081526020016000208181548110612fbf57fe5b9060005260206000200160006101000a81549073ffffffffffffffffffffffffffffffffffffffff0219169055603860008373ffffffffffffffffffffffffffffffffffffffff1673ffffffffffffffffffffffffffffffffffffffff168152602001908152602001600020600081548092919060010191905055508873ffffffffffffffffffffffffffffffffffffffff168a8373ffffffffffffffffffffffffffffffffffffffff167f60cb99feacb32252ac712ece398c95440ae888fd3a720ce9f1b32077771612eb8b6040518082815260200191505060405180910390a450505050505050505050565b60356020528060005260406000206000915054906101000a900473ffffffffffffffffffffffffffffffffffffffff1681565b603b6020528060005260406000206000915090505481565b600082846035600083815260200190815260200160002060009054906101000a900473ffffffffffffffffffffffffffffffffffffffff1673ffffffffffffffffffffffffffffffffffffffff168173ffffffffffffffffffffffffffffffffffffffff161461316757600080fd5b600073ffffffffffffffffffffffffffffffffffffffff168473ffffffffffffffffffffffffffffffffffffffff16141561320a576040517f08c379a000000000000000000000000000000000000000000000000000000000815260040180806020018281038252600f8152602001807f496e76616c69642061646472657373000000000000000000000000000000000081525060200191505060405180910390fd5b836035600087815260200190815260200160002060006101000a81548173ffffffffffffffffffffffffffffffffffffffff021916908373ffffffffffffffffffffffffffffffffffffffff160217905550603860008773ffffffffffffffffffffffffffffffffffffffff1673ffffffffffffffffffffffffffffffffffffffff168152602001908152602001600020600081548092919060010191905055506001925050509392505050565b600080828401905083811015613336576040517f08c379a000000000000000000000000000000000000000000000000000000000815260040180806020018281038252601b8152602001807f536166654d6174683a206164646974696f6e206f766572666c6f77000000000081525060200191505060405180910390fd5b8091505092915050565b6000803090506000813b9050600081149250505090565b600080600090505b8273ffffffffffffffffffffffffffffffffffffffff1684828151811061338257fe5b602002602001015173ffffffffffffffffffffffffffffffffffffffff16146133b257808060010191505061335f565b8091505092915050565b604051806040016040528060008152602001600081525090565b828054600181600116156101000203166002900490600052602060002090601f016020900481019282601f1061341757805160ff1916838001178555613445565b82800160010185558215613445579182015b82811115613444578251825591602001919060010190613429565b5b5090506134529190613456565b5090565b61347891905b8082111561347457600081600090555060010161345c565b5090565b9056fe436f6e747261637420696e7374616e63652068617320616c7265616479206265656e20696e697469616c697a65644e2073686f756c64206265206c657373207468656e206e756d626572206f6620746f74616c206e6f6465734f776e657220616c726561647920657869737420666f7220746869732066696c65a265627a7a72315820603bc088d1e378b8e1a68de98a543b0f5480532d445c142e78e0f9f1ef3f8a0d64736f6c63430005100032",
  "source": "pragma solidity ^0.5;\n\nimport './SafeMath.sol';\nimport './Initializable.sol';\n\ncontract Skizzle is Initializable {\n    address public owner;\n    using SafeMath for uint;\n    bytes32 public log;\n\n    // keccak256(storage index) => bytes32 newfang-specific-idbytes\n    mapping(bytes32 => address) public owners; // file owners\n    // file id => access type => user => ACK\n    mapping(bytes32 => mapping(bytes32 => mapping(address => ACK))) public accessSpecifier;\n    // It is used to get all users of a particular type with particular access\n    mapping(bytes32 => mapping(bytes32 => address[])) public userAccess;\n    mapping(address => uint) public nonce;\n    mapping(bytes32 => File) public files;\n    mapping(bytes32 => bool) public isDeleted;\n    mapping(bytes32 => uint256) public version;\n    mapping(address => bool) public isNode;\n    mapping(address => Usage[]) usages;\n    uint256 public total_nodes;\n\n    struct ACK {\n        uint256 validity;\n        uint256 version;\n    }\n\n    // similar to sets\n    struct Access {\n        bytes32[] types;\n        mapping(bytes32 => bool) is_in;\n    }\n\n    struct File {\n        uint256 n;\n        uint256 k;\n        uint256 file_size;\n        address handling_node;\n        bytes ueb;\n    }\n\n    struct Usage {\n        uint256 total_bytes;\n        bytes32 usage_type; // 0 => upload; 1 => download\n        bytes32 file;\n    }\n\n    modifier onlyFileOwner(bytes32 _file, address _identity) {\n        require(_identity == owners[_file]);\n        _;\n    }\n\n    modifier onlyOwner(){\n        require(msg.sender == owner);\n        _;\n    }\n\n    modifier onlyNode(){\n        require(isNode[msg.sender], \"Should be called by owner\");\n        _;\n    }\n\n\n    function initialize(address[] memory _nodes) public initializer {\n        owner = msg.sender;\n        for (uint256 i = 0; i < _nodes.length; i++) {\n            total_nodes++;\n            isNode[_nodes[i]] = true;\n        }\n    }\n\n    function addNode(address _node) public onlyOwner {\n        total_nodes++;\n        isNode[_node] = true;\n    }\n\n    function deleteNode(address _node) public onlyOwner {\n        total_nodes--;\n        isNode[_node] = false;\n    }\n\n    function getSigner(bytes32 payloadHash, address signer, uint8 v, bytes32 r, bytes32 s) public pure returns (address){\n        bytes32 messageHash = keccak256(abi.encodePacked(\"\\x19Ethereum Signed Message:\\n32\", payloadHash));\n        address actualSigner = ecrecover(messageHash, v, r, s);\n        require(signer == actualSigner);\n        return actualSigner;\n    }\n\n\n    function createDIDSigned(bytes32 _file, uint256 n, uint256 k, uint256 _file_size, address signer, uint8 v, bytes32 r, bytes32 s, bytes memory _ueb) public onlyNode {\n        require(owners[_file] == address(0), \"Owner already exist for this file\");\n        require(n <= total_nodes , \"N should be less then number of total nodes\");\n        require(n > k, \"n>k\");\n        require(k > 1, \"k should not be 0\");\n        require(_file_size != 0, \"Should not be 0\");\n        bytes32 payloadHash = keccak256(abi.encode(_file, n, k, _file_size, nonce[signer]));\n        address _identity = getSigner(payloadHash, signer, v, r, s);\n        owners[_file] = _identity;\n        files[_file] = File(n, k, _file_size, msg.sender, _ueb);\n        isDeleted[_file] = false;\n        emit NewFileUpdate(owners[_file], _file, n, k, _file_size, _ueb);\n        nonce[_identity]++;\n    }\n\n    event deleteFileEvent(\n        address indexed identity,\n        bytes32 indexed file\n    );\n\n\n    function deleteFileSigned(bytes32 _file, address signer, uint8 v, bytes32 r, bytes32 s) public onlyNode {\n        bytes32 payloadHash = keccak256(abi.encode(_file, nonce[signer]));\n        address _identity = getSigner(payloadHash, signer, v, r, s);\n        require(owners[_file] == _identity, \"Owner does not match\");\n        isDeleted[_file] = true;\n        version[_file]++;\n        delete owners[_file];\n        nonce[_identity]++;\n        emit deleteFileEvent(_identity, _file);\n    }\n\n\n    function getAllUsers(bytes32 _file, bytes32 _access_type) public view returns (address[] memory){\n        address[] memory users = userAccess[_file][_access_type];\n        address user;\n        for (uint i = 0; i < users.length; i++) {\n            user = userAccess[_file][_access_type][i];\n            uint256 current_version = version[_file];\n            if (accessSpecifier[_file][_access_type][user].validity <= now || accessSpecifier[_file][_access_type][user].version != current_version) {\n                delete users[i];\n            }\n        }\n        return users;\n    }\n\n\n    event NewShare(\n        address indexed identity,\n        bytes32 indexed file,\n        address indexed user,\n        bytes32 access_type,\n        uint256 validity,\n        uint256 nonce\n    );\n\n    /**\n    * @dev key is encrypted with users public key and stored on a server hash of encrypted key is stored here in smart\n     contract along with its validity\n    * @return bool\n    */\n    function shareSigned(bytes32[] memory _files, address[] memory _user, bytes32[] memory _access_type, uint256[] memory _validity, address signer, uint8 v, bytes32 r, bytes32 s) onlyNode public {\n        bytes32 payloadHash = keccak256(abi.encode(_files, _user, _access_type, _validity, nonce[signer]));\n        address _identity = getSigner(payloadHash, signer, v, r, s);\n        for (uint j = 0; j < _files.length; j++) {\n            for (uint i = 0; i < _user.length; i++) {\n                require(_identity == owners[_files[j]]);\n                require(_validity[i] != 0, \"Validity must be non zero\");\n                accessSpecifier[_files[j]][_access_type[i]][_user[i]] = ACK(now.add(_validity[i]), version[_files[j]]);\n                userAccess[_files[j]][_access_type[i]].push(_user[i]);\n                emit NewShare(_identity, _files[j], _user[i], _access_type[i], _validity[i], nonce[_identity]);\n            }\n        }\n        nonce[_identity]++;\n    }\n\n    event NewFileUpdate(\n        address indexed identity,\n        bytes32 indexed file,\n        uint256 n,\n        uint256 k,\n        uint256 file_size,\n        bytes indexed ueb\n    );\n\n    event NewDownload(\n        address indexed identity,\n        bytes32 indexed file,\n        uint256 validity,\n        bytes32 access_type\n    );\n\n\n    function downloadSigned(bytes32 _file, bytes32 _access_type, address signer, uint8 v, bytes32 r, bytes32 s) onlyNode public returns (uint256) {\n        bytes32 payloadHash = keccak256(abi.encode(_file, _access_type, nonce[signer]));\n        address _identity = getSigner(payloadHash, signer, v, r, s);\n        ACK memory ack = accessSpecifier[_file][_access_type][_identity];\n        uint256 validity = ack.validity;\n        if (_identity == owners[_file]) {\n            validity = now.add(1000000);\n        } else {\n            require(ack.version == version[_file], \"Version of file doesn't match\");\n            require(validity != uint256(0), \"Validity is 0\");\n        }\n        nonce[_identity]++;\n        emit NewDownload(_identity, _file, validity, _access_type);\n        return validity;\n    }\n\n\n    function IndexOf(address[] memory values, address value) internal pure returns (uint) {\n        uint i = 0;\n        while (values[i] != value) {\n            i++;\n        }\n        return i;\n    }\n\n    event NewUpdateACK(\n        address indexed identity,\n        bytes32 indexed file,\n        address indexed user,\n        bytes32 access_type\n    );\n\n\n    /**\n    * @dev Update ACK(Access Control Key) validity, it can not be used to change access_type, to change you have to share the\n    file again with desired access type and you may remove the previous access type\n    * @return bool\n    */\n    function revokeSigned(bytes32 _file, address _user, bytes32 _access_type, address signer, uint8 v, bytes32 r, bytes32 s) onlyNode public {\n        bytes32 payloadHash = keccak256(abi.encode(_file, _user, _access_type, nonce[signer]));\n        address _identity = getSigner(payloadHash, signer, v, r, s);\n        delete accessSpecifier[_file][_access_type][_user];\n        uint index = IndexOf(userAccess[_file][_access_type], _user);\n        delete userAccess[_file][_access_type][index];\n        nonce[_identity]++;\n        emit NewUpdateACK(_identity, _file, _user, _access_type);\n    }\n\n\n\n    /**\n    * @dev Change file Owner\n    * @return bool\n    */\n    function changeFileOwner(address _identity, bytes32 _file, address _new_owner) internal onlyFileOwner(_file, _identity) returns (bool){\n        require(_new_owner != address(0), \"Invalid address\");\n        owners[_file] = _new_owner;\n        nonce[_identity]++;\n        return true;\n    }\n\n    function changeOwnerSigned(bytes32 _file, address _new_owner, address signer, uint8 v, bytes32 r, bytes32 s) onlyNode public returns (bool) {\n        bytes32 payloadHash = keccak256(abi.encode(_file, _new_owner, nonce[signer]));\n        address actualSigner = getSigner(payloadHash, signer, v, r, s);\n        return changeFileOwner(actualSigner, _file, _new_owner);\n    }\n\n}\n",
  "sourcePath": "/home/saurav/projects/skizzle_smart_contracts/contracts/Skizzle.sol",
  "compiler": {
    "name": "solc",
    "version": "0.5.16+commit.9c3226ce.Emscripten.clang"
  },
  "schemaVersion": "3.1.0",
  "updatedAt": "2020-09-01T10:34:07.219Z",
  "devdoc": {
    "methods": {
      "revokeSigned(bytes32,address,bytes32,address,uint8,bytes32,bytes32)": {
        "details": "Update ACK(Access Control Key) validity, it can not be used to change access_type, to change you have to share the file again with desired access type and you may remove the previous access type",
        "return": "bool"
      },
      "shareSigned(bytes32[],address[],bytes32[],uint256[],address,uint8,bytes32,bytes32)": {
        "details": "key is encrypted with users public key and stored on a server hash of encrypted key is stored here in smart contract along with its validity",
        "return": "bool"
      }
    }
  },
  "userdoc": {
    "methods": {}
  }
}