{
  "contractName": "Skizzle",
  "abi": [
    {
      "anonymous": false,
      "inputs": [
        {
          "indexed": true,
          "internalType": "address",
          "name": "identity",
          "type": "address"
        },
        {
          "indexed": true,
          "internalType": "bytes32",
          "name": "file",
          "type": "bytes32"
        },
        {
          "indexed": false,
          "internalType": "uint256",
          "name": "validity",
          "type": "uint256"
        },
        {
          "indexed": false,
          "internalType": "bytes32",
          "name": "access_type",
          "type": "bytes32"
        }
      ],
      "name": "NewDownload",
      "type": "event"
    },
    {
      "anonymous": false,
      "inputs": [
        {
          "indexed": true,
          "internalType": "address",
          "name": "identity",
          "type": "address"
        },
        {
          "indexed": true,
          "internalType": "bytes32",
          "name": "file",
          "type": "bytes32"
        },
        {
          "indexed": false,
          "internalType": "uint256",
          "name": "n",
          "type": "uint256"
        },
        {
          "indexed": false,
          "internalType": "uint256",
          "name": "k",
          "type": "uint256"
        },
        {
          "indexed": false,
          "internalType": "uint256",
          "name": "file_size",
          "type": "uint256"
        },
        {
          "indexed": true,
          "internalType": "bytes",
          "name": "ueb",
          "type": "bytes"
        }
      ],
      "name": "NewFileUpdate",
      "type": "event"
    },
    {
      "anonymous": false,
      "inputs": [
        {
          "indexed": true,
          "internalType": "address",
          "name": "identity",
          "type": "address"
        },
        {
          "indexed": true,
          "internalType": "bytes32",
          "name": "file",
          "type": "bytes32"
        },
        {
          "indexed": true,
          "internalType": "address",
          "name": "user",
          "type": "address"
        },
        {
          "indexed": false,
          "internalType": "bytes32",
          "name": "access_type",
          "type": "bytes32"
        },
        {
          "indexed": false,
          "internalType": "uint256",
          "name": "validity",
          "type": "uint256"
        },
        {
          "indexed": false,
          "internalType": "uint256",
          "name": "nonce",
          "type": "uint256"
        }
      ],
      "name": "NewShare",
      "type": "event"
    },
    {
      "anonymous": false,
      "inputs": [
        {
          "indexed": true,
          "internalType": "address",
          "name": "identity",
          "type": "address"
        },
        {
          "indexed": true,
          "internalType": "bytes32",
          "name": "file",
          "type": "bytes32"
        },
        {
          "indexed": true,
          "internalType": "address",
          "name": "user",
          "type": "address"
        },
        {
          "indexed": false,
          "internalType": "bytes32",
          "name": "access_type",
          "type": "bytes32"
        },
        {
          "indexed": false,
          "internalType": "uint256",
          "name": "validity",
          "type": "uint256"
        }
      ],
      "name": "NewUpdateACK",
      "type": "event"
    },
    {
      "anonymous": false,
      "inputs": [
        {
          "indexed": true,
          "internalType": "address",
          "name": "identity",
          "type": "address"
        },
        {
          "indexed": true,
          "internalType": "bytes32",
          "name": "file",
          "type": "bytes32"
        }
      ],
      "name": "deleteFileEvent",
      "type": "event"
    },
    {
      "constant": true,
      "inputs": [
        {
          "internalType": "bytes32",
          "name": "",
          "type": "bytes32"
        },
        {
          "internalType": "bytes32",
          "name": "",
          "type": "bytes32"
        },
        {
          "internalType": "address",
          "name": "",
          "type": "address"
        }
      ],
      "name": "accessSpecifier",
      "outputs": [
        {
          "internalType": "uint256",
          "name": "",
          "type": "uint256"
        }
      ],
      "payable": false,
      "stateMutability": "view",
      "type": "function"
    },
    {
      "constant": true,
      "inputs": [
        {
          "internalType": "bytes32",
          "name": "",
          "type": "bytes32"
        }
      ],
      "name": "files",
      "outputs": [
        {
          "internalType": "uint256",
          "name": "n",
          "type": "uint256"
        },
        {
          "internalType": "uint256",
          "name": "k",
          "type": "uint256"
        },
        {
          "internalType": "uint256",
          "name": "file_size",
          "type": "uint256"
        },
        {
          "internalType": "address",
          "name": "handling_node",
          "type": "address"
        },
        {
          "internalType": "bytes",
          "name": "ueb",
          "type": "bytes"
        }
      ],
      "payable": false,
      "stateMutability": "view",
      "type": "function"
    },
    {
      "constant": true,
      "inputs": [],
      "name": "log",
      "outputs": [
        {
          "internalType": "bytes32",
          "name": "",
          "type": "bytes32"
        }
      ],
      "payable": false,
      "stateMutability": "view",
      "type": "function"
    },
    {
      "constant": true,
      "inputs": [
        {
          "internalType": "uint256",
          "name": "",
          "type": "uint256"
        }
      ],
      "name": "nodes",
      "outputs": [
        {
          "internalType": "address",
          "name": "",
          "type": "address"
        }
      ],
      "payable": false,
      "stateMutability": "view",
      "type": "function"
    },
    {
      "constant": true,
      "inputs": [
        {
          "internalType": "address",
          "name": "",
          "type": "address"
        }
      ],
      "name": "nonce",
      "outputs": [
        {
          "internalType": "uint256",
          "name": "",
          "type": "uint256"
        }
      ],
      "payable": false,
      "stateMutability": "view",
      "type": "function"
    },
    {
      "constant": true,
      "inputs": [],
      "name": "owner",
      "outputs": [
        {
          "internalType": "address",
          "name": "",
          "type": "address"
        }
      ],
      "payable": false,
      "stateMutability": "view",
      "type": "function"
    },
    {
      "constant": true,
      "inputs": [
        {
          "internalType": "bytes32",
          "name": "",
          "type": "bytes32"
        }
      ],
      "name": "owners",
      "outputs": [
        {
          "internalType": "address",
          "name": "",
          "type": "address"
        }
      ],
      "payable": false,
      "stateMutability": "view",
      "type": "function"
    },
    {
      "constant": true,
      "inputs": [
        {
          "internalType": "bytes32",
          "name": "",
          "type": "bytes32"
        },
        {
          "internalType": "bytes32",
          "name": "",
          "type": "bytes32"
        },
        {
          "internalType": "uint256",
          "name": "",
          "type": "uint256"
        }
      ],
      "name": "userAccess",
      "outputs": [
        {
          "internalType": "address",
          "name": "",
          "type": "address"
        }
      ],
      "payable": false,
      "stateMutability": "view",
      "type": "function"
    },
    {
      "constant": false,
      "inputs": [
        {
          "internalType": "address[]",
          "name": "_nodes",
          "type": "address[]"
        }
      ],
      "name": "initialize",
      "outputs": [],
      "payable": false,
      "stateMutability": "nonpayable",
      "type": "function"
    },
    {
      "constant": true,
      "inputs": [],
      "name": "total_nodes",
      "outputs": [
        {
          "internalType": "uint256",
          "name": "",
          "type": "uint256"
        }
      ],
      "payable": false,
      "stateMutability": "view",
      "type": "function"
    },
    {
      "constant": false,
      "inputs": [
        {
          "internalType": "address",
          "name": "_node",
          "type": "address"
        }
      ],
      "name": "addNode",
      "outputs": [],
      "payable": false,
      "stateMutability": "nonpayable",
      "type": "function"
    },
    {
      "constant": false,
      "inputs": [],
      "name": "deleteNode",
      "outputs": [],
      "payable": false,
      "stateMutability": "nonpayable",
      "type": "function"
    },
    {
      "constant": true,
      "inputs": [
        {
          "internalType": "bytes32",
          "name": "payloadHash",
          "type": "bytes32"
        },
        {
          "internalType": "address",
          "name": "signer",
          "type": "address"
        },
        {
          "internalType": "uint8",
          "name": "v",
          "type": "uint8"
        },
        {
          "internalType": "bytes32",
          "name": "r",
          "type": "bytes32"
        },
        {
          "internalType": "bytes32",
          "name": "s",
          "type": "bytes32"
        }
      ],
      "name": "getSigner",
      "outputs": [
        {
          "internalType": "address",
          "name": "",
          "type": "address"
        }
      ],
      "payable": false,
      "stateMutability": "pure",
      "type": "function"
    },
    {
      "constant": false,
      "inputs": [
        {
          "internalType": "bytes32",
          "name": "_file",
          "type": "bytes32"
        },
        {
          "internalType": "uint256",
          "name": "n",
          "type": "uint256"
        },
        {
          "internalType": "uint256",
          "name": "k",
          "type": "uint256"
        },
        {
          "internalType": "uint256",
          "name": "_file_size",
          "type": "uint256"
        },
        {
          "internalType": "address",
          "name": "signer",
          "type": "address"
        },
        {
          "internalType": "uint8",
          "name": "v",
          "type": "uint8"
        },
        {
          "internalType": "bytes32",
          "name": "r",
          "type": "bytes32"
        },
        {
          "internalType": "bytes32",
          "name": "s",
          "type": "bytes32"
        }
      ],
      "name": "createDIDSigned",
      "outputs": [],
      "payable": false,
      "stateMutability": "nonpayable",
      "type": "function"
    },
    {
      "constant": false,
      "inputs": [
        {
          "internalType": "bytes32",
          "name": "_id",
          "type": "bytes32"
        },
        {
          "internalType": "address",
          "name": "signer",
          "type": "address"
        },
        {
          "internalType": "uint8",
          "name": "v",
          "type": "uint8"
        },
        {
          "internalType": "bytes32",
          "name": "r",
          "type": "bytes32"
        },
        {
          "internalType": "bytes32",
          "name": "s",
          "type": "bytes32"
        }
      ],
      "name": "deleteFileSigned",
      "outputs": [],
      "payable": false,
      "stateMutability": "nonpayable",
      "type": "function"
    },
    {
      "constant": true,
      "inputs": [
        {
          "internalType": "bytes32",
          "name": "_file",
          "type": "bytes32"
        },
        {
          "internalType": "bytes32",
          "name": "_access_type",
          "type": "bytes32"
        }
      ],
      "name": "getTotalUsers",
      "outputs": [
        {
          "internalType": "uint256",
          "name": "",
          "type": "uint256"
        }
      ],
      "payable": false,
      "stateMutability": "view",
      "type": "function"
    },
    {
      "constant": true,
      "inputs": [
        {
          "internalType": "bytes32",
          "name": "_file",
          "type": "bytes32"
        },
        {
          "internalType": "bytes32",
          "name": "_access_type",
          "type": "bytes32"
        }
      ],
      "name": "getAllUsers",
      "outputs": [
        {
          "internalType": "address[]",
          "name": "",
          "type": "address[]"
        }
      ],
      "payable": false,
      "stateMutability": "view",
      "type": "function"
    },
    {
      "constant": false,
      "inputs": [
        {
          "internalType": "bytes32[]",
          "name": "_files",
          "type": "bytes32[]"
        },
        {
          "internalType": "address[]",
          "name": "_user",
          "type": "address[]"
        },
        {
          "internalType": "bytes32[]",
          "name": "_access_type",
          "type": "bytes32[]"
        },
        {
          "internalType": "uint256[]",
          "name": "_validity",
          "type": "uint256[]"
        },
        {
          "internalType": "address",
          "name": "signer",
          "type": "address"
        },
        {
          "internalType": "uint8",
          "name": "v",
          "type": "uint8"
        },
        {
          "internalType": "bytes32",
          "name": "r",
          "type": "bytes32"
        },
        {
          "internalType": "bytes32",
          "name": "s",
          "type": "bytes32"
        }
      ],
      "name": "shareSigned",
      "outputs": [],
      "payable": false,
      "stateMutability": "nonpayable",
      "type": "function"
    },
    {
      "constant": false,
      "inputs": [
        {
          "internalType": "bytes32",
          "name": "_file",
          "type": "bytes32"
        },
        {
          "internalType": "bytes",
          "name": "ueb",
          "type": "bytes"
        }
      ],
      "name": "fileUpdate",
      "outputs": [
        {
          "internalType": "bool",
          "name": "",
          "type": "bool"
        }
      ],
      "payable": false,
      "stateMutability": "nonpayable",
      "type": "function"
    },
    {
      "constant": false,
      "inputs": [
        {
          "internalType": "bytes32",
          "name": "_file",
          "type": "bytes32"
        },
        {
          "internalType": "bytes32",
          "name": "_access_type",
          "type": "bytes32"
        },
        {
          "internalType": "address",
          "name": "signer",
          "type": "address"
        },
        {
          "internalType": "uint8",
          "name": "v",
          "type": "uint8"
        },
        {
          "internalType": "bytes32",
          "name": "r",
          "type": "bytes32"
        },
        {
          "internalType": "bytes32",
          "name": "s",
          "type": "bytes32"
        }
      ],
      "name": "downloadSigned",
      "outputs": [
        {
          "internalType": "uint256",
          "name": "",
          "type": "uint256"
        }
      ],
      "payable": false,
      "stateMutability": "nonpayable",
      "type": "function"
    },
    {
      "constant": false,
      "inputs": [
        {
          "internalType": "bytes32",
          "name": "_file",
          "type": "bytes32"
        },
        {
          "internalType": "address",
          "name": "_user",
          "type": "address"
        },
        {
          "internalType": "bytes32",
          "name": "_access_type",
          "type": "bytes32"
        },
        {
          "internalType": "uint256",
          "name": "_validity",
          "type": "uint256"
        },
        {
          "internalType": "address",
          "name": "signer",
          "type": "address"
        },
        {
          "internalType": "uint8",
          "name": "v",
          "type": "uint8"
        },
        {
          "internalType": "bytes32",
          "name": "r",
          "type": "bytes32"
        },
        {
          "internalType": "bytes32",
          "name": "s",
          "type": "bytes32"
        }
      ],
      "name": "updateACKSigned",
      "outputs": [],
      "payable": false,
      "stateMutability": "nonpayable",
      "type": "function"
    },
    {
      "constant": false,
      "inputs": [
        {
          "internalType": "bytes32",
          "name": "_file",
          "type": "bytes32"
        },
        {
          "internalType": "address",
          "name": "_new_owner",
          "type": "address"
        },
        {
          "internalType": "address",
          "name": "signer",
          "type": "address"
        },
        {
          "internalType": "uint8",
          "name": "v",
          "type": "uint8"
        },
        {
          "internalType": "bytes32",
          "name": "r",
          "type": "bytes32"
        },
        {
          "internalType": "bytes32",
          "name": "s",
          "type": "bytes32"
        }
      ],
      "name": "changeOwnerSigned",
      "outputs": [
        {
          "internalType": "bool",
          "name": "",
          "type": "bool"
        }
      ],
      "payable": false,
      "stateMutability": "nonpayable",
      "type": "function"
    }
  ],
  "bytecode": "0x608060405234801561001057600080fd5b50613c5d806100206000396000f3fe608060405234801561001057600080fd5b50600436106101425760003560e01c80638da5cb5b116100b8578063acaef0e01161007c578063acaef0e0146108fb578063ad28fd0c14610905578063c12ed14f14610bbb578063f092d8f314610c3d578063f82430a814610d1a578063fb8ad6ff14610d6657610142565b80638da5cb5b146106385780638fce932e1461068257806398c9adff146107105780639d95f1cc146107ff578063a224cee71461084357610142565b80635d3449c91161010a5780635d3449c9146103075780635db27a30146103ab5780635f784b8a1461045a5780636184533f146104c657806370ae92d214610553578063799d59c7146105ab57610142565b8063104046bd146101475780631c53c28014610165578063297cda7b146101d357806351973ec91461027a5780635bf8aa6e14610298575b600080fd5b61014f610dd4565b6040518082815260200191505060405180910390f35b6101916004803603602081101561017b57600080fd5b8101908080359060200190929190505050610de1565b604051808273ffffffffffffffffffffffffffffffffffffffff1673ffffffffffffffffffffffffffffffffffffffff16815260200191505060405180910390f35b610260600480360360c08110156101e957600080fd5b8101908080359060200190929190803573ffffffffffffffffffffffffffffffffffffffff169060200190929190803573ffffffffffffffffffffffffffffffffffffffff169060200190929190803560ff1690602001909291908035906020019092919080359060200190929190505050610e1d565b604051808215151515815260200191505060405180910390f35b610282610f94565b6040518082815260200191505060405180910390f35b610305600480360360a08110156102ae57600080fd5b8101908080359060200190929190803573ffffffffffffffffffffffffffffffffffffffff169060200190929190803560ff1690602001909291908035906020019092919080359060200190929190505050610f9a565b005b6103a9600480360361010081101561031e57600080fd5b8101908080359060200190929190803573ffffffffffffffffffffffffffffffffffffffff1690602001909291908035906020019092919080359060200190929190803573ffffffffffffffffffffffffffffffffffffffff169060200190929190803560ff1690602001909291908035906020019092919080359060200190929190505050611599565b005b610418600480360360a08110156103c157600080fd5b8101908080359060200190929190803573ffffffffffffffffffffffffffffffffffffffff169060200190929190803560ff1690602001909291908035906020019092919080359060200190929190505050611a82565b604051808273ffffffffffffffffffffffffffffffffffffffff1673ffffffffffffffffffffffffffffffffffffffff16815260200191505060405180910390f35b6104b06004803603606081101561047057600080fd5b810190808035906020019092919080359060200190929190803573ffffffffffffffffffffffffffffffffffffffff169060200190929190505050611b87565b6040518082815260200191505060405180910390f35b6104fc600480360360408110156104dc57600080fd5b810190808035906020019092919080359060200190929190505050611bb9565b6040518080602001828103825283818151815260200191508051906020019060200280838360005b8381101561053f578082015181840152602081019050610524565b505050509050019250505060405180910390f35b6105956004803603602081101561056957600080fd5b81019080803573ffffffffffffffffffffffffffffffffffffffff169060200190929190505050611d84565b6040518082815260200191505060405180910390f35b610622600480360360c08110156105c157600080fd5b810190808035906020019092919080359060200190929190803573ffffffffffffffffffffffffffffffffffffffff169060200190929190803560ff1690602001909291908035906020019092919080359060200190929190505050611d9c565b6040518082815260200191505060405180910390f35b6106406120e6565b604051808273ffffffffffffffffffffffffffffffffffffffff1673ffffffffffffffffffffffffffffffffffffffff16815260200191505060405180910390f35b61070e600480360361010081101561069957600080fd5b8101908080359060200190929190803590602001909291908035906020019092919080359060200190929190803573ffffffffffffffffffffffffffffffffffffffff169060200190929190803560ff169060200190929190803590602001909291908035906020019092919050505061210c565b005b61073c6004803603602081101561072657600080fd5b8101908080359060200190929190505050612655565b604051808681526020018581526020018481526020018373ffffffffffffffffffffffffffffffffffffffff1673ffffffffffffffffffffffffffffffffffffffff16815260200180602001828103825283818151815260200191508051906020019080838360005b838110156107c05780820151818401526020810190506107a5565b50505050905090810190601f1680156107ed5780820380516001836020036101000a031916815260200191505b50965050505050505060405180910390f35b6108416004803603602081101561081557600080fd5b81019080803573ffffffffffffffffffffffffffffffffffffffff169060200190929190505050612743565b005b6108f96004803603602081101561085957600080fd5b810190808035906020019064010000000081111561087657600080fd5b82018360208201111561088857600080fd5b803590602001918460208302840111640100000000831117156108aa57600080fd5b919080806020026020016040519081016040528093929190818152602001838360200280828437600081840152601f19601f820116905080830192505050505050509192919290505050612806565b005b61090361295e565b005b610bb9600480360361010081101561091c57600080fd5b810190808035906020019064010000000081111561093957600080fd5b82018360208201111561094b57600080fd5b8035906020019184602083028401116401000000008311171561096d57600080fd5b919080806020026020016040519081016040528093929190818152602001838360200280828437600081840152601f19601f820116905080830192505050505050509192919290803590602001906401000000008111156109cd57600080fd5b8201836020820111156109df57600080fd5b80359060200191846020830284011164010000000083111715610a0157600080fd5b919080806020026020016040519081016040528093929190818152602001838360200280828437600081840152601f19601f82011690508083019250505050505050919291929080359060200190640100000000811115610a6157600080fd5b820183602082011115610a7357600080fd5b80359060200191846020830284011164010000000083111715610a9557600080fd5b919080806020026020016040519081016040528093929190818152602001838360200280828437600081840152601f19601f82011690508083019250505050505050919291929080359060200190640100000000811115610af557600080fd5b820183602082011115610b0757600080fd5b80359060200191846020830284011164010000000083111715610b2957600080fd5b919080806020026020016040519081016040528093929190818152602001838360200280828437600081840152601f19601f820116905080830192505050505050509192919290803573ffffffffffffffffffffffffffffffffffffffff169060200190929190803560ff16906020019092919080359060200190929190803590602001909291905050506129c8565b005b610bfb60048036036060811015610bd157600080fd5b8101908080359060200190929190803590602001909291908035906020019092919050505061315b565b604051808273ffffffffffffffffffffffffffffffffffffffff1673ffffffffffffffffffffffffffffffffffffffff16815260200191505060405180910390f35b610d0060048036036040811015610c5357600080fd5b810190808035906020019092919080359060200190640100000000811115610c7a57600080fd5b820183602082011115610c8c57600080fd5b80359060200191846001830284011164010000000083111715610cae57600080fd5b91908080601f016020809104026020016040519081016040528093929190818152602001838380828437600081840152601f19601f8201169050808301925050505050505091929192905050506131b3565b604051808215151515815260200191505060405180910390f35b610d5060048036036040811015610d3057600080fd5b81019080803590602001909291908035906020019092919050505061343c565b6040518082815260200191505060405180910390f35b610d9260048036036020811015610d7c57600080fd5b8101908080359060200190929190505050613630565b604051808273ffffffffffffffffffffffffffffffffffffffff1673ffffffffffffffffffffffffffffffffffffffff16815260200191505060405180910390f35b6000603c80549050905090565b603c8181548110610dee57fe5b906000526020600020016000915054906101000a900473ffffffffffffffffffffffffffffffffffffffff1681565b6000806000905060008090505b603c80549050811015610eb857603c8181548110610e4457fe5b9060005260206000200160009054906101000a900473ffffffffffffffffffffffffffffffffffffffff1673ffffffffffffffffffffffffffffffffffffffff163373ffffffffffffffffffffffffffffffffffffffff161415610eab5760019150610eb8565b8080600101915050610e2a565b5080610ec357600080fd5b60008888603860008a73ffffffffffffffffffffffffffffffffffffffff1673ffffffffffffffffffffffffffffffffffffffff16815260200190815260200160002054604051602001808481526020018373ffffffffffffffffffffffffffffffffffffffff1673ffffffffffffffffffffffffffffffffffffffff16815260200182815260200193505050506040516020818303038152906040528051906020012090506000610f788289898989611a82565b9050610f85818b8b613663565b93505050509695505050505050565b60345481565b600080905060008090505b603c8054905081101561103357603c8181548110610fbf57fe5b9060005260206000200160009054906101000a900473ffffffffffffffffffffffffffffffffffffffff1673ffffffffffffffffffffffffffffffffffffffff163373ffffffffffffffffffffffffffffffffffffffff1614156110265760019150611033565b8080600101915050610fa5565b508061103e57600080fd5b600086603860008873ffffffffffffffffffffffffffffffffffffffff1673ffffffffffffffffffffffffffffffffffffffff16815260200190815260200160002054604051602001808381526020018281526020019250505060405160208183030381529060405280519060200120905060006110bf8288888888611a82565b90508073ffffffffffffffffffffffffffffffffffffffff16603560008a815260200190815260200160002060009054906101000a900473ffffffffffffffffffffffffffffffffffffffff1673ffffffffffffffffffffffffffffffffffffffff1614611195576040517f08c379a00000000000000000000000000000000000000000000000000000000081526004018080602001828103825260148152602001807f4f776e657220646f6573206e6f74206d6174636800000000000000000000000081525060200191505060405180910390fd5b6060600080600090505b603a60008c81526020019081526020016000206000018054905081101561145e57603760008c81526020019081526020016000206000603a60008e815260200190815260200160002060000183815481106111f657fe5b9060005260206000200154815260200190815260200160002080548060200260200160405190810160405280929190818152602001828054801561128f57602002820191906000526020600020905b8160009054906101000a900473ffffffffffffffffffffffffffffffffffffffff1673ffffffffffffffffffffffffffffffffffffffff1681526020019060010190808311611245575b5050505050925060008090505b835181101561145057603760008d81526020019081526020016000206000603a60008f815260200190815260200160002060000184815481106112db57fe5b9060005260206000200154815260200190815260200160002081815481106112ff57fe5b9060005260206000200160009054906101000a900473ffffffffffffffffffffffffffffffffffffffff169250603660008d81526020019081526020016000206000603a60008f8152602001908152602001600020600001848154811061136257fe5b9060005260206000200154815260200190815260200160002060008473ffffffffffffffffffffffffffffffffffffffff1673ffffffffffffffffffffffffffffffffffffffff16815260200190815260200160002060009055603760008d81526020019081526020016000206000603a60008f815260200190815260200160002060000184815481106113f257fe5b90600052602060002001548152602001908152602001600020818154811061141657fe5b9060005260206000200160006101000a81549073ffffffffffffffffffffffffffffffffffffffff0219169055808060010191505061129c565b50808060010191505061119f565b50603960008b8152602001908152602001600020600080820160009055600182016000905560028201600090556003820160006101000a81549073ffffffffffffffffffffffffffffffffffffffff02191690556004820160006114c29190613927565b5050603560008b815260200190815260200160002060006101000a81549073ffffffffffffffffffffffffffffffffffffffff0219169055603860008473ffffffffffffffffffffffffffffffffffffffff1673ffffffffffffffffffffffffffffffffffffffff16815260200190815260200160002060008154809291906001019190505550898373ffffffffffffffffffffffffffffffffffffffff167f81743a3708ed5c44fdbfae0d726dbd4b3df98e47b90eb1e58a23a392d67abb8260405160405180910390a350505050505050505050565b600080905060008090505b603c8054905081101561163257603c81815481106115be57fe5b9060005260206000200160009054906101000a900473ffffffffffffffffffffffffffffffffffffffff1673ffffffffffffffffffffffffffffffffffffffff163373ffffffffffffffffffffffffffffffffffffffff1614156116255760019150611632565b80806001019150506115a4565b508061163d57600080fd5b600089898989603860008b73ffffffffffffffffffffffffffffffffffffffff1673ffffffffffffffffffffffffffffffffffffffff16815260200190815260200160002054604051602001808681526020018573ffffffffffffffffffffffffffffffffffffffff1673ffffffffffffffffffffffffffffffffffffffff1681526020018481526020018381526020018281526020019550505050505060405160208183030381529060405280519060200120905060006117028288888888611a82565b9050611717884261382390919063ffffffff16565b603660008d815260200190815260200160002060008b815260200190815260200160002060008c73ffffffffffffffffffffffffffffffffffffffff1673ffffffffffffffffffffffffffffffffffffffff1681526020019081526020016000208190555060008814156118fe57603660008c815260200190815260200160002060008a815260200190815260200160002060008b73ffffffffffffffffffffffffffffffffffffffff1673ffffffffffffffffffffffffffffffffffffffff16815260200190815260200160002060009055600061189e603760008e815260200190815260200160002060008c815260200190815260200160002080548060200260200160405190810160405280929190818152602001828054801561189357602002820191906000526020600020905b8160009054906101000a900473ffffffffffffffffffffffffffffffffffffffff1673ffffffffffffffffffffffffffffffffffffffff1681526020019060010190808311611849575b50505050508c6138ab565b9050603760008d815260200190815260200160002060008b815260200190815260200160002081815481106118cf57fe5b9060005260206000200160006101000a81549073ffffffffffffffffffffffffffffffffffffffff0219169055505b603a60008c815260200190815260200160002060010160008a815260200190815260200160002060009054906101000a900460ff166119b857603a60008c81526020019081526020016000206000018990806001815401808255809150509060018203906000526020600020016000909192909190915055506001603a60008d815260200190815260200160002060010160008b815260200190815260200160002060006101000a81548160ff0219169083151502179055505b603860008273ffffffffffffffffffffffffffffffffffffffff1673ffffffffffffffffffffffffffffffffffffffff168152602001908152602001600020600081548092919060010191905055508973ffffffffffffffffffffffffffffffffffffffff168b8273ffffffffffffffffffffffffffffffffffffffff167f906a970a1a9d2003fe06a6a1ed320bd719e31fd2676acca2e87710a2fe2f69e18c8c604051808381526020018281526020019250505060405180910390a45050505050505050505050565b6000808660405160200180807f19457468657265756d205369676e6564204d6573736167653a0a333200000000815250601c01828152602001915050604051602081830303815290604052805190602001209050600060018287878760405160008152602001604052604051808581526020018460ff1660ff1681526020018381526020018281526020019450505050506020604051602081039080840390855afa158015611b35573d6000803e3d6000fd5b5050506020604051035190508073ffffffffffffffffffffffffffffffffffffffff168773ffffffffffffffffffffffffffffffffffffffff1614611b7957600080fd5b809250505095945050505050565b603660205282600052604060002060205281600052604060002060205280600052604060002060009250925050505481565b606080603760008581526020019081526020016000206000848152602001908152602001600020805480602002602001604051908101604052809291908181526020018280548015611c6057602002820191906000526020600020905b8160009054906101000a900473ffffffffffffffffffffffffffffffffffffffff1673ffffffffffffffffffffffffffffffffffffffff1681526020019060010190808311611c16575b50505050509050600080600090505b8251811015611d78576037600087815260200190815260200160002060008681526020019081526020016000208181548110611ca757fe5b9060005260206000200160009054906101000a900473ffffffffffffffffffffffffffffffffffffffff1691504260366000888152602001908152602001600020600087815260200190815260200160002060008473ffffffffffffffffffffffffffffffffffffffff1673ffffffffffffffffffffffffffffffffffffffff1681526020019081526020016000205411611d6b57828181518110611d4857fe5b60200260200101600073ffffffffffffffffffffffffffffffffffffffff168152505b8080600101915050611c6f565b50819250505092915050565b60386020528060005260406000206000915090505481565b6000806000905060008090505b603c80549050811015611e3757603c8181548110611dc357fe5b9060005260206000200160009054906101000a900473ffffffffffffffffffffffffffffffffffffffff1673ffffffffffffffffffffffffffffffffffffffff163373ffffffffffffffffffffffffffffffffffffffff161415611e2a5760019150611e37565b8080600101915050611da9565b5080611e4257600080fd5b60008888603860008a73ffffffffffffffffffffffffffffffffffffffff1673ffffffffffffffffffffffffffffffffffffffff168152602001908152602001600020546040516020018084815260200183815260200182815260200193505050506040516020818303038152906040528051906020012090506000611ecb8289898989611a82565b90506000603660008c815260200190815260200160002060008b815260200190815260200160002060008373ffffffffffffffffffffffffffffffffffffffff1673ffffffffffffffffffffffffffffffffffffffff168152602001908152602001600020549050603560008c815260200190815260200160002060009054906101000a900473ffffffffffffffffffffffffffffffffffffffff1673ffffffffffffffffffffffffffffffffffffffff168273ffffffffffffffffffffffffffffffffffffffff161415611fb757611fb0620f42404261382390919063ffffffff16565b905061202f565b600081141561202e576040517f08c379a000000000000000000000000000000000000000000000000000000000815260040180806020018281038252600d8152602001807f56616c696469747920697320300000000000000000000000000000000000000081525060200191505060405180910390fd5b5b603860008373ffffffffffffffffffffffffffffffffffffffff1673ffffffffffffffffffffffffffffffffffffffff168152602001908152602001600020600081548092919060010191905055508a8273ffffffffffffffffffffffffffffffffffffffff167f04ae3dbe53f49b64aa789955e7a9afcf971bb3210b68808773f4efe0aa8ad3be838d604051808381526020018281526020019250505060405180910390a3809450505050509695505050505050565b603360009054906101000a900473ffffffffffffffffffffffffffffffffffffffff1681565b600080905060008090505b603c805490508110156121a557603c818154811061213157fe5b9060005260206000200160009054906101000a900473ffffffffffffffffffffffffffffffffffffffff1673ffffffffffffffffffffffffffffffffffffffff163373ffffffffffffffffffffffffffffffffffffffff16141561219857600191506121a5565b8080600101915050612117565b50806121b057600080fd5b600073ffffffffffffffffffffffffffffffffffffffff16603560008b815260200190815260200160002060009054906101000a900473ffffffffffffffffffffffffffffffffffffffff1673ffffffffffffffffffffffffffffffffffffffff1614612268576040517f08c379a0000000000000000000000000000000000000000000000000000000008152600401808060200182810382526021815260200180613c086021913960400191505060405180910390fd5b603c805490508811156122c6576040517f08c379a000000000000000000000000000000000000000000000000000000000815260040180806020018281038252602b815260200180613bdd602b913960400191505060405180910390fd5b86881161233b576040517f08c379a00000000000000000000000000000000000000000000000000000000081526004018080602001828103825260038152602001807f6e3e6b000000000000000000000000000000000000000000000000000000000081525060200191505060405180910390fd5b600187116123b1576040517f08c379a00000000000000000000000000000000000000000000000000000000081526004018080602001828103825260118152602001807f6b2073686f756c64206e6f74206265203000000000000000000000000000000081525060200191505060405180910390fd5b6000861415612428576040517f08c379a000000000000000000000000000000000000000000000000000000000815260040180806020018281038252600f8152602001807f53686f756c64206e6f742062652030000000000000000000000000000000000081525060200191505060405180910390fd5b600089898989603860008b73ffffffffffffffffffffffffffffffffffffffff1673ffffffffffffffffffffffffffffffffffffffff16815260200190815260200160002054604051602001808681526020018581526020018481526020018381526020018281526020019550505050505060405160208183030381529060405280519060200120905060006124c18288888888611a82565b905080603560008d815260200190815260200160002060006101000a81548173ffffffffffffffffffffffffffffffffffffffff021916908373ffffffffffffffffffffffffffffffffffffffff1602179055506040518060a001604052808b81526020018a81526020018981526020013373ffffffffffffffffffffffffffffffffffffffff16815260200160405180602001604052806000815250815250603960008d815260200190815260200160002060008201518160000155602082015181600101556040820151816002015560608201518160030160006101000a81548173ffffffffffffffffffffffffffffffffffffffff021916908373ffffffffffffffffffffffffffffffffffffffff16021790555060808201518160040190805190602001906125f592919061396f565b50905050603860008273ffffffffffffffffffffffffffffffffffffffff1673ffffffffffffffffffffffffffffffffffffffff168152602001908152602001600020600081548092919060010191905055505050505050505050505050565b60396020528060005260406000206000915090508060000154908060010154908060020154908060030160009054906101000a900473ffffffffffffffffffffffffffffffffffffffff1690806004018054600181600116156101000203166002900480601f0160208091040260200160405190810160405280929190818152602001828054600181600116156101000203166002900480156127395780601f1061270e57610100808354040283529160200191612739565b820191906000526020600020905b81548152906001019060200180831161271c57829003601f168201915b5050505050905085565b603360009054906101000a900473ffffffffffffffffffffffffffffffffffffffff1673ffffffffffffffffffffffffffffffffffffffff163373ffffffffffffffffffffffffffffffffffffffff161461279d57600080fd5b603c8190806001815401808255809150509060018203906000526020600020016000909192909190916101000a81548173ffffffffffffffffffffffffffffffffffffffff021916908373ffffffffffffffffffffffffffffffffffffffff1602179055505050565b600060019054906101000a900460ff16806128255750612824613910565b5b8061283c57506000809054906101000a900460ff16155b612891576040517f08c379a000000000000000000000000000000000000000000000000000000000815260040180806020018281038252602e815260200180613baf602e913960400191505060405180910390fd5b60008060019054906101000a900460ff1615905080156128e1576001600060016101000a81548160ff02191690831515021790555060016000806101000a81548160ff0219169083151502179055505b33603360006101000a81548173ffffffffffffffffffffffffffffffffffffffff021916908373ffffffffffffffffffffffffffffffffffffffff16021790555081603c90805190602001906129389291906139ef565b50801561295a5760008060016101000a81548160ff0219169083151502179055505b5050565b603360009054906101000a900473ffffffffffffffffffffffffffffffffffffffff1673ffffffffffffffffffffffffffffffffffffffff163373ffffffffffffffffffffffffffffffffffffffff16146129b857600080fd5b603c60006129c69190613a79565b565b600080905060008090505b603c80549050811015612a6157603c81815481106129ed57fe5b9060005260206000200160009054906101000a900473ffffffffffffffffffffffffffffffffffffffff1673ffffffffffffffffffffffffffffffffffffffff163373ffffffffffffffffffffffffffffffffffffffff161415612a545760019150612a61565b80806001019150506129d3565b5080612a6c57600080fd5b600089898989603860008b73ffffffffffffffffffffffffffffffffffffffff1673ffffffffffffffffffffffffffffffffffffffff16815260200190815260200160002054604051602001808060200180602001806020018060200186815260200185810385528a818151815260200191508051906020019060200280838360005b83811015612b0a578082015181840152602081019050612aef565b50505050905001858103845289818151815260200191508051906020019060200280838360005b83811015612b4c578082015181840152602081019050612b31565b50505050905001858103835288818151815260200191508051906020019060200280838360005b83811015612b8e578082015181840152602081019050612b73565b50505050905001858103825287818151815260200191508051906020019060200280838360005b83811015612bd0578082015181840152602081019050612bb5565b5050505090500199505050505050505050506040516020818303038152906040528051906020012090506000612c098288888888611a82565b905060008090505b8b518110156130fe5760008090505b8b518110156130f057603560008e8481518110612c3957fe5b6020026020010151815260200190815260200160002060009054906101000a900473ffffffffffffffffffffffffffffffffffffffff1673ffffffffffffffffffffffffffffffffffffffff168373ffffffffffffffffffffffffffffffffffffffff1614612ca757600080fd5b60008a8281518110612cb557fe5b60200260200101511415612d31576040517f08c379a00000000000000000000000000000000000000000000000000000000081526004018080602001828103825260198152602001807f56616c6964697479206d757374206265206e6f6e207a65726f0000000000000081525060200191505060405180910390fd5b612d578a8281518110612d4057fe5b60200260200101514261382390919063ffffffff16565b603660008f8581518110612d6757fe5b6020026020010151815260200190815260200160002060008d8481518110612d8b57fe5b6020026020010151815260200190815260200160002060008e8481518110612daf57fe5b602002602001015173ffffffffffffffffffffffffffffffffffffffff1673ffffffffffffffffffffffffffffffffffffffff16815260200190815260200160002081905550603760008e8481518110612e0557fe5b6020026020010151815260200190815260200160002060008c8381518110612e2957fe5b602002602001015181526020019081526020016000208c8281518110612e4b57fe5b602002602001015190806001815401808255809150509060018203906000526020600020016000909192909190916101000a81548173ffffffffffffffffffffffffffffffffffffffff021916908373ffffffffffffffffffffffffffffffffffffffff160217905550508b8181518110612ec257fe5b602002602001015173ffffffffffffffffffffffffffffffffffffffff168d8381518110612eec57fe5b60200260200101518473ffffffffffffffffffffffffffffffffffffffff167ffd417397adfcc8ca5b3f07719bf7c028a2e3b1748ac83e90888dfe7558f96f6c8e8581518110612f3857fe5b60200260200101518e8681518110612f4c57fe5b6020026020010151603860008a73ffffffffffffffffffffffffffffffffffffffff1673ffffffffffffffffffffffffffffffffffffffff1681526020019081526020016000205460405180848152602001838152602001828152602001935050505060405180910390a4603a60008e8481518110612fc757fe5b6020026020010151815260200190815260200160002060010160008c8381518110612fee57fe5b6020026020010151815260200190815260200160002060009054906101000a900460ff166130e357603a60008e848151811061302657fe5b602002602001015181526020019081526020016000206000018b828151811061304b57fe5b602002602001015190806001815401808255809150509060018203906000526020600020016000909192909190915055506001603a60008f858151811061308e57fe5b6020026020010151815260200190815260200160002060010160008d84815181106130b557fe5b6020026020010151815260200190815260200160002060006101000a81548160ff0219169083151502179055505b8080600101915050612c20565b508080600101915050612c11565b50603860008273ffffffffffffffffffffffffffffffffffffffff1673ffffffffffffffffffffffffffffffffffffffff168152602001908152602001600020600081548092919060010191905055505050505050505050505050565b6037602052826000526040600020602052816000526040600020818154811061318057fe5b90600052602060002001600092509250509054906101000a900473ffffffffffffffffffffffffffffffffffffffff1681565b6000806000905060008090505b603c8054905081101561324e57603c81815481106131da57fe5b9060005260206000200160009054906101000a900473ffffffffffffffffffffffffffffffffffffffff1673ffffffffffffffffffffffffffffffffffffffff163373ffffffffffffffffffffffffffffffffffffffff161415613241576001915061324e565b80806001019150506131c0565b508061325957600080fd5b60006039600086815260200190815260200160002090508060030160009054906101000a900473ffffffffffffffffffffffffffffffffffffffff1673ffffffffffffffffffffffffffffffffffffffff163373ffffffffffffffffffffffffffffffffffffffff1614613318576040517f08c379a000000000000000000000000000000000000000000000000000000000815260040180806020018281038252602c815260200180613b83602c913960400191505060405180910390fd5b83816004019080519060200190613330929190613a9a565b50836040518082805190602001908083835b602083106133655780518252602082019150602081019050602083039250613342565b6001836020036101000a0380198251168184511680821785525050505050509050019150506040518091039020856035600088815260200190815260200160002060009054906101000a900473ffffffffffffffffffffffffffffffffffffffff1673ffffffffffffffffffffffffffffffffffffffff167f3e73b9dec7331900012d58d71143bfd49168fb6d969fbd6c797e1b736a24dd0684600001548560010154866002015460405180848152602001838152602001828152602001935050505060405180910390a460019250505092915050565b600060606037600085815260200190815260200160002060008481526020019081526020016000208054806020026020016040519081016040528092919081815260200182805480156134e457602002820191906000526020600020905b8160009054906101000a900473ffffffffffffffffffffffffffffffffffffffff1673ffffffffffffffffffffffffffffffffffffffff168152602001906001019080831161349a575b505050505090506000806000905060008090505b835181101561362357603760008881526020019081526020016000206000878152602001908152602001600020818154811061353057fe5b9060005260206000200160009054906101000a900473ffffffffffffffffffffffffffffffffffffffff169250600073ffffffffffffffffffffffffffffffffffffffff168373ffffffffffffffffffffffffffffffffffffffff16141580156135fa57504260366000898152602001908152602001600020600088815260200190815260200160002060008573ffffffffffffffffffffffffffffffffffffffff1673ffffffffffffffffffffffffffffffffffffffff16815260200190815260200160002054115b156136165761361360018361382390919063ffffffff16565b91505b80806001019150506134f8565b5080935050505092915050565b60356020528060005260406000206000915054906101000a900473ffffffffffffffffffffffffffffffffffffffff1681565b600082846035600083815260200190815260200160002060009054906101000a900473ffffffffffffffffffffffffffffffffffffffff1673ffffffffffffffffffffffffffffffffffffffff168173ffffffffffffffffffffffffffffffffffffffff16146136d257600080fd5b600073ffffffffffffffffffffffffffffffffffffffff168473ffffffffffffffffffffffffffffffffffffffff161415613775576040517f08c379a000000000000000000000000000000000000000000000000000000000815260040180806020018281038252600f8152602001807f496e76616c69642061646472657373000000000000000000000000000000000081525060200191505060405180910390fd5b836035600087815260200190815260200160002060006101000a81548173ffffffffffffffffffffffffffffffffffffffff021916908373ffffffffffffffffffffffffffffffffffffffff160217905550603860008773ffffffffffffffffffffffffffffffffffffffff1673ffffffffffffffffffffffffffffffffffffffff168152602001908152602001600020600081548092919060010191905055506001925050509392505050565b6000808284019050838110156138a1576040517f08c379a000000000000000000000000000000000000000000000000000000000815260040180806020018281038252601b8152602001807f536166654d6174683a206164646974696f6e206f766572666c6f77000000000081525060200191505060405180910390fd5b8091505092915050565b600080600090505b8273ffffffffffffffffffffffffffffffffffffffff168482815181106138d657fe5b602002602001015173ffffffffffffffffffffffffffffffffffffffff16146139065780806001019150506138b3565b8091505092915050565b6000803090506000813b9050600081149250505090565b50805460018160011615610100020316600290046000825580601f1061394d575061396c565b601f01602090049060005260206000209081019061396b9190613b1a565b5b50565b828054600181600116156101000203166002900490600052602060002090601f016020900481019282601f106139b057805160ff19168380011785556139de565b828001600101855582156139de579182015b828111156139dd5782518255916020019190600101906139c2565b5b5090506139eb9190613b1a565b5090565b828054828255906000526020600020908101928215613a68579160200282015b82811115613a675782518260006101000a81548173ffffffffffffffffffffffffffffffffffffffff021916908373ffffffffffffffffffffffffffffffffffffffff16021790555091602001919060010190613a0f565b5b509050613a759190613b3f565b5090565b5080546000825590600052602060002090810190613a979190613b1a565b50565b828054600181600116156101000203166002900490600052602060002090601f016020900481019282601f10613adb57805160ff1916838001178555613b09565b82800160010185558215613b09579182015b82811115613b08578251825591602001919060010190613aed565b5b509050613b169190613b1a565b5090565b613b3c91905b80821115613b38576000816000905550600101613b20565b5090565b90565b613b7f91905b80821115613b7b57600081816101000a81549073ffffffffffffffffffffffffffffffffffffffff021916905550600101613b45565b5090565b9056fe46756e6374696f6e2063616e206f6e6c792062652063616c6c65642062792068616e646c696e67206e6f6465436f6e747261637420696e7374616e63652068617320616c7265616479206265656e20696e697469616c697a65644e2073686f756c64206265206c657373207468656e206e756d626572206f6620746f74616c206e6f6465734f776e657220616c726561647920657869737420666f7220746869732066696c65a265627a7a72315820f2675e266ce9832a4a9dd79a56e19e205f5151ccbbba62e4637cb0a8b686f86164736f6c63430005100032",
  "source": "pragma solidity ^0.5;\n\nimport './SafeMath.sol';\nimport './Initializable.sol';\n\ncontract Skizzle is Initializable {\n    address public owner;\n    using SafeMath for uint;\n    bytes32 public log;\n\n    // keccak256(storage index) => bytes32 newfang-specific-idbytes\n    mapping(bytes32 => address) public owners; // file owners\n    // file id => access type => user => validity\n    mapping(bytes32 => mapping(bytes32 => mapping(address => uint256))) public accessSpecifier;\n    // It is used to get all users of a particular type with particular access\n    mapping(bytes32 => mapping(bytes32 => address[])) public userAccess;\n    mapping(address => uint) public nonce;\n    mapping(bytes32 => File) public files;\n    mapping(bytes32 => Access) accessTypes;\n    mapping(address => Usage[]) usages;\n    address[] public nodes;\n\n    // similar to sets\n    struct Access {\n        bytes32[] types;\n        mapping(bytes32 => bool) is_in;\n    }\n\n    struct File {\n        uint256 n;\n        uint256 k;\n        uint256 file_size;\n        address handling_node;\n        bytes ueb;\n    }\n\n    struct Usage {\n        uint256 total_bytes;\n        bytes32 usage_type; // 0 => upload; 1 => download\n        bytes32 file;\n    }\n\n    modifier onlyFileOwner(bytes32 _file, address _identity) {\n        require(_identity == owners[_file]);\n        _;\n    }\n\n    modifier onlyOwner(){\n        require(msg.sender == owner);\n        _;\n    }\n\n    modifier onlyNode(){\n        bool flag = false;\n        for (uint256 i = 0; i < nodes.length; i++) {\n            if (msg.sender == nodes[i]) {\n                flag = true;\n                break;\n            }\n        }\n        require(flag);\n        _;\n    }\n\n\n    function initialize(address[] memory _nodes) public initializer {\n        owner = msg.sender;\n        nodes = _nodes;\n    }\n\n    function total_nodes() view public returns(uint256){\n        return nodes.length;\n    }\n\n    function addNode(address _node) public onlyOwner {\n        nodes.push(_node);\n    }\n\n    function deleteNode() public onlyOwner {\n        delete nodes;\n    }\n\n    function getSigner(bytes32 payloadHash, address signer, uint8 v, bytes32 r, bytes32 s) public pure returns (address){\n        bytes32 messageHash = keccak256(abi.encodePacked(\"\\x19Ethereum Signed Message:\\n32\", payloadHash));\n        address actualSigner = ecrecover(messageHash, v, r, s);\n        require(signer == actualSigner);\n        return actualSigner;\n    }\n\n\n    function createDIDSigned(bytes32 _file, uint256 n, uint256 k, uint256 _file_size, address signer, uint8 v, bytes32 r, bytes32 s) public onlyNode {\n        require(owners[_file] == address(0), \"Owner already exist for this file\");\n        require(n <= nodes.length, \"N should be less then number of total nodes\");\n        require(n > k, \"n>k\");\n        require(k > 1, \"k should not be 0\");\n        require(_file_size != 0, \"Should not be 0\");\n        bytes32 payloadHash = keccak256(abi.encode(_file, n, k, _file_size,nonce[signer]));\n        address _identity = getSigner(payloadHash, signer, v, r, s);\n        owners[_file] = _identity;\n        files[_file] = File(n, k, _file_size, msg.sender, \"\");\n        nonce[_identity]++;\n    }\n\n    event deleteFileEvent(\n        address indexed identity,\n        bytes32 indexed file\n    );\n\n\n    function deleteFileSigned(bytes32 _id, address signer, uint8 v, bytes32 r, bytes32 s) public onlyNode {\n        bytes32 payloadHash = keccak256(abi.encode(_id, nonce[signer]));\n        address _identity = getSigner(payloadHash, signer, v, r, s);\n        require(owners[_id] == _identity, \"Owner does not match\");\n\n        // Remove access of all the users\n        address[] memory users;\n        address user;\n        for (uint at = 0; at < accessTypes[_id].types.length; at++) {\n            users = userAccess[_id][accessTypes[_id].types[at]];\n            for (uint i = 0; i < users.length; i++) {\n                user = userAccess[_id][accessTypes[_id].types[at]][i];\n                delete accessSpecifier[_id][accessTypes[_id].types[at]][user];\n                delete userAccess[_id][accessTypes[_id].types[at]][i];\n            }\n        }\n        // end remove access of all users\n\n        // Remove file\n        delete files[_id];\n\n        // Remove file owner\n        delete owners[_id];\n\n        nonce[_identity]++;\n        emit deleteFileEvent(_identity, _id);\n    }\n\n\n    function getTotalUsers(bytes32 _file, bytes32 _access_type) public view returns (uint256){\n        address[] memory users = userAccess[_file][_access_type];\n        address user;\n        uint256 count = 0;\n        for (uint i = 0; i < users.length; i++) {\n            user = userAccess[_file][_access_type][i];\n            if (user != address(0) && accessSpecifier[_file][_access_type][user] > now) {\n                count = count.add(1);\n            }\n        }\n        return count;\n    }\n\n    function getAllUsers(bytes32 _file, bytes32 _access_type) public view returns (address[] memory){\n        address[] memory users = userAccess[_file][_access_type];\n        address user;\n        for (uint i = 0; i < users.length; i++) {\n            user = userAccess[_file][_access_type][i];\n            if (accessSpecifier[_file][_access_type][user] <= now) {\n                delete users[i];\n            }\n        }\n        return users;\n    }\n\n\n    event NewShare(\n        address indexed identity,\n        bytes32 indexed file,\n        address indexed user,\n        bytes32 access_type,\n        uint256 validity,\n        uint256 nonce\n    );\n\n    /**\n    * @dev key is encrypted with users public key and stored on a server hash of encrypted key is stored here in smart\n     contract along with its validity\n    * @return bool\n    */\n    function shareSigned(bytes32[] memory _files, address[] memory _user, bytes32[] memory _access_type, uint256[] memory _validity, address signer, uint8 v, bytes32 r, bytes32 s) onlyNode public {\n        bytes32 payloadHash = keccak256(abi.encode(_files, _user, _access_type, _validity, nonce[signer]));\n        address _identity = getSigner(payloadHash, signer, v, r, s);\n        for (uint j = 0; j < _files.length; j++) {\n            for (uint i = 0; i < _user.length; i++) {\n                require(_identity == owners[_files[j]]);\n                require(_validity[i] != 0, \"Validity must be non zero\");\n                accessSpecifier[_files[j]][_access_type[i]][_user[i]] = now.add(_validity[i]);\n                userAccess[_files[j]][_access_type[i]].push(_user[i]);\n                emit NewShare(_identity, _files[j], _user[i], _access_type[i], _validity[i], nonce[_identity]);\n\n                // Keep track of access types defined for a particular file\n                if (!accessTypes[_files[j]].is_in[_access_type[i]]) {\n                    accessTypes[_files[j]].types.push(_access_type[i]);\n                    accessTypes[_files[j]].is_in[_access_type[i]] = true;\n                }\n\n            }\n        }\n        nonce[_identity]++;\n    }\n\n    event NewFileUpdate(\n        address indexed identity,\n        bytes32 indexed file,\n        uint256 n,\n        uint256 k,\n        uint256 file_size,\n        bytes indexed ueb\n    );\n\n    function fileUpdate(bytes32 _file, bytes memory ueb) public onlyNode returns (bool){\n        File storage file = files[_file];\n        require(msg.sender == file.handling_node, \"Function can only be called by handling node\");\n        file.ueb = ueb;\n        emit NewFileUpdate(owners[_file], _file, file.n, file.k, file.file_size, ueb);\n        return true;\n    }\n\n    event NewDownload(\n        address indexed identity,\n        bytes32 indexed file,\n        uint256 validity,\n        bytes32 access_type\n    );\n\n\n    function downloadSigned(bytes32 _file, bytes32 _access_type, address signer, uint8 v, bytes32 r, bytes32 s) onlyNode public returns (uint256) {\n        bytes32 payloadHash = keccak256(abi.encode(_file, _access_type, nonce[signer]));\n        address _identity = getSigner(payloadHash, signer, v, r, s);\n        uint256 validity = accessSpecifier[_file][_access_type][_identity];\n        if (_identity == owners[_file]) {\n            validity = now.add(1000000);\n        } else {\n            require(validity != uint256(0), \"Validity is 0\");\n        }\n        nonce[_identity]++;\n        emit NewDownload(_identity, _file, validity, _access_type);\n        return validity;\n    }\n\n\n    function IndexOf(address[] memory values, address value) internal pure returns (uint) {\n        uint i = 0;\n        while (values[i] != value) {\n            i++;\n        }\n        return i;\n    }\n\n    event NewUpdateACK(\n        address indexed identity,\n        bytes32 indexed file,\n        address indexed user,\n        bytes32 access_type,\n        uint256 validity\n    );\n\n\n    /**\n    * @dev Update ACK(Access Control Key) validity, it can not be used to change access_type, to change you have to share the\n    file again with desired access type and you may remove the previous access type\n    * @return bool\n    */\n    function updateACKSigned(bytes32 _file, address _user, bytes32 _access_type, uint256 _validity, address signer, uint8 v, bytes32 r, bytes32 s) onlyNode public {\n        bytes32 payloadHash = keccak256(abi.encode(_file, _user, _access_type, _validity, nonce[signer]));\n        address _identity = getSigner(payloadHash, signer, v, r, s);\n        accessSpecifier[_file][_access_type][_user] = now.add(_validity);\n        if (_validity == 0) {\n            delete accessSpecifier[_file][_access_type][_user];\n            uint index = IndexOf(userAccess[_file][_access_type], _user);\n            delete userAccess[_file][_access_type][index];\n        }\n        if (!accessTypes[_file].is_in[_access_type]) {// check if access type is already declared\n            accessTypes[_file].types.push(_access_type);\n            // push the new access type\n            accessTypes[_file].is_in[_access_type] = true;\n        }\n        nonce[_identity]++;\n        emit NewUpdateACK(_identity, _file, _user, _access_type, _validity);\n    }\n\n\n\n    /**\n    * @dev Change file Owner\n    * @return bool\n    */\n    function changeFileOwner(address _identity, bytes32 _file, address _new_owner) internal onlyFileOwner(_file, _identity) returns (bool){\n        require(_new_owner != address(0), \"Invalid address\");\n        owners[_file] = _new_owner;\n        nonce[_identity]++;\n        return true;\n    }\n\n    function changeOwnerSigned(bytes32 _file, address _new_owner, address signer, uint8 v, bytes32 r, bytes32 s) onlyNode public returns (bool) {\n        bytes32 payloadHash = keccak256(abi.encode(_file, _new_owner, nonce[signer]));\n        address actualSigner = getSigner(payloadHash, signer, v, r, s);\n        return changeFileOwner(actualSigner, _file, _new_owner);\n    }\n\n}\n",
  "sourcePath": "/home/saurav/projects/skizzle_smart_contracts/contracts/Skizzle.sol",
  "compiler": {
    "name": "solc",
    "version": "0.5.16+commit.9c3226ce.Emscripten.clang"
  },
  "schemaVersion": "3.1.0",
  "updatedAt": "2020-06-20T11:28:55.368Z",
  "devdoc": {
    "methods": {
      "shareSigned(bytes32[],address[],bytes32[],uint256[],address,uint8,bytes32,bytes32)": {
        "details": "key is encrypted with users public key and stored on a server hash of encrypted key is stored here in smart contract along with its validity",
        "return": "bool"
      },
      "updateACKSigned(bytes32,address,bytes32,uint256,address,uint8,bytes32,bytes32)": {
        "details": "Update ACK(Access Control Key) validity, it can not be used to change access_type, to change you have to share the file again with desired access type and you may remove the previous access type",
        "return": "bool"
      }
    }
  },
  "userdoc": {
    "methods": {}
  }
}