{
  "contractName": "Skizzle",
  "abi": [
    {
      "anonymous": false,
      "inputs": [
        {
          "indexed": false,
          "internalType": "address",
          "name": "identity",
          "type": "address"
        },
        {
          "indexed": false,
          "internalType": "bytes32",
          "name": "file",
          "type": "bytes32"
        },
        {
          "indexed": false,
          "internalType": "bytes32",
          "name": "doc",
          "type": "bytes32"
        }
      ],
      "name": "create",
      "type": "event"
    },
    {
      "anonymous": false,
      "inputs": [
        {
          "indexed": false,
          "internalType": "address",
          "name": "identity",
          "type": "address"
        },
        {
          "indexed": false,
          "internalType": "bytes32",
          "name": "file",
          "type": "bytes32"
        }
      ],
      "name": "deleteDID",
      "type": "event"
    },
    {
      "anonymous": false,
      "inputs": [
        {
          "indexed": false,
          "internalType": "address",
          "name": "identity",
          "type": "address"
        },
        {
          "indexed": false,
          "internalType": "bytes32",
          "name": "file",
          "type": "bytes32"
        }
      ],
      "name": "read",
      "type": "event"
    },
    {
      "anonymous": false,
      "inputs": [
        {
          "indexed": false,
          "internalType": "address",
          "name": "identity",
          "type": "address"
        },
        {
          "indexed": false,
          "internalType": "bytes32",
          "name": "file",
          "type": "bytes32"
        },
        {
          "indexed": false,
          "internalType": "bytes32",
          "name": "doc",
          "type": "bytes32"
        }
      ],
      "name": "update",
      "type": "event"
    },
    {
      "constant": true,
      "inputs": [
        {
          "internalType": "bytes32",
          "name": "",
          "type": "bytes32"
        }
      ],
      "name": "docs",
      "outputs": [
        {
          "internalType": "address",
          "name": "owner",
          "type": "address"
        },
        {
          "internalType": "bytes32",
          "name": "ueb",
          "type": "bytes32"
        },
        {
          "internalType": "bytes32",
          "name": "doc",
          "type": "bytes32"
        }
      ],
      "payable": false,
      "stateMutability": "view",
      "type": "function"
    },
    {
      "constant": true,
      "inputs": [
        {
          "internalType": "address",
          "name": "",
          "type": "address"
        }
      ],
      "name": "isNode",
      "outputs": [
        {
          "internalType": "bool",
          "name": "",
          "type": "bool"
        }
      ],
      "payable": false,
      "stateMutability": "view",
      "type": "function"
    },
    {
      "constant": true,
      "inputs": [
        {
          "internalType": "address",
          "name": "",
          "type": "address"
        }
      ],
      "name": "nonce",
      "outputs": [
        {
          "internalType": "uint256",
          "name": "",
          "type": "uint256"
        }
      ],
      "payable": false,
      "stateMutability": "view",
      "type": "function"
    },
    {
      "constant": true,
      "inputs": [],
      "name": "owner",
      "outputs": [
        {
          "internalType": "address",
          "name": "",
          "type": "address"
        }
      ],
      "payable": false,
      "stateMutability": "view",
      "type": "function"
    },
    {
      "constant": false,
      "inputs": [
        {
          "internalType": "address[]",
          "name": "_nodes",
          "type": "address[]"
        }
      ],
      "name": "initialize",
      "outputs": [],
      "payable": false,
      "stateMutability": "nonpayable",
      "type": "function"
    },
    {
      "constant": false,
      "inputs": [
        {
          "internalType": "address",
          "name": "_node",
          "type": "address"
        }
      ],
      "name": "addNode",
      "outputs": [],
      "payable": false,
      "stateMutability": "nonpayable",
      "type": "function"
    },
    {
      "constant": false,
      "inputs": [
        {
          "internalType": "address",
          "name": "_node",
          "type": "address"
        }
      ],
      "name": "deleteNode",
      "outputs": [],
      "payable": false,
      "stateMutability": "nonpayable",
      "type": "function"
    },
    {
      "constant": true,
      "inputs": [
        {
          "internalType": "bytes32",
          "name": "payloadHash",
          "type": "bytes32"
        },
        {
          "internalType": "address",
          "name": "signer",
          "type": "address"
        },
        {
          "internalType": "uint8",
          "name": "v",
          "type": "uint8"
        },
        {
          "internalType": "bytes32",
          "name": "r",
          "type": "bytes32"
        },
        {
          "internalType": "bytes32",
          "name": "s",
          "type": "bytes32"
        }
      ],
      "name": "getSigner",
      "outputs": [
        {
          "internalType": "address",
          "name": "",
          "type": "address"
        }
      ],
      "payable": false,
      "stateMutability": "pure",
      "type": "function"
    },
    {
      "constant": false,
      "inputs": [
        {
          "internalType": "bytes32",
          "name": "_file",
          "type": "bytes32"
        },
        {
          "internalType": "bytes32",
          "name": "_doc",
          "type": "bytes32"
        },
        {
          "internalType": "bytes32",
          "name": "_ueb",
          "type": "bytes32"
        },
        {
          "internalType": "address",
          "name": "signer",
          "type": "address"
        },
        {
          "internalType": "uint8",
          "name": "v",
          "type": "uint8"
        },
        {
          "internalType": "bytes32",
          "name": "r",
          "type": "bytes32"
        },
        {
          "internalType": "bytes32",
          "name": "s",
          "type": "bytes32"
        }
      ],
      "name": "createSigned",
      "outputs": [],
      "payable": false,
      "stateMutability": "nonpayable",
      "type": "function"
    },
    {
      "constant": false,
      "inputs": [
        {
          "internalType": "bytes32",
          "name": "_file",
          "type": "bytes32"
        },
        {
          "internalType": "address",
          "name": "signer",
          "type": "address"
        },
        {
          "internalType": "uint8",
          "name": "v",
          "type": "uint8"
        },
        {
          "internalType": "bytes32",
          "name": "r",
          "type": "bytes32"
        },
        {
          "internalType": "bytes32",
          "name": "s",
          "type": "bytes32"
        }
      ],
      "name": "readSigned",
      "outputs": [],
      "payable": false,
      "stateMutability": "nonpayable",
      "type": "function"
    },
    {
      "constant": false,
      "inputs": [
        {
          "internalType": "bytes32",
          "name": "_file",
          "type": "bytes32"
        },
        {
          "internalType": "bytes32",
          "name": "_doc",
          "type": "bytes32"
        },
        {
          "internalType": "address",
          "name": "signer",
          "type": "address"
        },
        {
          "internalType": "uint8",
          "name": "v",
          "type": "uint8"
        },
        {
          "internalType": "bytes32",
          "name": "r",
          "type": "bytes32"
        },
        {
          "internalType": "bytes32",
          "name": "s",
          "type": "bytes32"
        }
      ],
      "name": "updateSigned",
      "outputs": [],
      "payable": false,
      "stateMutability": "nonpayable",
      "type": "function"
    },
    {
      "constant": false,
      "inputs": [
        {
          "internalType": "bytes32",
          "name": "_file",
          "type": "bytes32"
        },
        {
          "internalType": "address",
          "name": "signer",
          "type": "address"
        },
        {
          "internalType": "uint8",
          "name": "v",
          "type": "uint8"
        },
        {
          "internalType": "bytes32",
          "name": "r",
          "type": "bytes32"
        },
        {
          "internalType": "bytes32",
          "name": "s",
          "type": "bytes32"
        }
      ],
      "name": "deleteSigned",
      "outputs": [],
      "payable": false,
      "stateMutability": "nonpayable",
      "type": "function"
    }
  ],
  "bytecode": "0x608060405234801561001057600080fd5b5061134b806100206000396000f3fe608060405234801561001057600080fd5b50600436106100b45760003560e01c80636fca1744116100715780636fca17441461037357806370ae92d2146103ef5780638da5cb5b146104475780639d95f1cc14610491578063a224cee7146104d5578063f7e3fe7c1461058d576100b4565b806301750152146100b9578063274a4bfe1461011557806329400ba3146101845780632d4ede93146102075780633999e2321461024b5780635db27a30146102c4575b600080fd5b6100fb600480360360208110156100cf57600080fd5b81019080803573ffffffffffffffffffffffffffffffffffffffff1690602001909291905050506105fc565b604051808215151515815260200191505060405180910390f35b610182600480360360a081101561012b57600080fd5b8101908080359060200190929190803573ffffffffffffffffffffffffffffffffffffffff169060200190929190803560ff169060200190929190803590602001909291908035906020019092919050505061061c565b005b610205600480360360e081101561019a57600080fd5b81019080803590602001909291908035906020019092919080359060200190929190803573ffffffffffffffffffffffffffffffffffffffff169060200190929190803560ff169060200190929190803590602001909291908035906020019092919050505061081d565b005b6102496004803603602081101561021d57600080fd5b81019080803573ffffffffffffffffffffffffffffffffffffffff169060200190929190505050610ace565b005b6102c2600480360360c081101561026157600080fd5b810190808035906020019092919080359060200190929190803573ffffffffffffffffffffffffffffffffffffffff169060200190929190803560ff1690602001909291908035906020019092919080359060200190929190505050610b83565b005b610331600480360360a08110156102da57600080fd5b8101908080359060200190929190803573ffffffffffffffffffffffffffffffffffffffff169060200190929190803560ff1690602001909291908035906020019092919080359060200190929190505050610d63565b604051808273ffffffffffffffffffffffffffffffffffffffff1673ffffffffffffffffffffffffffffffffffffffff16815260200191505060405180910390f35b61039f6004803603602081101561038957600080fd5b8101908080359060200190929190505050610e68565b604051808473ffffffffffffffffffffffffffffffffffffffff1673ffffffffffffffffffffffffffffffffffffffff168152602001838152602001828152602001935050505060405180910390f35b6104316004803603602081101561040557600080fd5b81019080803573ffffffffffffffffffffffffffffffffffffffff169060200190929190505050610eb2565b6040518082815260200191505060405180910390f35b61044f610eca565b604051808273ffffffffffffffffffffffffffffffffffffffff1673ffffffffffffffffffffffffffffffffffffffff16815260200191505060405180910390f35b6104d3600480360360208110156104a757600080fd5b81019080803573ffffffffffffffffffffffffffffffffffffffff169060200190929190505050610ef0565b005b61058b600480360360208110156104eb57600080fd5b810190808035906020019064010000000081111561050857600080fd5b82018360208201111561051a57600080fd5b8035906020019184602083028401116401000000008311171561053c57600080fd5b919080806020026020016040519081016040528093929190818152602001838360200280828437600081840152601f19601f820116905080830192505050505050509192919290505050610fa5565b005b6105fa600480360360a08110156105a357600080fd5b8101908080359060200190929190803573ffffffffffffffffffffffffffffffffffffffff169060200190929190803560ff169060200190929190803590602001909291908035906020019092919050505061116e565b005b60356020528060005260406000206000915054906101000a900460ff1681565b84846034600083815260200190815260200160002060000160009054906101000a900473ffffffffffffffffffffffffffffffffffffffff1673ffffffffffffffffffffffffffffffffffffffff168173ffffffffffffffffffffffffffffffffffffffff161461068c57600080fd5b600087603660008973ffffffffffffffffffffffffffffffffffffffff1673ffffffffffffffffffffffffffffffffffffffff16815260200190815260200160002054604051602001808381526020018281526020019250505060405160208183030381529060405280519060200120905061070b8188888888610d63565b5060346000898152602001908152602001600020600080820160006101000a81549073ffffffffffffffffffffffffffffffffffffffff0219169055600182016000905560028201600090555050603660008873ffffffffffffffffffffffffffffffffffffffff1673ffffffffffffffffffffffffffffffffffffffff168152602001908152602001600020600081548092919060010191905055507f53da5bb6fb2488b67fc3b382a27cdd1b443b9a5260c981d63b4ab4888a0de7a08789604051808373ffffffffffffffffffffffffffffffffffffffff1673ffffffffffffffffffffffffffffffffffffffff1681526020018281526020019250505060405180910390a15050505050505050565b600073ffffffffffffffffffffffffffffffffffffffff166034600089815260200190815260200160002060000160009054906101000a900473ffffffffffffffffffffffffffffffffffffffff1673ffffffffffffffffffffffffffffffffffffffff16146108d8576040517f08c379a00000000000000000000000000000000000000000000000000000000081526004018080602001828103825260218152602001806112f66021913960400191505060405180910390fd5b60008787603660008873ffffffffffffffffffffffffffffffffffffffff1673ffffffffffffffffffffffffffffffffffffffff1681526020019081526020016000205460405160200180848152602001838152602001828152602001935050505060405160208183030381529060405280519060200120905061095f8186868686610d63565b5060405180606001604052808673ffffffffffffffffffffffffffffffffffffffff16815260200187815260200188815250603460008a815260200190815260200160002060008201518160000160006101000a81548173ffffffffffffffffffffffffffffffffffffffff021916908373ffffffffffffffffffffffffffffffffffffffff1602179055506020820151816001015560408201518160020155905050603660008673ffffffffffffffffffffffffffffffffffffffff1673ffffffffffffffffffffffffffffffffffffffff168152602001908152602001600020600081548092919060010191905055507f393e0306e1ba817094d767e4b4d3e97f047c7dd3c5436f2e28145c414a4526bf858989604051808473ffffffffffffffffffffffffffffffffffffffff1673ffffffffffffffffffffffffffffffffffffffff168152602001838152602001828152602001935050505060405180910390a15050505050505050565b603360009054906101000a900473ffffffffffffffffffffffffffffffffffffffff1673ffffffffffffffffffffffffffffffffffffffff163373ffffffffffffffffffffffffffffffffffffffff1614610b2857600080fd5b6000603560008373ffffffffffffffffffffffffffffffffffffffff1673ffffffffffffffffffffffffffffffffffffffff16815260200190815260200160002060006101000a81548160ff02191690831515021790555050565b85846034600083815260200190815260200160002060000160009054906101000a900473ffffffffffffffffffffffffffffffffffffffff1673ffffffffffffffffffffffffffffffffffffffff168173ffffffffffffffffffffffffffffffffffffffff1614610bf357600080fd5b60008888603660008a73ffffffffffffffffffffffffffffffffffffffff1673ffffffffffffffffffffffffffffffffffffffff16815260200190815260200160002054604051602001808481526020018381526020018281526020019350505050604051602081830303815290604052805190602001209050610c7a8188888888610d63565b5087603460008b815260200190815260200160002060020181905550603660008873ffffffffffffffffffffffffffffffffffffffff1673ffffffffffffffffffffffffffffffffffffffff168152602001908152602001600020600081548092919060010191905055507f64ff300490db33ebe938012595e872cf5714c2849c9ae66ef75e758e314bb0fd878a8a604051808473ffffffffffffffffffffffffffffffffffffffff1673ffffffffffffffffffffffffffffffffffffffff168152602001838152602001828152602001935050505060405180910390a1505050505050505050565b6000808660405160200180807f19457468657265756d205369676e6564204d6573736167653a0a333200000000815250601c01828152602001915050604051602081830303815290604052805190602001209050600060018287878760405160008152602001604052604051808581526020018460ff1660ff1681526020018381526020018281526020019450505050506020604051602081039080840390855afa158015610e16573d6000803e3d6000fd5b5050506020604051035190508073ffffffffffffffffffffffffffffffffffffffff168773ffffffffffffffffffffffffffffffffffffffff1614610e5a57600080fd5b809250505095945050505050565b60346020528060005260406000206000915090508060000160009054906101000a900473ffffffffffffffffffffffffffffffffffffffff16908060010154908060020154905083565b60366020528060005260406000206000915090505481565b603360009054906101000a900473ffffffffffffffffffffffffffffffffffffffff1681565b603360009054906101000a900473ffffffffffffffffffffffffffffffffffffffff1673ffffffffffffffffffffffffffffffffffffffff163373ffffffffffffffffffffffffffffffffffffffff1614610f4a57600080fd5b6001603560008373ffffffffffffffffffffffffffffffffffffffff1673ffffffffffffffffffffffffffffffffffffffff16815260200190815260200160002060006101000a81548160ff02191690831515021790555050565b600060019054906101000a900460ff1680610fc45750610fc36112b0565b5b80610fdb57506000809054906101000a900460ff16155b611030576040517f08c379a000000000000000000000000000000000000000000000000000000000815260040180806020018281038252602e8152602001806112c8602e913960400191505060405180910390fd5b60008060019054906101000a900460ff161590508015611080576001600060016101000a81548160ff02191690831515021790555060016000806101000a81548160ff0219169083151502179055505b33603360006101000a81548173ffffffffffffffffffffffffffffffffffffffff021916908373ffffffffffffffffffffffffffffffffffffffff16021790555060008090505b8251811015611148576001603560008584815181106110e257fe5b602002602001015173ffffffffffffffffffffffffffffffffffffffff1673ffffffffffffffffffffffffffffffffffffffff16815260200190815260200160002060006101000a81548160ff02191690831515021790555080806001019150506110c7565b50801561116a5760008060016101000a81548160ff0219169083151502179055505b5050565b600085603660008773ffffffffffffffffffffffffffffffffffffffff1673ffffffffffffffffffffffffffffffffffffffff1681526020019081526020016000205460405160200180838152602001828152602001925050506040516020818303038152906040528051906020012090506111ed8186868686610d63565b50603660008673ffffffffffffffffffffffffffffffffffffffff1673ffffffffffffffffffffffffffffffffffffffff168152602001908152602001600020600081548092919060010191905055507f7caed4526cefa7191f86fb4ed88927bb9fd8ce2e1147f036768e11346f4d1efb8587604051808373ffffffffffffffffffffffffffffffffffffffff1673ffffffffffffffffffffffffffffffffffffffff1681526020018281526020019250505060405180910390a1505050505050565b6000803090506000813b905060008114925050509056fe436f6e747261637420696e7374616e63652068617320616c7265616479206265656e20696e697469616c697a65644f776e657220616c726561647920657869737420666f7220746869732066696c65a265627a7a723158201cfca8008248bcecf1af7fbfd1505aa93afb2a4cbc9635d0ac76a517d80563fe64736f6c63430005100032",
  "source": "pragma solidity ^0.5;\n\nimport \"./SafeMath.sol\";\nimport \"./Initializable.sol\";\n\ncontract Skizzle is Initializable {\n    address public owner;\n    using SafeMath for uint256;\n\n    // keccak256(storage index) => bytes32 newfang-specific-idbytes\n    mapping(bytes32 => File) public docs;\n    mapping(address => bool) public isNode;\n    mapping(address => uint256) public nonce;\n\n    struct File {\n        address owner;\n        bytes32 ueb;\n        bytes32 doc;\n    }\n\n    // Modifier to check whether the functions are called by file owners.\n    modifier onlyFileOwner(bytes32 _file, address _identity) {\n        require(_identity == docs[_file].owner);\n        _;\n    }\n\n    // Modifier to check whether then functions are called only by contract owners.\n    modifier onlyOwner() {\n        require(msg.sender == owner);\n        _;\n    }\n\n    // Modifier to check whether functions are called by SNA nodes. \n    modifier onlyNode() {\n        require(isNode[msg.sender], \"Should be called by owner\");\n        _;\n    }\n\n    // Initialize is called when contract is deployed.\n    // It does 2 things:\n    // 1. Set's the contract owner \n    // 2. It adds default nodes to the contract. \n    function initialize(address[] memory _nodes) public initializer {\n        owner = msg.sender;\n        for (uint256 i = 0; i < _nodes.length; i++) {\n            isNode[_nodes[i]] = true;\n        }\n    }\n\n    function addNode(address _node) public onlyOwner {\n        isNode[_node] = true;\n    }\n\n    function deleteNode(address _node) public onlyOwner {\n        isNode[_node] = false;\n    }\n\n    function getSigner(\n        bytes32 payloadHash,\n        address signer,\n        uint8 v,\n        bytes32 r,\n        bytes32 s\n    ) public pure returns (address) {\n        bytes32 messageHash = keccak256(\n            abi.encodePacked(\"\\x19Ethereum Signed Message:\\n32\", payloadHash)\n        );\n        address actualSigner = ecrecover(messageHash, v, r, s);\n        require(signer == actualSigner);\n        return actualSigner;\n    }\n\n    event create(address identity, bytes32 file, bytes32 doc);\n    event read(address identity, bytes32 file);\n    event update(address identity, bytes32 file, bytes32 doc);\n    event deleteDID(address identity, bytes32 file);\n\n    function createSigned(\n        bytes32 _file,\n        bytes32 _doc,\n        bytes32 _ueb,\n        address signer,\n        uint8 v,\n        bytes32 r,\n        bytes32 s\n    ) public {\n        require(\n            docs[_file].owner == address(0),\n            \"Owner already exist for this file\"\n        );\n        bytes32 payloadHash = keccak256(abi.encode(_file, _doc, nonce[signer]));\n        getSigner(payloadHash, signer, v, r, s); // Just to check signature is valid or not. \n        docs[_file] = File(signer,_ueb, _doc);\n        nonce[signer]++;\n        emit create(signer, _file, _doc);\n    }\n\n    // This function does not checks wether the signer has permission to read/download the file or not. \n    // Permission should be checked offline only.\n    // User will sign a transaction and send it to SNA, SNA will verify wether user is having permission or not. \n    // If user has permission then this function will be called.\n    // This functions verifies the email and emit a read event on the file. \n    function readSigned(\n        bytes32 _file,\n        address signer,\n        uint8 v,\n        bytes32 r,\n        bytes32 s\n    ) public {\n        bytes32 payloadHash = keccak256(abi.encode(_file, nonce[signer]));\n        getSigner(payloadHash, signer, v, r, s); // Just to check signature is valid or not. \n        nonce[signer]++;\n        emit read(signer, _file);\n    }\n\n    // This function is used for share and revoke. The DID Document is updated and the merkle root is calculated again and update here.  \n    // onlyFileOwner modifier checks whether user has the permission to call the function or not. \n    // It does not checks for signature. \n    // Signature is checked in getSigner function. \n    function updateSigned(\n        bytes32 _file,\n        bytes32 _doc,\n        address signer,\n        uint8 v,\n        bytes32 r,\n        bytes32 s\n    ) onlyFileOwner(_file, signer) public { \n        bytes32 payloadHash = keccak256(abi.encode(_file, _doc, nonce[signer]));\n        getSigner(payloadHash, signer, v, r, s); // Just to check signature is valid or not. \n        docs[_file].doc = _doc;\n        nonce[signer]++;\n        emit update(signer, _file, _doc);\n    }\n\n    function deleteSigned(\n        bytes32 _file,\n        address signer,\n        uint8 v,\n        bytes32 r,\n        bytes32 s\n    ) onlyFileOwner(_file, signer) public {\n        bytes32 payloadHash = keccak256(abi.encode(_file, nonce[signer]));\n        getSigner(payloadHash, signer, v, r, s); // Just to check signature is valid or not. \n        delete docs[_file];\n        nonce[signer]++;\n        emit deleteDID(signer, _file);\n    }\n}\n",
  "sourcePath": "/home/saurav/projects/skizzle_smart_contracts/contracts/Skizzle.sol",
  "compiler": {
    "name": "solc",
    "version": "0.5.16+commit.9c3226ce.Emscripten.clang"
  },
  "schemaVersion": "3.1.0",
  "updatedAt": "2020-11-04T07:41:56.070Z",
  "devdoc": {
    "methods": {}
  },
  "userdoc": {
    "methods": {}
  }
}