{
  "contractName": "Skizzle",
  "abi": [
    {
      "anonymous": false,
      "inputs": [
        {
          "indexed": true,
          "internalType": "address",
          "name": "identity",
          "type": "address"
        },
        {
          "indexed": true,
          "internalType": "bytes32",
          "name": "file",
          "type": "bytes32"
        },
        {
          "indexed": false,
          "internalType": "uint256",
          "name": "validity",
          "type": "uint256"
        },
        {
          "indexed": false,
          "internalType": "bytes32",
          "name": "access_type",
          "type": "bytes32"
        }
      ],
      "name": "NewDownload",
      "type": "event"
    },
    {
      "anonymous": false,
      "inputs": [
        {
          "indexed": true,
          "internalType": "address",
          "name": "identity",
          "type": "address"
        },
        {
          "indexed": true,
          "internalType": "bytes32",
          "name": "file",
          "type": "bytes32"
        },
        {
          "indexed": false,
          "internalType": "uint256",
          "name": "n",
          "type": "uint256"
        },
        {
          "indexed": false,
          "internalType": "uint256",
          "name": "k",
          "type": "uint256"
        },
        {
          "indexed": false,
          "internalType": "uint256",
          "name": "file_size",
          "type": "uint256"
        },
        {
          "indexed": true,
          "internalType": "bytes",
          "name": "ueb",
          "type": "bytes"
        }
      ],
      "name": "NewFileUpdate",
      "type": "event"
    },
    {
      "anonymous": false,
      "inputs": [
        {
          "indexed": true,
          "internalType": "address",
          "name": "identity",
          "type": "address"
        },
        {
          "indexed": true,
          "internalType": "bytes32",
          "name": "file",
          "type": "bytes32"
        },
        {
          "indexed": true,
          "internalType": "address",
          "name": "user",
          "type": "address"
        },
        {
          "indexed": false,
          "internalType": "bytes32",
          "name": "access_type",
          "type": "bytes32"
        },
        {
          "indexed": false,
          "internalType": "uint256",
          "name": "validity",
          "type": "uint256"
        },
        {
          "indexed": false,
          "internalType": "uint256",
          "name": "nonce",
          "type": "uint256"
        }
      ],
      "name": "NewShare",
      "type": "event"
    },
    {
      "anonymous": false,
      "inputs": [
        {
          "indexed": true,
          "internalType": "address",
          "name": "identity",
          "type": "address"
        },
        {
          "indexed": true,
          "internalType": "bytes32",
          "name": "file",
          "type": "bytes32"
        },
        {
          "indexed": true,
          "internalType": "address",
          "name": "user",
          "type": "address"
        },
        {
          "indexed": false,
          "internalType": "bytes32",
          "name": "access_type",
          "type": "bytes32"
        }
      ],
      "name": "NewUpdateACK",
      "type": "event"
    },
    {
      "anonymous": false,
      "inputs": [
        {
          "indexed": true,
          "internalType": "address",
          "name": "identity",
          "type": "address"
        },
        {
          "indexed": true,
          "internalType": "bytes32",
          "name": "file",
          "type": "bytes32"
        }
      ],
      "name": "deleteFileEvent",
      "type": "event"
    },
    {
      "constant": true,
      "inputs": [
        {
          "internalType": "bytes32",
          "name": "",
          "type": "bytes32"
        },
        {
          "internalType": "bytes32",
          "name": "",
          "type": "bytes32"
        },
        {
          "internalType": "address",
          "name": "",
          "type": "address"
        }
      ],
      "name": "accessSpecifier",
      "outputs": [
        {
          "internalType": "uint256",
          "name": "validity",
          "type": "uint256"
        },
        {
          "internalType": "uint256",
          "name": "version",
          "type": "uint256"
        }
      ],
      "payable": false,
      "stateMutability": "view",
      "type": "function"
    },
    {
      "constant": true,
      "inputs": [
        {
          "internalType": "bytes32",
          "name": "",
          "type": "bytes32"
        }
      ],
      "name": "files",
      "outputs": [
        {
          "internalType": "uint256",
          "name": "n",
          "type": "uint256"
        },
        {
          "internalType": "uint256",
          "name": "k",
          "type": "uint256"
        },
        {
          "internalType": "uint256",
          "name": "file_size",
          "type": "uint256"
        },
        {
          "internalType": "address",
          "name": "handling_node",
          "type": "address"
        },
        {
          "internalType": "bytes",
          "name": "ueb",
          "type": "bytes"
        }
      ],
      "payable": false,
      "stateMutability": "view",
      "type": "function"
    },
    {
      "constant": true,
      "inputs": [
        {
          "internalType": "bytes32",
          "name": "",
          "type": "bytes32"
        }
      ],
      "name": "isDeleted",
      "outputs": [
        {
          "internalType": "bool",
          "name": "",
          "type": "bool"
        }
      ],
      "payable": false,
      "stateMutability": "view",
      "type": "function"
    },
    {
      "constant": true,
      "inputs": [
        {
          "internalType": "address",
          "name": "",
          "type": "address"
        }
      ],
      "name": "isNode",
      "outputs": [
        {
          "internalType": "bool",
          "name": "",
          "type": "bool"
        }
      ],
      "payable": false,
      "stateMutability": "view",
      "type": "function"
    },
    {
      "constant": true,
      "inputs": [],
      "name": "log",
      "outputs": [
        {
          "internalType": "bytes32",
          "name": "",
          "type": "bytes32"
        }
      ],
      "payable": false,
      "stateMutability": "view",
      "type": "function"
    },
    {
      "constant": true,
      "inputs": [
        {
          "internalType": "address",
          "name": "",
          "type": "address"
        },
        {
          "internalType": "uint256",
          "name": "",
          "type": "uint256"
        }
      ],
      "name": "nonce",
      "outputs": [
        {
          "internalType": "bool",
          "name": "",
          "type": "bool"
        }
      ],
      "payable": false,
      "stateMutability": "view",
      "type": "function"
    },
    {
      "constant": true,
      "inputs": [],
      "name": "owner",
      "outputs": [
        {
          "internalType": "address",
          "name": "",
          "type": "address"
        }
      ],
      "payable": false,
      "stateMutability": "view",
      "type": "function"
    },
    {
      "constant": true,
      "inputs": [
        {
          "internalType": "bytes32",
          "name": "",
          "type": "bytes32"
        }
      ],
      "name": "owners",
      "outputs": [
        {
          "internalType": "address",
          "name": "",
          "type": "address"
        }
      ],
      "payable": false,
      "stateMutability": "view",
      "type": "function"
    },
    {
      "constant": true,
      "inputs": [],
      "name": "total_nodes",
      "outputs": [
        {
          "internalType": "uint256",
          "name": "",
          "type": "uint256"
        }
      ],
      "payable": false,
      "stateMutability": "view",
      "type": "function"
    },
    {
      "constant": true,
      "inputs": [
        {
          "internalType": "bytes32",
          "name": "",
          "type": "bytes32"
        },
        {
          "internalType": "bytes32",
          "name": "",
          "type": "bytes32"
        },
        {
          "internalType": "uint256",
          "name": "",
          "type": "uint256"
        }
      ],
      "name": "userAccess",
      "outputs": [
        {
          "internalType": "address",
          "name": "",
          "type": "address"
        }
      ],
      "payable": false,
      "stateMutability": "view",
      "type": "function"
    },
    {
      "constant": true,
      "inputs": [
        {
          "internalType": "bytes32",
          "name": "",
          "type": "bytes32"
        }
      ],
      "name": "version",
      "outputs": [
        {
          "internalType": "uint256",
          "name": "",
          "type": "uint256"
        }
      ],
      "payable": false,
      "stateMutability": "view",
      "type": "function"
    },
    {
      "constant": false,
      "inputs": [
        {
          "internalType": "address[]",
          "name": "_nodes",
          "type": "address[]"
        }
      ],
      "name": "initialize",
      "outputs": [],
      "payable": false,
      "stateMutability": "nonpayable",
      "type": "function"
    },
    {
      "constant": false,
      "inputs": [
        {
          "internalType": "address",
          "name": "_node",
          "type": "address"
        }
      ],
      "name": "addNode",
      "outputs": [],
      "payable": false,
      "stateMutability": "nonpayable",
      "type": "function"
    },
    {
      "constant": false,
      "inputs": [
        {
          "internalType": "address",
          "name": "_node",
          "type": "address"
        }
      ],
      "name": "deleteNode",
      "outputs": [],
      "payable": false,
      "stateMutability": "nonpayable",
      "type": "function"
    },
    {
      "constant": true,
      "inputs": [
        {
          "internalType": "bytes32",
          "name": "payloadHash",
          "type": "bytes32"
        },
        {
          "internalType": "address",
          "name": "signer",
          "type": "address"
        },
        {
          "internalType": "uint8",
          "name": "v",
          "type": "uint8"
        },
        {
          "internalType": "bytes32",
          "name": "r",
          "type": "bytes32"
        },
        {
          "internalType": "bytes32",
          "name": "s",
          "type": "bytes32"
        }
      ],
      "name": "getSigner",
      "outputs": [
        {
          "internalType": "address",
          "name": "",
          "type": "address"
        }
      ],
      "payable": false,
      "stateMutability": "pure",
      "type": "function"
    },
    {
      "constant": false,
      "inputs": [
        {
          "internalType": "bytes32",
          "name": "_file",
          "type": "bytes32"
        },
        {
          "internalType": "uint256",
          "name": "n",
          "type": "uint256"
        },
        {
          "internalType": "uint256",
          "name": "k",
          "type": "uint256"
        },
        {
          "internalType": "uint256",
          "name": "_file_size",
          "type": "uint256"
        },
        {
          "internalType": "address",
          "name": "signer",
          "type": "address"
        },
        {
          "internalType": "uint256",
          "name": "_nonce",
          "type": "uint256"
        },
        {
          "internalType": "uint8",
          "name": "v",
          "type": "uint8"
        },
        {
          "internalType": "bytes32",
          "name": "r",
          "type": "bytes32"
        },
        {
          "internalType": "bytes32",
          "name": "s",
          "type": "bytes32"
        },
        {
          "internalType": "bytes",
          "name": "_ueb",
          "type": "bytes"
        }
      ],
      "name": "createDIDSigned",
      "outputs": [],
      "payable": false,
      "stateMutability": "nonpayable",
      "type": "function"
    },
    {
      "constant": false,
      "inputs": [
        {
          "internalType": "bytes32",
          "name": "_file",
          "type": "bytes32"
        },
        {
          "internalType": "address",
          "name": "signer",
          "type": "address"
        },
        {
          "internalType": "uint256",
          "name": "_nonce",
          "type": "uint256"
        },
        {
          "internalType": "uint8",
          "name": "v",
          "type": "uint8"
        },
        {
          "internalType": "bytes32",
          "name": "r",
          "type": "bytes32"
        },
        {
          "internalType": "bytes32",
          "name": "s",
          "type": "bytes32"
        }
      ],
      "name": "deleteFileSigned",
      "outputs": [],
      "payable": false,
      "stateMutability": "nonpayable",
      "type": "function"
    },
    {
      "constant": true,
      "inputs": [
        {
          "internalType": "bytes32",
          "name": "_file",
          "type": "bytes32"
        },
        {
          "internalType": "bytes32",
          "name": "_access_type",
          "type": "bytes32"
        }
      ],
      "name": "getAllUsers",
      "outputs": [
        {
          "internalType": "address[]",
          "name": "",
          "type": "address[]"
        }
      ],
      "payable": false,
      "stateMutability": "view",
      "type": "function"
    },
    {
      "constant": false,
      "inputs": [
        {
          "internalType": "bytes32[]",
          "name": "_file",
          "type": "bytes32[]"
        },
        {
          "internalType": "address",
          "name": "_user",
          "type": "address"
        },
        {
          "internalType": "bytes32[]",
          "name": "_access_type",
          "type": "bytes32[]"
        },
        {
          "internalType": "uint256[]",
          "name": "_validity",
          "type": "uint256[]"
        },
        {
          "internalType": "address",
          "name": "signer",
          "type": "address"
        },
        {
          "internalType": "uint256",
          "name": "_nonce",
          "type": "uint256"
        },
        {
          "internalType": "uint8",
          "name": "v",
          "type": "uint8"
        },
        {
          "internalType": "bytes32",
          "name": "r",
          "type": "bytes32"
        },
        {
          "internalType": "bytes32",
          "name": "s",
          "type": "bytes32"
        }
      ],
      "name": "shareSigned",
      "outputs": [],
      "payable": false,
      "stateMutability": "nonpayable",
      "type": "function"
    },
    {
      "constant": false,
      "inputs": [
        {
          "internalType": "bytes32",
          "name": "_file",
          "type": "bytes32"
        },
        {
          "internalType": "address[]",
          "name": "_user",
          "type": "address[]"
        },
        {
          "internalType": "bytes32[]",
          "name": "_access_type",
          "type": "bytes32[]"
        },
        {
          "internalType": "uint256[]",
          "name": "_validity",
          "type": "uint256[]"
        },
        {
          "internalType": "address",
          "name": "signer",
          "type": "address"
        },
        {
          "internalType": "uint256",
          "name": "_nonce",
          "type": "uint256"
        },
        {
          "internalType": "uint8",
          "name": "v",
          "type": "uint8"
        },
        {
          "internalType": "bytes32",
          "name": "r",
          "type": "bytes32"
        },
        {
          "internalType": "bytes32",
          "name": "s",
          "type": "bytes32"
        }
      ],
      "name": "shareSignedMultipleUsers",
      "outputs": [],
      "payable": false,
      "stateMutability": "nonpayable",
      "type": "function"
    },
    {
      "constant": false,
      "inputs": [
        {
          "internalType": "bytes32",
          "name": "_file",
          "type": "bytes32"
        },
        {
          "internalType": "bytes32",
          "name": "_access_type",
          "type": "bytes32"
        },
        {
          "internalType": "address",
          "name": "signer",
          "type": "address"
        },
        {
          "internalType": "uint256",
          "name": "_nonce",
          "type": "uint256"
        },
        {
          "internalType": "uint8",
          "name": "v",
          "type": "uint8"
        },
        {
          "internalType": "bytes32",
          "name": "r",
          "type": "bytes32"
        },
        {
          "internalType": "bytes32",
          "name": "s",
          "type": "bytes32"
        }
      ],
      "name": "downloadSigned",
      "outputs": [
        {
          "internalType": "uint256",
          "name": "",
          "type": "uint256"
        }
      ],
      "payable": false,
      "stateMutability": "nonpayable",
      "type": "function"
    },
    {
      "constant": false,
      "inputs": [
        {
          "internalType": "bytes32",
          "name": "_file",
          "type": "bytes32"
        },
        {
          "internalType": "address",
          "name": "_user",
          "type": "address"
        },
        {
          "internalType": "bytes32",
          "name": "_access_type",
          "type": "bytes32"
        },
        {
          "internalType": "address",
          "name": "signer",
          "type": "address"
        },
        {
          "internalType": "uint256",
          "name": "_nonce",
          "type": "uint256"
        },
        {
          "internalType": "uint8",
          "name": "v",
          "type": "uint8"
        },
        {
          "internalType": "bytes32",
          "name": "r",
          "type": "bytes32"
        },
        {
          "internalType": "bytes32",
          "name": "s",
          "type": "bytes32"
        }
      ],
      "name": "revokeSigned",
      "outputs": [],
      "payable": false,
      "stateMutability": "nonpayable",
      "type": "function"
    },
    {
      "constant": false,
      "inputs": [
        {
          "internalType": "bytes32",
          "name": "_file",
          "type": "bytes32"
        },
        {
          "internalType": "address",
          "name": "_new_owner",
          "type": "address"
        },
        {
          "internalType": "address",
          "name": "signer",
          "type": "address"
        },
        {
          "internalType": "uint256",
          "name": "_nonce",
          "type": "uint256"
        },
        {
          "internalType": "uint8",
          "name": "v",
          "type": "uint8"
        },
        {
          "internalType": "bytes32",
          "name": "r",
          "type": "bytes32"
        },
        {
          "internalType": "bytes32",
          "name": "s",
          "type": "bytes32"
        }
      ],
      "name": "changeOwnerSigned",
      "outputs": [],
      "payable": false,
      "stateMutability": "nonpayable",
      "type": "function"
    }
  ],
  "bytecode": "0x608060405234801561001057600080fd5b506141de806100206000396000f3fe608060405234801561001057600080fd5b506004361061014d5760003560e01c80638da5cb5b116100c3578063c09e21151161007c578063c09e211514610c8e578063c12ed14f14610dbd578063da4c561814610e3f578063e8b1a9b214610ed8578063fb8ad6ff14610f3e578063fde40cb614610fac5761014d565b80638da5cb5b146105d757806398c9adff146106215780639d95f1cc14610710578063a224cee714610754578063b73cd5cb1461080c578063bbd70cd814610a585761014d565b80635db27a30116101155780635db27a30146102a75780635f784b8a146103565780636184533f146103c957806363b430b71461045657806367823325146104fa57806384e81db1146105405761014d565b80630175015214610152578063104046bd146101ae578063168e2ac7146101cc5780632d4ede931461024557806351973ec914610289575b600080fd5b6101946004803603602081101561016857600080fd5b81019080803573ffffffffffffffffffffffffffffffffffffffff169060200190929190505050610fee565b604051808215151515815260200191505060405180910390f35b6101b661100e565b6040518082815260200191505060405180910390f35b610243600480360360c08110156101e257600080fd5b8101908080359060200190929190803573ffffffffffffffffffffffffffffffffffffffff16906020019092919080359060200190929190803560ff1690602001909291908035906020019092919080359060200190929190505050611014565b005b6102876004803603602081101561025b57600080fd5b81019080803573ffffffffffffffffffffffffffffffffffffffff169060200190929190505050611393565b005b61029161145b565b6040518082815260200191505060405180910390f35b610314600480360360a08110156102bd57600080fd5b8101908080359060200190929190803573ffffffffffffffffffffffffffffffffffffffff169060200190929190803560ff1690602001909291908035906020019092919080359060200190929190505050611461565b604051808273ffffffffffffffffffffffffffffffffffffffff1673ffffffffffffffffffffffffffffffffffffffff16815260200191505060405180910390f35b6103ac6004803603606081101561036c57600080fd5b810190808035906020019092919080359060200190929190803573ffffffffffffffffffffffffffffffffffffffff169060200190929190505050611566565b604051808381526020018281526020019250505060405180910390f35b6103ff600480360360408110156103df57600080fd5b8101908080359060200190929190803590602001909291905050506115a4565b6040518080602001828103825283818151815260200191508051906020019060200280838360005b83811015610442578082015181840152602081019050610427565b505050509050019250505060405180910390f35b6104f8600480360361010081101561046d57600080fd5b8101908080359060200190929190803573ffffffffffffffffffffffffffffffffffffffff16906020019092919080359060200190929190803573ffffffffffffffffffffffffffffffffffffffff16906020019092919080359060200190929190803560ff16906020019092919080359060200190929190803590602001909291905050506117fc565b005b6105266004803603602081101561051057600080fd5b8101908080359060200190929190505050611cdd565b604051808215151515815260200191505060405180910390f35b6105c1600480360360e081101561055657600080fd5b810190808035906020019092919080359060200190929190803573ffffffffffffffffffffffffffffffffffffffff16906020019092919080359060200190929190803560ff1690602001909291908035906020019092919080359060200190929190505050611cfd565b6040518082815260200191505060405180910390f35b6105df6121c8565b604051808273ffffffffffffffffffffffffffffffffffffffff1673ffffffffffffffffffffffffffffffffffffffff16815260200191505060405180910390f35b61064d6004803603602081101561063757600080fd5b81019080803590602001909291905050506121ee565b604051808681526020018581526020018481526020018373ffffffffffffffffffffffffffffffffffffffff1673ffffffffffffffffffffffffffffffffffffffff16815260200180602001828103825283818151815260200191508051906020019080838360005b838110156106d15780820151818401526020810190506106b6565b50505050905090810190601f1680156106fe5780820380516001836020036101000a031916815260200191505b50965050505050505060405180910390f35b6107526004803603602081101561072657600080fd5b81019080803573ffffffffffffffffffffffffffffffffffffffff1690602001909291905050506122dc565b005b61080a6004803603602081101561076a57600080fd5b810190808035906020019064010000000081111561078757600080fd5b82018360208201111561079957600080fd5b803590602001918460208302840111640100000000831117156107bb57600080fd5b919080806020026020016040519081016040528093929190818152602001838360200280828437600081840152601f19601f8201169050808301925050505050505091929192905050506123a3565b005b610a56600480360361012081101561082357600080fd5b810190808035906020019064010000000081111561084057600080fd5b82018360208201111561085257600080fd5b8035906020019184602083028401116401000000008311171561087457600080fd5b919080806020026020016040519081016040528093929190818152602001838360200280828437600081840152601f19601f820116905080830192505050505050509192919290803573ffffffffffffffffffffffffffffffffffffffff169060200190929190803590602001906401000000008111156108f457600080fd5b82018360208201111561090657600080fd5b8035906020019184602083028401116401000000008311171561092857600080fd5b919080806020026020016040519081016040528093929190818152602001838360200280828437600081840152601f19601f8201169050808301925050505050505091929192908035906020019064010000000081111561098857600080fd5b82018360208201111561099a57600080fd5b803590602001918460208302840111640100000000831117156109bc57600080fd5b919080806020026020016040519081016040528093929190818152602001838360200280828437600081840152601f19601f820116905080830192505050505050509192919290803573ffffffffffffffffffffffffffffffffffffffff16906020019092919080359060200190929190803560ff169060200190929190803590602001909291908035906020019092919050505061257e565b005b610c8c6004803603610120811015610a6f57600080fd5b810190808035906020019092919080359060200190640100000000811115610a9657600080fd5b820183602082011115610aa857600080fd5b80359060200191846020830284011164010000000083111715610aca57600080fd5b919080806020026020016040519081016040528093929190818152602001838360200280828437600081840152601f19601f82011690508083019250505050505050919291929080359060200190640100000000811115610b2a57600080fd5b820183602082011115610b3c57600080fd5b80359060200191846020830284011164010000000083111715610b5e57600080fd5b919080806020026020016040519081016040528093929190818152602001838360200280828437600081840152601f19601f82011690508083019250505050505050919291929080359060200190640100000000811115610bbe57600080fd5b820183602082011115610bd057600080fd5b80359060200191846020830284011164010000000083111715610bf257600080fd5b919080806020026020016040519081016040528093929190818152602001838360200280828437600081840152601f19601f820116905080830192505050505050509192919290803573ffffffffffffffffffffffffffffffffffffffff16906020019092919080359060200190929190803560ff1690602001909291908035906020019092919080359060200190929190505050612cb8565b005b610dbb6004803603610140811015610ca557600080fd5b8101908080359060200190929190803590602001909291908035906020019092919080359060200190929190803573ffffffffffffffffffffffffffffffffffffffff16906020019092919080359060200190929190803560ff169060200190929190803590602001909291908035906020019092919080359060200190640100000000811115610d3557600080fd5b820183602082011115610d4757600080fd5b80359060200191846001830284011164010000000083111715610d6957600080fd5b91908080601f016020809104026020016040519081016040528093929190818152602001838380828437600081840152601f19601f8201169050808301925050505050505091929192905050506133a0565b005b610dfd60048036036060811015610dd357600080fd5b81019080803590602001909291908035906020019092919080359060200190929190505050613abe565b604051808273ffffffffffffffffffffffffffffffffffffffff1673ffffffffffffffffffffffffffffffffffffffff16815260200191505060405180910390f35b610ed6600480360360e0811015610e5557600080fd5b8101908080359060200190929190803573ffffffffffffffffffffffffffffffffffffffff169060200190929190803573ffffffffffffffffffffffffffffffffffffffff16906020019092919080359060200190929190803560ff1690602001909291908035906020019092919080359060200190929190505050613b16565b005b610f2460048036036040811015610eee57600080fd5b81019080803573ffffffffffffffffffffffffffffffffffffffff16906020019092919080359060200190929190505050613ef2565b604051808215151515815260200191505060405180910390f35b610f6a60048036036020811015610f5457600080fd5b8101908080359060200190929190505050613f21565b604051808273ffffffffffffffffffffffffffffffffffffffff1673ffffffffffffffffffffffffffffffffffffffff16815260200191505060405180910390f35b610fd860048036036020811015610fc257600080fd5b8101908080359060200190929190505050613f54565b6040518082815260200191505060405180910390f35b603c6020528060005260406000206000915054906101000a900460ff1681565b603e5481565b603c60003373ffffffffffffffffffffffffffffffffffffffff1673ffffffffffffffffffffffffffffffffffffffff16815260200190815260200160002060009054906101000a900460ff166110d3576040517f08c379a00000000000000000000000000000000000000000000000000000000081526004018080602001828103825260198152602001807f53686f756c642062652063616c6c6564206279206f776e65720000000000000081525060200191505060405180910390fd5b85856035600083815260200190815260200160002060009054906101000a900473ffffffffffffffffffffffffffffffffffffffff1673ffffffffffffffffffffffffffffffffffffffff168173ffffffffffffffffffffffffffffffffffffffff161461114057600080fd5b603860008873ffffffffffffffffffffffffffffffffffffffff1673ffffffffffffffffffffffffffffffffffffffff168152602001908152602001600020600087815260200190815260200160002060009054906101000a900460ff1615611211576040517f08c379a00000000000000000000000000000000000000000000000000000000081526004018080602001828103825260118152602001807f4e6f6e6520616c7265616479207573656400000000000000000000000000000081525060200191505060405180910390fd5b6000888760405160200180838152602001828152602001925050506040516020818303038152906040528051906020012090506000611253828a898989611461565b90506001603a60008c815260200190815260200160002060006101000a81548160ff021916908315150217905550603b60008b815260200190815260200160002060008154809291906001019190505550603560008b815260200190815260200160002060006101000a81549073ffffffffffffffffffffffffffffffffffffffff02191690556001603860008b73ffffffffffffffffffffffffffffffffffffffff1673ffffffffffffffffffffffffffffffffffffffff16815260200190815260200160002060008a815260200190815260200160002060006101000a81548160ff021916908315150217905550898173ffffffffffffffffffffffffffffffffffffffff167f81743a3708ed5c44fdbfae0d726dbd4b3df98e47b90eb1e58a23a392d67abb8260405160405180910390a350505050505050505050565b603360009054906101000a900473ffffffffffffffffffffffffffffffffffffffff1673ffffffffffffffffffffffffffffffffffffffff163373ffffffffffffffffffffffffffffffffffffffff16146113ed57600080fd5b603e60008154809291906001900391905055506000603c60008373ffffffffffffffffffffffffffffffffffffffff1673ffffffffffffffffffffffffffffffffffffffff16815260200190815260200160002060006101000a81548160ff02191690831515021790555050565b60345481565b6000808660405160200180807f19457468657265756d205369676e6564204d6573736167653a0a333200000000815250601c01828152602001915050604051602081830303815290604052805190602001209050600060018287878760405160008152602001604052604051808581526020018460ff1660ff1681526020018381526020018281526020019450505050506020604051602081039080840390855afa158015611514573d6000803e3d6000fd5b5050506020604051035190508073ffffffffffffffffffffffffffffffffffffffff168773ffffffffffffffffffffffffffffffffffffffff161461155857600080fd5b809250505095945050505050565b603660205282600052604060002060205281600052604060002060205280600052604060002060009250925050508060000154908060010154905082565b60608060376000858152602001908152602001600020600084815260200190815260200160002080548060200260200160405190810160405280929190818152602001828054801561164b57602002820191906000526020600020905b8160009054906101000a900473ffffffffffffffffffffffffffffffffffffffff1673ffffffffffffffffffffffffffffffffffffffff1681526020019060010190808311611601575b50505050509050600080600090505b82518110156117f057603760008781526020019081526020016000206000868152602001908152602001600020818154811061169257fe5b9060005260206000200160009054906101000a900473ffffffffffffffffffffffffffffffffffffffff1691506000603b60008881526020019081526020016000205490504260366000898152602001908152602001600020600088815260200190815260200160002060008573ffffffffffffffffffffffffffffffffffffffff1673ffffffffffffffffffffffffffffffffffffffff168152602001908152602001600020600001541115806117ae57508060366000898152602001908152602001600020600088815260200190815260200160002060008573ffffffffffffffffffffffffffffffffffffffff1673ffffffffffffffffffffffffffffffffffffffff1681526020019081526020016000206001015414155b156117e2578382815181106117bf57fe5b60200260200101600073ffffffffffffffffffffffffffffffffffffffff168152505b50808060010191505061165a565b50819250505092915050565b603c60003373ffffffffffffffffffffffffffffffffffffffff1673ffffffffffffffffffffffffffffffffffffffff16815260200190815260200160002060009054906101000a900460ff166118bb576040517f08c379a00000000000000000000000000000000000000000000000000000000081526004018080602001828103825260198152602001807f53686f756c642062652063616c6c6564206279206f776e65720000000000000081525060200191505060405180910390fd5b87856035600083815260200190815260200160002060009054906101000a900473ffffffffffffffffffffffffffffffffffffffff1673ffffffffffffffffffffffffffffffffffffffff168173ffffffffffffffffffffffffffffffffffffffff161461192857600080fd5b603860008873ffffffffffffffffffffffffffffffffffffffff1673ffffffffffffffffffffffffffffffffffffffff168152602001908152602001600020600087815260200190815260200160002060009054906101000a900460ff16156119f9576040517f08c379a00000000000000000000000000000000000000000000000000000000081526004018080602001828103825260118152602001807f4e6f6e6520616c7265616479207573656400000000000000000000000000000081525060200191505060405180910390fd5b60008a8a8a89604051602001808581526020018473ffffffffffffffffffffffffffffffffffffffff1673ffffffffffffffffffffffffffffffffffffffff1681526020018381526020018281526020019450505050506040516020818303038152906040528051906020012090506000611a77828a898989611461565b9050603660008d815260200190815260200160002060008b815260200190815260200160002060008c73ffffffffffffffffffffffffffffffffffffffff1673ffffffffffffffffffffffffffffffffffffffff168152602001908152602001600020600080820160009055600182016000905550506000611ba1603760008f815260200190815260200160002060008d8152602001908152602001600020805480602002602001604051908101604052809291908181526020018280548015611b9657602002820191906000526020600020905b8160009054906101000a900473ffffffffffffffffffffffffffffffffffffffff1673ffffffffffffffffffffffffffffffffffffffff1681526020019060010190808311611b4c575b50505050508d613f6c565b9050603760008e815260200190815260200160002060008c81526020019081526020016000208181548110611bd257fe5b9060005260206000200160006101000a81549073ffffffffffffffffffffffffffffffffffffffff02191690556001603860008c73ffffffffffffffffffffffffffffffffffffffff1673ffffffffffffffffffffffffffffffffffffffff16815260200190815260200160002060008b815260200190815260200160002060006101000a81548160ff0219169083151502179055508b73ffffffffffffffffffffffffffffffffffffffff168d8373ffffffffffffffffffffffffffffffffffffffff167f60cb99feacb32252ac712ece398c95440ae888fd3a720ce9f1b32077771612eb8e6040518082815260200191505060405180910390a450505050505050505050505050565b603a6020528060005260406000206000915054906101000a900460ff1681565b6000603c60003373ffffffffffffffffffffffffffffffffffffffff1673ffffffffffffffffffffffffffffffffffffffff16815260200190815260200160002060009054906101000a900460ff16611dbe576040517f08c379a00000000000000000000000000000000000000000000000000000000081526004018080602001828103825260198152602001807f53686f756c642062652063616c6c6564206279206f776e65720000000000000081525060200191505060405180910390fd5b603860008773ffffffffffffffffffffffffffffffffffffffff1673ffffffffffffffffffffffffffffffffffffffff168152602001908152602001600020600086815260200190815260200160002060009054906101000a900460ff1615611e8f576040517f08c379a00000000000000000000000000000000000000000000000000000000081526004018080602001828103825260118152602001807f4e6f6e6520616c7265616479207573656400000000000000000000000000000081525060200191505060405180910390fd5b60008888876040516020018084815260200183815260200182815260200193505050506040516020818303038152906040528051906020012090506000611ed98289888888611461565b9050611ee3614070565b603660008c815260200190815260200160002060008b815260200190815260200160002060008373ffffffffffffffffffffffffffffffffffffffff1673ffffffffffffffffffffffffffffffffffffffff168152602001908152602001600020604051806040016040529081600082015481526020016001820154815250509050600081600001519050603560008d815260200190815260200160002060009054906101000a900473ffffffffffffffffffffffffffffffffffffffff1673ffffffffffffffffffffffffffffffffffffffff168373ffffffffffffffffffffffffffffffffffffffff161415611ff257611feb620f424042613fd190919063ffffffff16565b90506120f6565b603b60008d81526020019081526020016000205482602001511461207e576040517f08c379a000000000000000000000000000000000000000000000000000000000815260040180806020018281038252601d8152602001807f56657273696f6e206f662066696c6520646f65736e2774206d6174636800000081525060200191505060405180910390fd5b60008114156120f5576040517f08c379a000000000000000000000000000000000000000000000000000000000815260040180806020018281038252600d8152602001807f56616c696469747920697320300000000000000000000000000000000000000081525060200191505060405180910390fd5b5b6001603860008c73ffffffffffffffffffffffffffffffffffffffff1673ffffffffffffffffffffffffffffffffffffffff16815260200190815260200160002060008b815260200190815260200160002060006101000a81548160ff0219169083151502179055508b8373ffffffffffffffffffffffffffffffffffffffff167f04ae3dbe53f49b64aa789955e7a9afcf971bb3210b68808773f4efe0aa8ad3be838e604051808381526020018281526020019250505060405180910390a380945050505050979650505050505050565b603360009054906101000a900473ffffffffffffffffffffffffffffffffffffffff1681565b60396020528060005260406000206000915090508060000154908060010154908060020154908060030160009054906101000a900473ffffffffffffffffffffffffffffffffffffffff1690806004018054600181600116156101000203166002900480601f0160208091040260200160405190810160405280929190818152602001828054600181600116156101000203166002900480156122d25780601f106122a7576101008083540402835291602001916122d2565b820191906000526020600020905b8154815290600101906020018083116122b557829003601f168201915b5050505050905085565b603360009054906101000a900473ffffffffffffffffffffffffffffffffffffffff1673ffffffffffffffffffffffffffffffffffffffff163373ffffffffffffffffffffffffffffffffffffffff161461233657600080fd5b603e600081548092919060010191905055506001603c60008373ffffffffffffffffffffffffffffffffffffffff1673ffffffffffffffffffffffffffffffffffffffff16815260200190815260200160002060006101000a81548160ff02191690831515021790555050565b600060019054906101000a900460ff16806123c257506123c1614059565b5b806123d957506000809054906101000a900460ff16155b61242e576040517f08c379a000000000000000000000000000000000000000000000000000000000815260040180806020018281038252602e815260200180614130602e913960400191505060405180910390fd5b60008060019054906101000a900460ff16159050801561247e576001600060016101000a81548160ff02191690831515021790555060016000806101000a81548160ff0219169083151502179055505b33603360006101000a81548173ffffffffffffffffffffffffffffffffffffffff021916908373ffffffffffffffffffffffffffffffffffffffff16021790555060008090505b825181101561255857603e600081548092919060010191905055506001603c60008584815181106124f257fe5b602002602001015173ffffffffffffffffffffffffffffffffffffffff1673ffffffffffffffffffffffffffffffffffffffff16815260200190815260200160002060006101000a81548160ff02191690831515021790555080806001019150506124c5565b50801561257a5760008060016101000a81548160ff0219169083151502179055505b5050565b603c60003373ffffffffffffffffffffffffffffffffffffffff1673ffffffffffffffffffffffffffffffffffffffff16815260200190815260200160002060009054906101000a900460ff1661263d576040517f08c379a00000000000000000000000000000000000000000000000000000000081526004018080602001828103825260198152602001807f53686f756c642062652063616c6c6564206279206f776e65720000000000000081525060200191505060405180910390fd5b603860008673ffffffffffffffffffffffffffffffffffffffff1673ffffffffffffffffffffffffffffffffffffffff168152602001908152602001600020600085815260200190815260200160002060009054906101000a900460ff161561270e576040517f08c379a00000000000000000000000000000000000000000000000000000000081526004018080602001828103825260118152602001807f4e6f6e6520616c7265616479207573656400000000000000000000000000000081525060200191505060405180910390fd5b6000898989898860405160200180806020018673ffffffffffffffffffffffffffffffffffffffff1673ffffffffffffffffffffffffffffffffffffffff1681526020018060200180602001858152602001848103845289818151815260200191508051906020019060200280838360005b8381101561279b578082015181840152602081019050612780565b50505050905001848103835287818151815260200191508051906020019060200280838360005b838110156127dd5780820151818401526020810190506127c2565b50505050905001848103825286818151815260200191508051906020019060200280838360005b8381101561281f578082015181840152602081019050612804565b505050509050019850505050505050505060405160208183030381529060405280519060200120905060006128578288878787611461565b905060008090505b8b51811015612c4157603560008d838151811061287857fe5b6020026020010151815260200190815260200160002060009054906101000a900473ffffffffffffffffffffffffffffffffffffffff1673ffffffffffffffffffffffffffffffffffffffff168273ffffffffffffffffffffffffffffffffffffffff161461294f576040517f08c379a00000000000000000000000000000000000000000000000000000000081526004018080602001828103825260148152602001807f4f776e657220646f6573206e6f74206d6174636800000000000000000000000081525060200191505060405180910390fd5b600089828151811061295d57fe5b602002602001015114156129d9576040517f08c379a00000000000000000000000000000000000000000000000000000000081526004018080602001828103825260198152602001807f56616c6964697479206d757374206265206e6f6e207a65726f0000000000000081525060200191505060405180910390fd5b6040518060400160405280612a0a8b84815181106129f357fe5b602002602001015142613fd190919063ffffffff16565b8152602001603b60008f8581518110612a1f57fe5b6020026020010151815260200190815260200160002054815250603660008e8481518110612a4957fe5b6020026020010151815260200190815260200160002060008c8481518110612a6d57fe5b6020026020010151815260200190815260200160002060008d73ffffffffffffffffffffffffffffffffffffffff1673ffffffffffffffffffffffffffffffffffffffff1681526020019081526020016000206000820151816000015560208201518160010155905050603760008d8381518110612ae757fe5b6020026020010151815260200190815260200160002060008b8381518110612b0b57fe5b602002602001015181526020019081526020016000208b90806001815401808255809150509060018203906000526020600020016000909192909190916101000a81548173ffffffffffffffffffffffffffffffffffffffff021916908373ffffffffffffffffffffffffffffffffffffffff160217905550508a73ffffffffffffffffffffffffffffffffffffffff168c8281518110612ba857fe5b60200260200101518373ffffffffffffffffffffffffffffffffffffffff167ffd417397adfcc8ca5b3f07719bf7c028a2e3b1748ac83e90888dfe7558f96f6c8d8581518110612bf457fe5b60200260200101518d8681518110612c0857fe5b60200260200101518c60405180848152602001838152602001828152602001935050505060405180910390a4808060010191505061285f565b506001603860008973ffffffffffffffffffffffffffffffffffffffff1673ffffffffffffffffffffffffffffffffffffffff168152602001908152602001600020600088815260200190815260200160002060006101000a81548160ff0219169083151502179055505050505050505050505050565b603c60003373ffffffffffffffffffffffffffffffffffffffff1673ffffffffffffffffffffffffffffffffffffffff16815260200190815260200160002060009054906101000a900460ff16612d77576040517f08c379a00000000000000000000000000000000000000000000000000000000081526004018080602001828103825260198152602001807f53686f756c642062652063616c6c6564206279206f776e65720000000000000081525060200191505060405180910390fd5b603860008673ffffffffffffffffffffffffffffffffffffffff1673ffffffffffffffffffffffffffffffffffffffff168152602001908152602001600020600085815260200190815260200160002060009054906101000a900460ff1615612e48576040517f08c379a00000000000000000000000000000000000000000000000000000000081526004018080602001828103825260118152602001807f4e6f6e6520616c7265616479207573656400000000000000000000000000000081525060200191505060405180910390fd5b6000898989898860405160200180868152602001806020018060200180602001858152602001848103845288818151815260200191508051906020019060200280838360005b83811015612ea9578082015181840152602081019050612e8e565b50505050905001848103835287818151815260200191508051906020019060200280838360005b83811015612eeb578082015181840152602081019050612ed0565b50505050905001848103825286818151815260200191508051906020019060200280838360005b83811015612f2d578082015181840152602081019050612f12565b50505050905001985050505050505050506040516020818303038152906040528051906020012090506000612f658288878787611461565b9050603560008c815260200190815260200160002060009054906101000a900473ffffffffffffffffffffffffffffffffffffffff1673ffffffffffffffffffffffffffffffffffffffff168173ffffffffffffffffffffffffffffffffffffffff161461303b576040517f08c379a00000000000000000000000000000000000000000000000000000000081526004018080602001828103825260148152602001807f4f776e657220646f6573206e6f74206d6174636800000000000000000000000081525060200191505060405180910390fd5b60008090505b8a5181101561332957600089828151811061305857fe5b602002602001015114156130d4576040517f08c379a00000000000000000000000000000000000000000000000000000000081526004018080602001828103825260198152602001807f56616c6964697479206d757374206265206e6f6e207a65726f0000000000000081525060200191505060405180910390fd5b60405180604001604052806131058b84815181106130ee57fe5b602002602001015142613fd190919063ffffffff16565b8152602001603b60008f815260200190815260200160002054815250603660008e815260200190815260200160002060008c848151811061314257fe5b6020026020010151815260200190815260200160002060008d848151811061316657fe5b602002602001015173ffffffffffffffffffffffffffffffffffffffff1673ffffffffffffffffffffffffffffffffffffffff1681526020019081526020016000206000820151816000015560208201518160010155905050603760008d815260200190815260200160002060008b83815181106131e057fe5b602002602001015181526020019081526020016000208b828151811061320257fe5b602002602001015190806001815401808255809150509060018203906000526020600020016000909192909190916101000a81548173ffffffffffffffffffffffffffffffffffffffff021916908373ffffffffffffffffffffffffffffffffffffffff160217905550508a818151811061327957fe5b602002602001015173ffffffffffffffffffffffffffffffffffffffff168c8373ffffffffffffffffffffffffffffffffffffffff167ffd417397adfcc8ca5b3f07719bf7c028a2e3b1748ac83e90888dfe7558f96f6c8d85815181106132dc57fe5b60200260200101518d86815181106132f057fe5b60200260200101518c60405180848152602001838152602001828152602001935050505060405180910390a48080600101915050613041565b506001603860008973ffffffffffffffffffffffffffffffffffffffff1673ffffffffffffffffffffffffffffffffffffffff168152602001908152602001600020600088815260200190815260200160002060006101000a81548160ff0219169083151502179055505050505050505050505050565b603c60003373ffffffffffffffffffffffffffffffffffffffff1673ffffffffffffffffffffffffffffffffffffffff16815260200190815260200160002060009054906101000a900460ff1661345f576040517f08c379a00000000000000000000000000000000000000000000000000000000081526004018080602001828103825260198152602001807f53686f756c642062652063616c6c6564206279206f776e65720000000000000081525060200191505060405180910390fd5b603860008773ffffffffffffffffffffffffffffffffffffffff1673ffffffffffffffffffffffffffffffffffffffff168152602001908152602001600020600086815260200190815260200160002060009054906101000a900460ff1615613530576040517f08c379a00000000000000000000000000000000000000000000000000000000081526004018080602001828103825260118152602001807f4e6f6e6520616c7265616479207573656400000000000000000000000000000081525060200191505060405180910390fd5b600073ffffffffffffffffffffffffffffffffffffffff16603560008c815260200190815260200160002060009054906101000a900473ffffffffffffffffffffffffffffffffffffffff1673ffffffffffffffffffffffffffffffffffffffff16146135e8576040517f08c379a00000000000000000000000000000000000000000000000000000000081526004018080602001828103825260218152602001806141896021913960400191505060405180910390fd5b603e54891115613643576040517f08c379a000000000000000000000000000000000000000000000000000000000815260040180806020018281038252602b81526020018061415e602b913960400191505060405180910390fd5b8789116136b8576040517f08c379a00000000000000000000000000000000000000000000000000000000081526004018080602001828103825260038152602001807f6e3e6b000000000000000000000000000000000000000000000000000000000081525060200191505060405180910390fd5b6001881161372e576040517f08c379a00000000000000000000000000000000000000000000000000000000081526004018080602001828103825260118152602001807f6b2073686f756c64206e6f74206265203000000000000000000000000000000081525060200191505060405180910390fd5b60008714156137a5576040517f08c379a000000000000000000000000000000000000000000000000000000000815260040180806020018281038252600f8152602001807f53686f756c64206e6f742062652030000000000000000000000000000000000081525060200191505060405180910390fd5b60008a8a8a8a89604051602001808681526020018581526020018481526020018381526020018281526020019550505050505060405160208183030381529060405280519060200120905060006137ff8289888888611461565b905080603560008e815260200190815260200160002060006101000a81548173ffffffffffffffffffffffffffffffffffffffff021916908373ffffffffffffffffffffffffffffffffffffffff1602179055506040518060a001604052808c81526020018b81526020018a81526020013373ffffffffffffffffffffffffffffffffffffffff16815260200184815250603960008e815260200190815260200160002060008201518160000155602082015181600101556040820151816002015560608201518160030160006101000a81548173ffffffffffffffffffffffffffffffffffffffff021916908373ffffffffffffffffffffffffffffffffffffffff160217905550608082015181600401908051906020019061392492919061408a565b509050506000603a60008e815260200190815260200160002060006101000a81548160ff021916908315150217905550826040518082805190602001908083835b602083106139885780518252602082019150602081019050602083039250613965565b6001836020036101000a03801982511681845116808217855250505050505090500191505060405180910390208c603560008f815260200190815260200160002060009054906101000a900473ffffffffffffffffffffffffffffffffffffffff1673ffffffffffffffffffffffffffffffffffffffff167f3e73b9dec7331900012d58d71143bfd49168fb6d969fbd6c797e1b736a24dd068e8e8e60405180848152602001838152602001828152602001935050505060405180910390a46001603860008a73ffffffffffffffffffffffffffffffffffffffff1673ffffffffffffffffffffffffffffffffffffffff168152602001908152602001600020600089815260200190815260200160002060006101000a81548160ff021916908315150217905550505050505050505050505050565b60376020528260005260406000206020528160005260406000208181548110613ae357fe5b90600052602060002001600092509250509054906101000a900473ffffffffffffffffffffffffffffffffffffffff1681565b603c60003373ffffffffffffffffffffffffffffffffffffffff1673ffffffffffffffffffffffffffffffffffffffff16815260200190815260200160002060009054906101000a900460ff16613bd5576040517f08c379a00000000000000000000000000000000000000000000000000000000081526004018080602001828103825260198152602001807f53686f756c642062652063616c6c6564206279206f776e65720000000000000081525060200191505060405180910390fd5b86856035600083815260200190815260200160002060009054906101000a900473ffffffffffffffffffffffffffffffffffffffff1673ffffffffffffffffffffffffffffffffffffffff168173ffffffffffffffffffffffffffffffffffffffff1614613c4257600080fd5b603860008873ffffffffffffffffffffffffffffffffffffffff1673ffffffffffffffffffffffffffffffffffffffff168152602001908152602001600020600087815260200190815260200160002060009054906101000a900460ff1615613d13576040517f08c379a00000000000000000000000000000000000000000000000000000000081526004018080602001828103825260118152602001807f4e6f6e6520616c7265616479207573656400000000000000000000000000000081525060200191505060405180910390fd5b600073ffffffffffffffffffffffffffffffffffffffff168873ffffffffffffffffffffffffffffffffffffffff161415613db6576040517f08c379a000000000000000000000000000000000000000000000000000000000815260040180806020018281038252600f8152602001807f496e76616c69642061646472657373000000000000000000000000000000000081525060200191505060405180910390fd5b6000898988604051602001808481526020018373ffffffffffffffffffffffffffffffffffffffff1673ffffffffffffffffffffffffffffffffffffffff1681526020018281526020019350505050604051602081830303815290604052805190602001209050613e2a8189888888611461565b5088603560008c815260200190815260200160002060006101000a81548173ffffffffffffffffffffffffffffffffffffffff021916908373ffffffffffffffffffffffffffffffffffffffff1602179055506001603860008a73ffffffffffffffffffffffffffffffffffffffff1673ffffffffffffffffffffffffffffffffffffffff168152602001908152602001600020600089815260200190815260200160002060006101000a81548160ff02191690831515021790555050505050505050505050565b60386020528160005260406000206020528060005260406000206000915091509054906101000a900460ff1681565b60356020528060005260406000206000915054906101000a900473ffffffffffffffffffffffffffffffffffffffff1681565b603b6020528060005260406000206000915090505481565b600080600090505b8273ffffffffffffffffffffffffffffffffffffffff16848281518110613f9757fe5b602002602001015173ffffffffffffffffffffffffffffffffffffffff1614613fc7578080600101915050613f74565b8091505092915050565b60008082840190508381101561404f576040517f08c379a000000000000000000000000000000000000000000000000000000000815260040180806020018281038252601b8152602001807f536166654d6174683a206164646974696f6e206f766572666c6f77000000000081525060200191505060405180910390fd5b8091505092915050565b6000803090506000813b9050600081149250505090565b604051806040016040528060008152602001600081525090565b828054600181600116156101000203166002900490600052602060002090601f016020900481019282601f106140cb57805160ff19168380011785556140f9565b828001600101855582156140f9579182015b828111156140f85782518255916020019190600101906140dd565b5b509050614106919061410a565b5090565b61412c91905b80821115614128576000816000905550600101614110565b5090565b9056fe436f6e747261637420696e7374616e63652068617320616c7265616479206265656e20696e697469616c697a65644e2073686f756c64206265206c657373207468656e206e756d626572206f6620746f74616c206e6f6465734f776e657220616c726561647920657869737420666f7220746869732066696c65a265627a7a72315820fb8ce9af7ea09e6c97debe75abe4d16d15a4be0c6189f367afcd4afe87e8ce2b64736f6c63430005100032",
  "source": "pragma solidity ^0.5;\n\nimport './SafeMath.sol';\nimport './Initializable.sol';\n\ncontract Skizzle is Initializable {\n    address public owner;\n    using SafeMath for uint;\n    bytes32 public log;\n\n    // keccak256(storage index) => bytes32 newfang-specific-idbytes\n    mapping(bytes32 => address) public owners; // file owners\n    // file id => access type => user => ACK\n    mapping(bytes32 => mapping(bytes32 => mapping(address => ACK))) public accessSpecifier;\n    // It is used to get all users of a particular type with particular access\n    mapping(bytes32 => mapping(bytes32 => address[])) public userAccess;\n    mapping(address => mapping(uint256 => bool)) public nonce;\n    mapping(bytes32 => File) public files;\n    mapping(bytes32 => bool) public isDeleted;\n    mapping(bytes32 => uint256) public version;\n    mapping(address => bool) public isNode;\n    mapping(address => Usage[]) usages;\n    uint256 public total_nodes;\n\n    struct ACK {\n        uint256 validity;\n        uint256 version;\n    }\n\n    // similar to sets\n    struct Access {\n        bytes32[] types;\n        mapping(bytes32 => bool) is_in;\n    }\n\n    struct File {\n        uint256 n;\n        uint256 k;\n        uint256 file_size;\n        address handling_node;\n        bytes ueb;\n    }\n\n    struct Usage {\n        uint256 total_bytes;\n        bytes32 usage_type; // 0 => upload; 1 => download\n        bytes32 file;\n    }\n\n    modifier onlyFileOwner(bytes32 _file, address _identity) {\n        require(_identity == owners[_file]);\n        _;\n    }\n\n    modifier onlyOwner(){\n        require(msg.sender == owner);\n        _;\n    }\n\n    modifier onlyNode(){\n        require(isNode[msg.sender], \"Should be called by owner\");\n        _;\n    }\n\n\n    function initialize(address[] memory _nodes) public initializer {\n        owner = msg.sender;\n        for (uint256 i = 0; i < _nodes.length; i++) {\n            total_nodes++;\n            isNode[_nodes[i]] = true;\n        }\n    }\n\n    function addNode(address _node) public onlyOwner {\n        total_nodes++;\n        isNode[_node] = true;\n    }\n\n    function deleteNode(address _node) public onlyOwner {\n        total_nodes--;\n        isNode[_node] = false;\n    }\n\n    function getSigner(bytes32 payloadHash, address signer, uint8 v, bytes32 r, bytes32 s) public pure returns (address){\n        bytes32 messageHash = keccak256(abi.encodePacked(\"\\x19Ethereum Signed Message:\\n32\", payloadHash));\n        address actualSigner = ecrecover(messageHash, v, r, s);\n        require(signer == actualSigner);\n        return actualSigner;\n    }\n\n\n    function createDIDSigned(bytes32 _file, uint256 n, uint256 k, uint256 _file_size, address signer, uint256 _nonce, uint8 v, bytes32 r, bytes32 s, bytes memory _ueb) public onlyNode {\n        require(!nonce[signer][_nonce], \"None already used\");\n        require(owners[_file] == address(0), \"Owner already exist for this file\");\n        require(n <= total_nodes, \"N should be less then number of total nodes\");\n        require(n > k, \"n>k\");\n        require(k > 1, \"k should not be 0\");\n        require(_file_size != 0, \"Should not be 0\");\n        bytes32 payloadHash = keccak256(abi.encode(_file, n, k, _file_size, _nonce));\n        address _identity = getSigner(payloadHash, signer, v, r, s);\n        owners[_file] = _identity;\n        files[_file] = File(n, k, _file_size, msg.sender, _ueb);\n        isDeleted[_file] = false;\n        emit NewFileUpdate(owners[_file], _file, n, k, _file_size, _ueb);\n        nonce[signer][_nonce] = true;\n    }\n\n    event deleteFileEvent(\n        address indexed identity,\n        bytes32 indexed file\n    );\n\n\n    function deleteFileSigned(bytes32 _file, address signer, uint256 _nonce, uint8 v, bytes32 r, bytes32 s) public onlyNode onlyFileOwner(_file, signer) {\n        require(!nonce[signer][_nonce], \"None already used\");\n        bytes32 payloadHash = keccak256(abi.encode(_file, _nonce));\n        address _identity = getSigner(payloadHash, signer, v, r, s);\n        isDeleted[_file] = true;\n        version[_file]++;\n        delete owners[_file];\n        nonce[signer][_nonce] = true;\n        emit deleteFileEvent(_identity, _file);\n    }\n\n\n    function getAllUsers(bytes32 _file, bytes32 _access_type) public view returns (address[] memory){\n        address[] memory users = userAccess[_file][_access_type];\n        address user;\n        for (uint i = 0; i < users.length; i++) {\n            user = userAccess[_file][_access_type][i];\n            uint256 current_version = version[_file];\n            if (accessSpecifier[_file][_access_type][user].validity <= now || accessSpecifier[_file][_access_type][user].version != current_version) {\n                delete users[i];\n            }\n        }\n        return users;\n    }\n\n\n    event NewShare(\n        address indexed identity,\n        bytes32 indexed file,\n        address indexed user,\n        bytes32 access_type,\n        uint256 validity,\n        uint256 nonce\n    );\n\n    /**\n    * @dev key is encrypted with users public key and stored on a server hash of encrypted key is stored here in smart\n     contract along with its validity\n    * @return bool\n    */\n    function shareSigned(bytes32[] memory _file, address _user, bytes32[] memory _access_type, uint256[] memory _validity, address signer, uint256 _nonce, uint8 v, bytes32 r, bytes32 s) onlyNode public {\n        require(!nonce[signer][_nonce], \"None already used\");\n        bytes32 payloadHash = keccak256(abi.encode(_file, _user, _access_type, _validity, _nonce));\n        address _identity = getSigner(payloadHash, signer, v, r, s);\n        for (uint j = 0; j < _file.length; j++) {\n            require(_identity == owners[_file[j]], \"Owner does not match\");\n            require(_validity[j] != 0, \"Validity must be non zero\");\n            accessSpecifier[_file[j]][_access_type[j]][_user] = ACK(now.add(_validity[j]), version[_file[j]]);\n            userAccess[_file[j]][_access_type[j]].push(_user);\n            emit NewShare(_identity, _file[j], _user, _access_type[j], _validity[j], _nonce);\n        }\n        nonce[signer][_nonce] = true;\n    }\n\n    function shareSignedMultipleUsers(bytes32 _file, address[] memory _user, bytes32[] memory _access_type, uint256[] memory _validity, address signer, uint256 _nonce, uint8 v, bytes32 r, bytes32 s) onlyNode public {\n        require(!nonce[signer][_nonce], \"None already used\");\n        bytes32 payloadHash = keccak256(abi.encode(_file, _user, _access_type, _validity, _nonce));\n        address _identity = getSigner(payloadHash, signer, v, r, s);\n        require(_identity == owners[_file], \"Owner does not match\");\n        for (uint j = 0; j < _user.length; j++) {\n            require(_validity[j] != 0, \"Validity must be non zero\");\n            accessSpecifier[_file][_access_type[j]][_user[j]] = ACK(now.add(_validity[j]), version[_file]);\n            userAccess[_file][_access_type[j]].push(_user[j]);\n            emit NewShare(_identity, _file, _user[j], _access_type[j], _validity[j], _nonce);\n        }\n        nonce[signer][_nonce] = true;\n    }\n\n    event NewFileUpdate(\n        address indexed identity,\n        bytes32 indexed file,\n        uint256 n,\n        uint256 k,\n        uint256 file_size,\n        bytes indexed ueb\n    );\n\n    event NewDownload(\n        address indexed identity,\n        bytes32 indexed file,\n        uint256 validity,\n        bytes32 access_type\n    );\n\n\n    function downloadSigned(bytes32 _file, bytes32 _access_type, address signer, uint256 _nonce, uint8 v, bytes32 r, bytes32 s) onlyNode public returns (uint256) {\n        require(!nonce[signer][_nonce], \"None already used\");\n        bytes32 payloadHash = keccak256(abi.encode(_file, _access_type, _nonce));\n        address _identity = getSigner(payloadHash, signer, v, r, s);\n        ACK memory ack = accessSpecifier[_file][_access_type][_identity];\n        uint256 validity = ack.validity;\n        if (_identity == owners[_file]) {\n            validity = now.add(1000000);\n        } else {\n            require(ack.version == version[_file], \"Version of file doesn't match\");\n            require(validity != uint256(0), \"Validity is 0\");\n        }\n        nonce[signer][_nonce] = true;\n        emit NewDownload(_identity, _file, validity, _access_type);\n        return validity;\n    }\n\n\n    function IndexOf(address[] memory values, address value) internal pure returns (uint) {\n        uint i = 0;\n        while (values[i] != value) {\n            i++;\n        }\n        return i;\n    }\n\n    event NewUpdateACK(\n        address indexed identity,\n        bytes32 indexed file,\n        address indexed user,\n        bytes32 access_type\n    );\n\n\n    /**\n    * @dev Update ACK(Access Control Key) validity, it can not be used to change access_type, to change you have to share the\n    file again with desired access type and you may remove the previous access type\n    * @return bool\n    */\n    function revokeSigned(bytes32 _file, address _user, bytes32 _access_type, address signer, uint256 _nonce, uint8 v, bytes32 r, bytes32 s) onlyNode onlyFileOwner(_file, signer) public {\n        require(!nonce[signer][_nonce], \"None already used\");\n        bytes32 payloadHash = keccak256(abi.encode(_file, _user, _access_type, _nonce));\n        address _identity = getSigner(payloadHash, signer, v, r, s);\n        delete accessSpecifier[_file][_access_type][_user];\n        uint index = IndexOf(userAccess[_file][_access_type], _user);\n        delete userAccess[_file][_access_type][index];\n        nonce[signer][_nonce] = true;\n        emit NewUpdateACK(_identity, _file, _user, _access_type);\n    }\n\n\n    function changeOwnerSigned(bytes32 _file, address _new_owner, address signer, uint256 _nonce, uint8 v, bytes32 r, bytes32 s) onlyNode onlyFileOwner(_file, signer) public {\n        require(!nonce[signer][_nonce], \"None already used\");\n        require(_new_owner != address(0), \"Invalid address\");\n        bytes32 payloadHash = keccak256(abi.encode(_file, _new_owner, _nonce));\n        getSigner(payloadHash, signer, v, r, s);\n        owners[_file] = _new_owner;\n        nonce[signer][_nonce] = true;\n    }\n\n}\n",
  "sourcePath": "/home/saurav/projects/skizzle_smart_contracts/contracts/Skizzle.sol",
  "compiler": {
    "name": "solc",
    "version": "0.5.16+commit.9c3226ce.Emscripten.clang"
  },
  "schemaVersion": "3.1.0",
  "updatedAt": "2020-09-21T10:12:28.835Z",
  "devdoc": {
    "methods": {
      "revokeSigned(bytes32,address,bytes32,address,uint256,uint8,bytes32,bytes32)": {
        "details": "Update ACK(Access Control Key) validity, it can not be used to change access_type, to change you have to share the file again with desired access type and you may remove the previous access type",
        "return": "bool"
      },
      "shareSigned(bytes32[],address,bytes32[],uint256[],address,uint256,uint8,bytes32,bytes32)": {
        "details": "key is encrypted with users public key and stored on a server hash of encrypted key is stored here in smart contract along with its validity",
        "return": "bool"
      }
    }
  },
  "userdoc": {
    "methods": {}
  }
}