{
  "contractName": "Skizzle",
  "abi": [
    {
      "anonymous": false,
      "inputs": [
        {
          "indexed": true,
          "internalType": "address",
          "name": "identity",
          "type": "address"
        },
        {
          "indexed": true,
          "internalType": "bytes32",
          "name": "file",
          "type": "bytes32"
        },
        {
          "indexed": false,
          "internalType": "uint256",
          "name": "validity",
          "type": "uint256"
        },
        {
          "indexed": false,
          "internalType": "bytes32",
          "name": "access_type",
          "type": "bytes32"
        }
      ],
      "name": "NewDownload",
      "type": "event"
    },
    {
      "anonymous": false,
      "inputs": [
        {
          "indexed": true,
          "internalType": "address",
          "name": "identity",
          "type": "address"
        },
        {
          "indexed": true,
          "internalType": "bytes32",
          "name": "file",
          "type": "bytes32"
        },
        {
          "indexed": false,
          "internalType": "uint256",
          "name": "n",
          "type": "uint256"
        },
        {
          "indexed": false,
          "internalType": "uint256",
          "name": "k",
          "type": "uint256"
        },
        {
          "indexed": false,
          "internalType": "uint256",
          "name": "file_size",
          "type": "uint256"
        },
        {
          "indexed": true,
          "internalType": "bytes",
          "name": "ueb",
          "type": "bytes"
        }
      ],
      "name": "NewFileUpdate",
      "type": "event"
    },
    {
      "anonymous": false,
      "inputs": [
        {
          "indexed": true,
          "internalType": "address",
          "name": "identity",
          "type": "address"
        },
        {
          "indexed": true,
          "internalType": "bytes32",
          "name": "file",
          "type": "bytes32"
        },
        {
          "indexed": true,
          "internalType": "address",
          "name": "user",
          "type": "address"
        },
        {
          "indexed": false,
          "internalType": "bytes32",
          "name": "access_type",
          "type": "bytes32"
        },
        {
          "indexed": false,
          "internalType": "uint256",
          "name": "validity",
          "type": "uint256"
        },
        {
          "indexed": false,
          "internalType": "uint256",
          "name": "nonce",
          "type": "uint256"
        }
      ],
      "name": "NewShare",
      "type": "event"
    },
    {
      "anonymous": false,
      "inputs": [
        {
          "indexed": true,
          "internalType": "address",
          "name": "identity",
          "type": "address"
        },
        {
          "indexed": true,
          "internalType": "bytes32",
          "name": "file",
          "type": "bytes32"
        },
        {
          "indexed": true,
          "internalType": "address",
          "name": "user",
          "type": "address"
        },
        {
          "indexed": false,
          "internalType": "bytes32",
          "name": "access_type",
          "type": "bytes32"
        },
        {
          "indexed": false,
          "internalType": "uint256",
          "name": "validity",
          "type": "uint256"
        }
      ],
      "name": "NewUpdateACK",
      "type": "event"
    },
    {
      "anonymous": false,
      "inputs": [
        {
          "indexed": true,
          "internalType": "address",
          "name": "identity",
          "type": "address"
        },
        {
          "indexed": true,
          "internalType": "bytes32",
          "name": "file",
          "type": "bytes32"
        }
      ],
      "name": "deleteFileEvent",
      "type": "event"
    },
    {
      "constant": true,
      "inputs": [
        {
          "internalType": "bytes32",
          "name": "",
          "type": "bytes32"
        },
        {
          "internalType": "bytes32",
          "name": "",
          "type": "bytes32"
        },
        {
          "internalType": "address",
          "name": "",
          "type": "address"
        }
      ],
      "name": "accessSpecifier",
      "outputs": [
        {
          "internalType": "uint256",
          "name": "",
          "type": "uint256"
        }
      ],
      "payable": false,
      "stateMutability": "view",
      "type": "function"
    },
    {
      "constant": true,
      "inputs": [
        {
          "internalType": "bytes32",
          "name": "",
          "type": "bytes32"
        }
      ],
      "name": "files",
      "outputs": [
        {
          "internalType": "uint256",
          "name": "n",
          "type": "uint256"
        },
        {
          "internalType": "uint256",
          "name": "k",
          "type": "uint256"
        },
        {
          "internalType": "uint256",
          "name": "file_size",
          "type": "uint256"
        },
        {
          "internalType": "bytes",
          "name": "ueb",
          "type": "bytes"
        }
      ],
      "payable": false,
      "stateMutability": "view",
      "type": "function"
    },
    {
      "constant": true,
      "inputs": [],
      "name": "log",
      "outputs": [
        {
          "internalType": "bytes32",
          "name": "",
          "type": "bytes32"
        }
      ],
      "payable": false,
      "stateMutability": "view",
      "type": "function"
    },
    {
      "constant": true,
      "inputs": [
        {
          "internalType": "address",
          "name": "",
          "type": "address"
        }
      ],
      "name": "nonce",
      "outputs": [
        {
          "internalType": "uint256",
          "name": "",
          "type": "uint256"
        }
      ],
      "payable": false,
      "stateMutability": "view",
      "type": "function"
    },
    {
      "constant": true,
      "inputs": [
        {
          "internalType": "bytes32",
          "name": "",
          "type": "bytes32"
        }
      ],
      "name": "owners",
      "outputs": [
        {
          "internalType": "address",
          "name": "",
          "type": "address"
        }
      ],
      "payable": false,
      "stateMutability": "view",
      "type": "function"
    },
    {
      "constant": true,
      "inputs": [
        {
          "internalType": "bytes32",
          "name": "",
          "type": "bytes32"
        },
        {
          "internalType": "bytes32",
          "name": "",
          "type": "bytes32"
        },
        {
          "internalType": "uint256",
          "name": "",
          "type": "uint256"
        }
      ],
      "name": "userAccess",
      "outputs": [
        {
          "internalType": "address",
          "name": "",
          "type": "address"
        }
      ],
      "payable": false,
      "stateMutability": "view",
      "type": "function"
    },
    {
      "constant": true,
      "inputs": [
        {
          "internalType": "bytes32",
          "name": "payloadHash",
          "type": "bytes32"
        },
        {
          "internalType": "address",
          "name": "signer",
          "type": "address"
        },
        {
          "internalType": "uint8",
          "name": "v",
          "type": "uint8"
        },
        {
          "internalType": "bytes32",
          "name": "r",
          "type": "bytes32"
        },
        {
          "internalType": "bytes32",
          "name": "s",
          "type": "bytes32"
        }
      ],
      "name": "getSigner",
      "outputs": [
        {
          "internalType": "address",
          "name": "",
          "type": "address"
        }
      ],
      "payable": false,
      "stateMutability": "pure",
      "type": "function"
    },
    {
      "constant": false,
      "inputs": [
        {
          "internalType": "bytes32",
          "name": "_id",
          "type": "bytes32"
        }
      ],
      "name": "createDID",
      "outputs": [
        {
          "internalType": "bool",
          "name": "",
          "type": "bool"
        }
      ],
      "payable": false,
      "stateMutability": "nonpayable",
      "type": "function"
    },
    {
      "constant": false,
      "inputs": [
        {
          "internalType": "bytes32",
          "name": "_id",
          "type": "bytes32"
        },
        {
          "internalType": "address",
          "name": "signer",
          "type": "address"
        },
        {
          "internalType": "uint8",
          "name": "v",
          "type": "uint8"
        },
        {
          "internalType": "bytes32",
          "name": "r",
          "type": "bytes32"
        },
        {
          "internalType": "bytes32",
          "name": "s",
          "type": "bytes32"
        }
      ],
      "name": "createDIDSigned",
      "outputs": [
        {
          "internalType": "bool",
          "name": "",
          "type": "bool"
        }
      ],
      "payable": false,
      "stateMutability": "nonpayable",
      "type": "function"
    },
    {
      "constant": false,
      "inputs": [
        {
          "internalType": "bytes32",
          "name": "_id",
          "type": "bytes32"
        }
      ],
      "name": "deleteFile",
      "outputs": [
        {
          "internalType": "bool",
          "name": "",
          "type": "bool"
        }
      ],
      "payable": false,
      "stateMutability": "nonpayable",
      "type": "function"
    },
    {
      "constant": false,
      "inputs": [
        {
          "internalType": "bytes32",
          "name": "_id",
          "type": "bytes32"
        },
        {
          "internalType": "address",
          "name": "signer",
          "type": "address"
        },
        {
          "internalType": "uint8",
          "name": "v",
          "type": "uint8"
        },
        {
          "internalType": "bytes32",
          "name": "r",
          "type": "bytes32"
        },
        {
          "internalType": "bytes32",
          "name": "s",
          "type": "bytes32"
        }
      ],
      "name": "deleteFileSigned",
      "outputs": [
        {
          "internalType": "bool",
          "name": "",
          "type": "bool"
        }
      ],
      "payable": false,
      "stateMutability": "nonpayable",
      "type": "function"
    },
    {
      "constant": true,
      "inputs": [
        {
          "internalType": "bytes32",
          "name": "_file",
          "type": "bytes32"
        },
        {
          "internalType": "bytes32",
          "name": "_access_type",
          "type": "bytes32"
        }
      ],
      "name": "getTotalUsers",
      "outputs": [
        {
          "internalType": "uint256",
          "name": "",
          "type": "uint256"
        }
      ],
      "payable": false,
      "stateMutability": "view",
      "type": "function"
    },
    {
      "constant": true,
      "inputs": [
        {
          "internalType": "bytes32",
          "name": "_file",
          "type": "bytes32"
        },
        {
          "internalType": "bytes32",
          "name": "_access_type",
          "type": "bytes32"
        }
      ],
      "name": "getAllUsers",
      "outputs": [
        {
          "internalType": "address[]",
          "name": "",
          "type": "address[]"
        }
      ],
      "payable": false,
      "stateMutability": "view",
      "type": "function"
    },
    {
      "constant": false,
      "inputs": [
        {
          "internalType": "bytes32[]",
          "name": "_file",
          "type": "bytes32[]"
        },
        {
          "internalType": "address[]",
          "name": "_user",
          "type": "address[]"
        },
        {
          "internalType": "bytes32[]",
          "name": "_access_type",
          "type": "bytes32[]"
        },
        {
          "internalType": "uint256[]",
          "name": "_validity",
          "type": "uint256[]"
        }
      ],
      "name": "share",
      "outputs": [
        {
          "internalType": "bool",
          "name": "",
          "type": "bool"
        }
      ],
      "payable": false,
      "stateMutability": "nonpayable",
      "type": "function"
    },
    {
      "constant": false,
      "inputs": [
        {
          "internalType": "bytes32[]",
          "name": "_file",
          "type": "bytes32[]"
        },
        {
          "internalType": "address[]",
          "name": "_user",
          "type": "address[]"
        },
        {
          "internalType": "bytes32[]",
          "name": "_access_type",
          "type": "bytes32[]"
        },
        {
          "internalType": "uint256[]",
          "name": "_validity",
          "type": "uint256[]"
        },
        {
          "internalType": "address",
          "name": "signer",
          "type": "address"
        },
        {
          "internalType": "uint8",
          "name": "v",
          "type": "uint8"
        },
        {
          "internalType": "bytes32",
          "name": "r",
          "type": "bytes32"
        },
        {
          "internalType": "bytes32",
          "name": "s",
          "type": "bytes32"
        }
      ],
      "name": "shareSigned",
      "outputs": [
        {
          "internalType": "bool",
          "name": "",
          "type": "bool"
        }
      ],
      "payable": false,
      "stateMutability": "nonpayable",
      "type": "function"
    },
    {
      "constant": false,
      "inputs": [
        {
          "internalType": "bytes32",
          "name": "_file",
          "type": "bytes32"
        },
        {
          "internalType": "uint256",
          "name": "n",
          "type": "uint256"
        },
        {
          "internalType": "uint256",
          "name": "k",
          "type": "uint256"
        },
        {
          "internalType": "uint256",
          "name": "file_size",
          "type": "uint256"
        },
        {
          "internalType": "bytes",
          "name": "ueb",
          "type": "bytes"
        }
      ],
      "name": "fileUpdate",
      "outputs": [
        {
          "internalType": "bool",
          "name": "",
          "type": "bool"
        }
      ],
      "payable": false,
      "stateMutability": "nonpayable",
      "type": "function"
    },
    {
      "constant": false,
      "inputs": [
        {
          "internalType": "bytes32",
          "name": "_file",
          "type": "bytes32"
        },
        {
          "internalType": "uint256",
          "name": "n",
          "type": "uint256"
        },
        {
          "internalType": "uint256",
          "name": "k",
          "type": "uint256"
        },
        {
          "internalType": "uint256",
          "name": "file_size",
          "type": "uint256"
        },
        {
          "internalType": "bytes",
          "name": "ueb",
          "type": "bytes"
        },
        {
          "internalType": "address",
          "name": "signer",
          "type": "address"
        },
        {
          "internalType": "uint8",
          "name": "v",
          "type": "uint8"
        },
        {
          "internalType": "bytes32",
          "name": "r",
          "type": "bytes32"
        },
        {
          "internalType": "bytes32",
          "name": "s",
          "type": "bytes32"
        }
      ],
      "name": "fileUpdateSigned",
      "outputs": [
        {
          "internalType": "bool",
          "name": "",
          "type": "bool"
        }
      ],
      "payable": false,
      "stateMutability": "nonpayable",
      "type": "function"
    },
    {
      "constant": false,
      "inputs": [
        {
          "internalType": "bytes32",
          "name": "_file",
          "type": "bytes32"
        },
        {
          "internalType": "bytes32",
          "name": "_access_type",
          "type": "bytes32"
        }
      ],
      "name": "download",
      "outputs": [
        {
          "internalType": "uint256",
          "name": "",
          "type": "uint256"
        }
      ],
      "payable": false,
      "stateMutability": "nonpayable",
      "type": "function"
    },
    {
      "constant": false,
      "inputs": [
        {
          "internalType": "bytes32",
          "name": "_file",
          "type": "bytes32"
        },
        {
          "internalType": "bytes32",
          "name": "_access_type",
          "type": "bytes32"
        },
        {
          "internalType": "address",
          "name": "signer",
          "type": "address"
        },
        {
          "internalType": "uint8",
          "name": "v",
          "type": "uint8"
        },
        {
          "internalType": "bytes32",
          "name": "r",
          "type": "bytes32"
        },
        {
          "internalType": "bytes32",
          "name": "s",
          "type": "bytes32"
        }
      ],
      "name": "downloadSigned",
      "outputs": [
        {
          "internalType": "uint256",
          "name": "",
          "type": "uint256"
        }
      ],
      "payable": false,
      "stateMutability": "nonpayable",
      "type": "function"
    },
    {
      "constant": false,
      "inputs": [
        {
          "internalType": "bytes32",
          "name": "_file",
          "type": "bytes32"
        },
        {
          "internalType": "address",
          "name": "_user",
          "type": "address"
        },
        {
          "internalType": "bytes32",
          "name": "_access_type",
          "type": "bytes32"
        },
        {
          "internalType": "uint256",
          "name": "_validity",
          "type": "uint256"
        }
      ],
      "name": "updateACK",
      "outputs": [
        {
          "internalType": "bool",
          "name": "",
          "type": "bool"
        }
      ],
      "payable": false,
      "stateMutability": "nonpayable",
      "type": "function"
    },
    {
      "constant": false,
      "inputs": [
        {
          "internalType": "bytes32",
          "name": "_file",
          "type": "bytes32"
        },
        {
          "internalType": "address",
          "name": "_user",
          "type": "address"
        },
        {
          "internalType": "bytes32",
          "name": "_access_type",
          "type": "bytes32"
        },
        {
          "internalType": "uint256",
          "name": "_validity",
          "type": "uint256"
        },
        {
          "internalType": "address",
          "name": "signer",
          "type": "address"
        },
        {
          "internalType": "uint8",
          "name": "v",
          "type": "uint8"
        },
        {
          "internalType": "bytes32",
          "name": "r",
          "type": "bytes32"
        },
        {
          "internalType": "bytes32",
          "name": "s",
          "type": "bytes32"
        }
      ],
      "name": "updateACKSigned",
      "outputs": [
        {
          "internalType": "bool",
          "name": "",
          "type": "bool"
        }
      ],
      "payable": false,
      "stateMutability": "nonpayable",
      "type": "function"
    },
    {
      "constant": false,
      "inputs": [
        {
          "internalType": "bytes32",
          "name": "_file",
          "type": "bytes32"
        },
        {
          "internalType": "address",
          "name": "_new_owner",
          "type": "address"
        }
      ],
      "name": "changeFileOwner",
      "outputs": [
        {
          "internalType": "bool",
          "name": "",
          "type": "bool"
        }
      ],
      "payable": false,
      "stateMutability": "nonpayable",
      "type": "function"
    },
    {
      "constant": false,
      "inputs": [
        {
          "internalType": "bytes32",
          "name": "_file",
          "type": "bytes32"
        },
        {
          "internalType": "address",
          "name": "_new_owner",
          "type": "address"
        },
        {
          "internalType": "address",
          "name": "signer",
          "type": "address"
        },
        {
          "internalType": "uint8",
          "name": "v",
          "type": "uint8"
        },
        {
          "internalType": "bytes32",
          "name": "r",
          "type": "bytes32"
        },
        {
          "internalType": "bytes32",
          "name": "s",
          "type": "bytes32"
        }
      ],
      "name": "changeOwnerSigned",
      "outputs": [
        {
          "internalType": "bool",
          "name": "",
          "type": "bool"
        }
      ],
      "payable": false,
      "stateMutability": "nonpayable",
      "type": "function"
    },
    {
      "constant": false,
      "inputs": [
        {
          "internalType": "bytes32",
          "name": "_file_id",
          "type": "bytes32"
        },
        {
          "internalType": "uint256",
          "name": "n",
          "type": "uint256"
        },
        {
          "internalType": "uint256",
          "name": "k",
          "type": "uint256"
        },
        {
          "internalType": "uint256",
          "name": "file_size",
          "type": "uint256"
        },
        {
          "internalType": "bytes",
          "name": "ueb",
          "type": "bytes"
        }
      ],
      "name": "upload",
      "outputs": [],
      "payable": false,
      "stateMutability": "nonpayable",
      "type": "function"
    },
    {
      "constant": false,
      "inputs": [
        {
          "internalType": "bytes32",
          "name": "_file",
          "type": "bytes32"
        },
        {
          "internalType": "uint256",
          "name": "n",
          "type": "uint256"
        },
        {
          "internalType": "uint256",
          "name": "k",
          "type": "uint256"
        },
        {
          "internalType": "uint256",
          "name": "file_size",
          "type": "uint256"
        },
        {
          "internalType": "bytes",
          "name": "ueb",
          "type": "bytes"
        },
        {
          "internalType": "address",
          "name": "signer",
          "type": "address"
        },
        {
          "internalType": "uint8",
          "name": "v",
          "type": "uint8"
        },
        {
          "internalType": "bytes32",
          "name": "r",
          "type": "bytes32"
        },
        {
          "internalType": "bytes32",
          "name": "s",
          "type": "bytes32"
        }
      ],
      "name": "uploadSigned",
      "outputs": [],
      "payable": false,
      "stateMutability": "nonpayable",
      "type": "function"
    }
  ],
  "bytecode": "0x608060405234801561001057600080fd5b50613c52806100206000396000f3fe608060405234801561001057600080fd5b50600436106101735760003560e01c806370ae92d2116100de578063c12ed14f11610097578063dba5361a11610071578063dba5361a1461125e578063f444ecde146112d8578063f82430a814611324578063fb8ad6ff1461137057610173565b8063c12ed14f14611039578063c5b26447146110bb578063c98a60631461112157610173565b806370ae92d214610a89578063799d59c714610ae1578063845f60bd14610b6e578063945ffb0e14610c6957806398c9adff14610caf578063ad28fd0c14610d6b57610173565b80635bf8aa6e116101305780635bf8aa6e146107585780635d3449c9146107df5780635db27a301461089b5780635f784b8a1461094a5780636184533f146109b65780636ab799f114610a4357610173565b80632139923214610178578063297cda7b1461025b5780632cf03545146103025780632f88a6e01461042757806333dd1c0f146104ae57806351973ec91461073a575b600080fd5b610259600480360360a081101561018e57600080fd5b8101908080359060200190929190803590602001909291908035906020019092919080359060200190929190803590602001906401000000008111156101d357600080fd5b8201836020820111156101e557600080fd5b8035906020019184600183028401116401000000008311171561020757600080fd5b91908080601f016020809104026020016040519081016040528093929190818152602001838380828437600081840152601f19601f8201169050808301925050505050505091929192905050506113de565b005b6102e8600480360360c081101561027157600080fd5b8101908080359060200190929190803573ffffffffffffffffffffffffffffffffffffffff169060200190929190803573ffffffffffffffffffffffffffffffffffffffff169060200190929190803560ff16906020019092919080359060200190929190803590602001909291905050506113ff565b604051808215151515815260200191505060405180910390f35b610425600480360361012081101561031957600080fd5b81019080803590602001909291908035906020019092919080359060200190929190803590602001909291908035906020019064010000000081111561035e57600080fd5b82018360208201111561037057600080fd5b8035906020019184600183028401116401000000008311171561039257600080fd5b91908080601f016020809104026020016040519081016040528093929190818152602001838380828437600081840152601f19601f820116905080830192505050505050509192919290803573ffffffffffffffffffffffffffffffffffffffff169060200190929190803560ff16906020019092919080359060200190929190803590602001909291905050506114d0565b005b610494600480360360a081101561043d57600080fd5b8101908080359060200190929190803573ffffffffffffffffffffffffffffffffffffffff169060200190929190803560ff16906020019092919080359060200190929190803590602001909291905050506115f3565b604051808215151515815260200191505060405180910390f35b610720600480360360808110156104c457600080fd5b81019080803590602001906401000000008111156104e157600080fd5b8201836020820111156104f357600080fd5b8035906020019184602083028401116401000000008311171561051557600080fd5b919080806020026020016040519081016040528093929190818152602001838360200280828437600081840152601f19601f8201169050808301925050505050505091929192908035906020019064010000000081111561057557600080fd5b82018360208201111561058757600080fd5b803590602001918460208302840111640100000000831117156105a957600080fd5b919080806020026020016040519081016040528093929190818152602001838360200280828437600081840152601f19601f8201169050808301925050505050505091929192908035906020019064010000000081111561060957600080fd5b82018360208201111561061b57600080fd5b8035906020019184602083028401116401000000008311171561063d57600080fd5b919080806020026020016040519081016040528093929190818152602001838360200280828437600081840152601f19601f8201169050808301925050505050505091929192908035906020019064010000000081111561069d57600080fd5b8201836020820111156106af57600080fd5b803590602001918460208302840111640100000000831117156106d157600080fd5b919080806020026020016040519081016040528093929190818152602001838360200280828437600081840152601f19601f82011690508083019250505050505050919291929050505061168e565b604051808215151515815260200191505060405180910390f35b6107426116a7565b6040518082815260200191505060405180910390f35b6107c5600480360360a081101561076e57600080fd5b8101908080359060200190929190803573ffffffffffffffffffffffffffffffffffffffff169060200190929190803560ff16906020019092919080359060200190929190803590602001909291905050506116ad565b604051808215151515815260200191505060405180910390f35b61088160048036036101008110156107f657600080fd5b8101908080359060200190929190803573ffffffffffffffffffffffffffffffffffffffff1690602001909291908035906020019092919080359060200190929190803573ffffffffffffffffffffffffffffffffffffffff169060200190929190803560ff1690602001909291908035906020019092919080359060200190929190505050611748565b604051808215151515815260200191505060405180910390f35b610908600480360360a08110156108b157600080fd5b8101908080359060200190929190803573ffffffffffffffffffffffffffffffffffffffff169060200190929190803560ff169060200190929190803590602001909291908035906020019092919050505061182d565b604051808273ffffffffffffffffffffffffffffffffffffffff1673ffffffffffffffffffffffffffffffffffffffff16815260200191505060405180910390f35b6109a06004803603606081101561096057600080fd5b810190808035906020019092919080359060200190929190803573ffffffffffffffffffffffffffffffffffffffff169060200190929190505050611932565b6040518082815260200191505060405180910390f35b6109ec600480360360408110156109cc57600080fd5b810190808035906020019092919080359060200190929190505050611964565b6040518080602001828103825283818151815260200191508051906020019060200280838360005b83811015610a2f578082015181840152602081019050610a14565b505050509050019250505060405180910390f35b610a6f60048036036020811015610a5957600080fd5b8101908080359060200190929190505050611b2f565b604051808215151515815260200191505060405180910390f35b610acb60048036036020811015610a9f57600080fd5b81019080803573ffffffffffffffffffffffffffffffffffffffff169060200190929190505050611b42565b6040518082815260200191505060405180910390f35b610b58600480360360c0811015610af757600080fd5b810190808035906020019092919080359060200190929190803573ffffffffffffffffffffffffffffffffffffffff169060200190929190803560ff1690602001909291908035906020019092919080359060200190929190505050611b5a565b6040518082815260200191505060405180910390f35b610c4f600480360360a0811015610b8457600080fd5b810190808035906020019092919080359060200190929190803590602001909291908035906020019092919080359060200190640100000000811115610bc957600080fd5b820183602082011115610bdb57600080fd5b80359060200191846001830284011164010000000083111715610bfd57600080fd5b91908080601f016020809104026020016040519081016040528093929190818152602001838380828437600081840152601f19601f820116905080830192505050505050509192919290505050611bff565b604051808215151515815260200191505060405180910390f35b610c9560048036036020811015610c7f57600080fd5b8101908080359060200190929190505050611c1a565b604051808215151515815260200191505060405180910390f35b610cdb60048036036020811015610cc557600080fd5b8101908080359060200190929190505050611c2d565b6040518085815260200184815260200183815260200180602001828103825283818151815260200191508051906020019080838360005b83811015610d2d578082015181840152602081019050610d12565b50505050905090810190601f168015610d5a5780820380516001836020036101000a031916815260200191505b509550505050505060405180910390f35b61101f6004803603610100811015610d8257600080fd5b8101908080359060200190640100000000811115610d9f57600080fd5b820183602082011115610db157600080fd5b80359060200191846020830284011164010000000083111715610dd357600080fd5b919080806020026020016040519081016040528093929190818152602001838360200280828437600081840152601f19601f82011690508083019250505050505050919291929080359060200190640100000000811115610e3357600080fd5b820183602082011115610e4557600080fd5b80359060200191846020830284011164010000000083111715610e6757600080fd5b919080806020026020016040519081016040528093929190818152602001838360200280828437600081840152601f19601f82011690508083019250505050505050919291929080359060200190640100000000811115610ec757600080fd5b820183602082011115610ed957600080fd5b80359060200191846020830284011164010000000083111715610efb57600080fd5b919080806020026020016040519081016040528093929190818152602001838360200280828437600081840152601f19601f82011690508083019250505050505050919291929080359060200190640100000000811115610f5b57600080fd5b820183602082011115610f6d57600080fd5b80359060200191846020830284011164010000000083111715610f8f57600080fd5b919080806020026020016040519081016040528093929190818152602001838360200280828437600081840152601f19601f820116905080830192505050505050509192919290803573ffffffffffffffffffffffffffffffffffffffff169060200190929190803560ff1690602001909291908035906020019092919080359060200190929190505050611cf5565b604051808215151515815260200191505060405180910390f35b6110796004803603606081101561104f57600080fd5b81019080803590602001909291908035906020019092919080359060200190929190505050611eb2565b604051808273ffffffffffffffffffffffffffffffffffffffff1673ffffffffffffffffffffffffffffffffffffffff16815260200191505060405180910390f35b611107600480360360408110156110d157600080fd5b8101908080359060200190929190803573ffffffffffffffffffffffffffffffffffffffff169060200190929190505050611f0a565b604051808215151515815260200191505060405180910390f35b611244600480360361012081101561113857600080fd5b81019080803590602001909291908035906020019092919080359060200190929190803590602001909291908035906020019064010000000081111561117d57600080fd5b82018360208201111561118f57600080fd5b803590602001918460018302840111640100000000831117156111b157600080fd5b91908080601f016020809104026020016040519081016040528093929190818152602001838380828437600081840152601f19601f820116905080830192505050505050509192919290803573ffffffffffffffffffffffffffffffffffffffff169060200190929190803560ff1690602001909291908035906020019092919080359060200190929190505050611f1f565b604051808215151515815260200191505060405180910390f35b6112be6004803603608081101561127457600080fd5b8101908080359060200190929190803573ffffffffffffffffffffffffffffffffffffffff1690602001909291908035906020019092919080359060200190929190505050612047565b604051808215151515815260200191505060405180910390f35b61130e600480360360408110156112ee57600080fd5b810190808035906020019092919080359060200190929190505050612060565b6040518082815260200191505060405180910390f35b61135a6004803603604081101561133a57600080fd5b810190808035906020019092919080359060200190929190505050612075565b6040518082815260200191505060405180910390f35b61139c6004803603602081101561138657600080fd5b8101908080359060200190929190505050612269565b604051808273ffffffffffffffffffffffffffffffffffffffff1673ffffffffffffffffffffffffffffffffffffffff16815260200191505060405180910390f35b6113e8853361229c565b506113f7338686868686612400565b505050505050565b6000808787600460008973ffffffffffffffffffffffffffffffffffffffff1673ffffffffffffffffffffffffffffffffffffffff16815260200190815260200160002054604051602001808481526020018373ffffffffffffffffffffffffffffffffffffffff1673ffffffffffffffffffffffffffffffffffffffff168152602001828152602001935050505060405160208183030381529060405280519060200120905060006114b5828888888861182d565b90506114c2818a8a612838565b925050509695505050505050565b60008989898989600460008b73ffffffffffffffffffffffffffffffffffffffff1673ffffffffffffffffffffffffffffffffffffffff168152602001908152602001600020546040516020018087815260200186815260200185815260200184815260200180602001838152602001828103825284818151815260200191508051906020019080838360005b8381101561157857808201518184015260208101905061155d565b50505050905090810190601f1680156115a55780820380516001836020036101000a031916815260200191505b5097505050505050505060405160208183030381529060405280519060200120905060006115d6828787878761182d565b90506115e6818c8c8c8c8c6129f8565b5050505050505050505050565b60008086600460008873ffffffffffffffffffffffffffffffffffffffff1673ffffffffffffffffffffffffffffffffffffffff1681526020019081526020016000205460405160200180838152602001828152602001925050506040516020818303038152906040528051906020012090506000611675828888888861182d565b9050611681888261229c565b9250505095945050505050565b600061169d3386868686612a1a565b9050949350505050565b60005481565b60008086600460008873ffffffffffffffffffffffffffffffffffffffff1673ffffffffffffffffffffffffffffffffffffffff168152602001908152602001600020546040516020018083815260200182815260200192505050604051602081830303815290604052805190602001209050600061172f828888888861182d565b905061173b8882612f6c565b9250505095945050505050565b60008089898989600460008b73ffffffffffffffffffffffffffffffffffffffff1673ffffffffffffffffffffffffffffffffffffffff16815260200190815260200160002054604051602001808681526020018573ffffffffffffffffffffffffffffffffffffffff1673ffffffffffffffffffffffffffffffffffffffff16815260200184815260200183815260200182815260200195505050505050604051602081830303815290604052805190602001209050600061180e828888888861182d565b905061181d818c8c8c8c61341f565b9250505098975050505050505050565b6000808660405160200180807f19457468657265756d205369676e6564204d6573736167653a0a333200000000815250601c01828152602001915050604051602081830303815290604052805190602001209050600060018287878760405160008152602001604052604051808581526020018460ff1660ff1681526020018381526020018281526020019450505050506020604051602081039080840390855afa1580156118e0573d6000803e3d6000fd5b5050506020604051035190508073ffffffffffffffffffffffffffffffffffffffff168773ffffffffffffffffffffffffffffffffffffffff161461192457600080fd5b809250505095945050505050565b600260205282600052604060002060205281600052604060002060205280600052604060002060009250925050505481565b606080600360008581526020019081526020016000206000848152602001908152602001600020805480602002602001604051908101604052809291908181526020018280548015611a0b57602002820191906000526020600020905b8160009054906101000a900473ffffffffffffffffffffffffffffffffffffffff1673ffffffffffffffffffffffffffffffffffffffff16815260200190600101908083116119c1575b50505050509050600080600090505b8251811015611b23576003600087815260200190815260200160002060008681526020019081526020016000208181548110611a5257fe5b9060005260206000200160009054906101000a900473ffffffffffffffffffffffffffffffffffffffff1691504260026000888152602001908152602001600020600087815260200190815260200160002060008473ffffffffffffffffffffffffffffffffffffffff1673ffffffffffffffffffffffffffffffffffffffff1681526020019081526020016000205411611b1657828181518110611af357fe5b60200260200101600073ffffffffffffffffffffffffffffffffffffffff168152505b8080600101915050611a1a565b50819250505092915050565b6000611b3b8233612f6c565b9050919050565b60046020528060005260406000206000915090505481565b6000808787600460008973ffffffffffffffffffffffffffffffffffffffff1673ffffffffffffffffffffffffffffffffffffffff168152602001908152602001600020546040516020018084815260200183815260200182815260200193505050506040516020818303038152906040528051906020012090506000611be4828888888861182d565b9050611bf1818a8a61380e565b925050509695505050505050565b6000611c0f338787878787612400565b905095945050505050565b6000611c26823361229c565b9050919050565b6005602052806000526040600020600091509050806000015490806001015490806002015490806003018054600181600116156101000203166002900480601f016020809104026020016040519081016040528092919081815260200182805460018160011615610100020316600290048015611ceb5780601f10611cc057610100808354040283529160200191611ceb565b820191906000526020600020905b815481529060010190602001808311611cce57829003601f168201915b5050505050905084565b60008089898989600460008b73ffffffffffffffffffffffffffffffffffffffff1673ffffffffffffffffffffffffffffffffffffffff16815260200190815260200160002054604051602001808060200180602001806020018060200186815260200185810385528a818151815260200191508051906020019060200280838360005b83811015611d94578082015181840152602081019050611d79565b50505050905001858103845289818151815260200191508051906020019060200280838360005b83811015611dd6578082015181840152602081019050611dbb565b50505050905001858103835288818151815260200191508051906020019060200280838360005b83811015611e18578082015181840152602081019050611dfd565b50505050905001858103825287818151815260200191508051906020019060200280838360005b83811015611e5a578082015181840152602081019050611e3f565b5050505090500199505050505050505050506040516020818303038152906040528051906020012090506000611e93828888888861182d565b9050611ea2818c8c8c8c612a1a565b9250505098975050505050505050565b60036020528260005260406000206020528160005260406000208181548110611ed757fe5b90600052602060002001600092509250509054906101000a900473ffffffffffffffffffffffffffffffffffffffff1681565b6000611f17338484612838565b905092915050565b6000808a8a8a8a8a600460008c73ffffffffffffffffffffffffffffffffffffffff1673ffffffffffffffffffffffffffffffffffffffff168152602001908152602001600020546040516020018087815260200186815260200185815260200184815260200180602001838152602001828103825284818151815260200191508051906020019080838360005b83811015611fc8578082015181840152602081019050611fad565b50505050905090810190601f168015611ff55780820380516001836020036101000a031916815260200191505b509750505050505050506040516020818303038152906040528051906020012090506000612026828888888861182d565b9050612036818d8d8d8d8d612400565b925050509998505050505050505050565b6000612056338686868661341f565b9050949350505050565b600061206d33848461380e565b905092915050565b6000606060036000858152602001908152602001600020600084815260200190815260200160002080548060200260200160405190810160405280929190818152602001828054801561211d57602002820191906000526020600020905b8160009054906101000a900473ffffffffffffffffffffffffffffffffffffffff1673ffffffffffffffffffffffffffffffffffffffff16815260200190600101908083116120d3575b505050505090506000806000905060008090505b835181101561225c57600360008881526020019081526020016000206000878152602001908152602001600020818154811061216957fe5b9060005260206000200160009054906101000a900473ffffffffffffffffffffffffffffffffffffffff169250600073ffffffffffffffffffffffffffffffffffffffff168373ffffffffffffffffffffffffffffffffffffffff161415801561223357504260026000898152602001908152602001600020600088815260200190815260200160002060008573ffffffffffffffffffffffffffffffffffffffff1673ffffffffffffffffffffffffffffffffffffffff16815260200190815260200160002054115b1561224f5761224c600183613a2290919063ffffffff16565b91505b8080600101915050612131565b5080935050505092915050565b60016020528060005260406000206000915054906101000a900473ffffffffffffffffffffffffffffffffffffffff1681565b60008073ffffffffffffffffffffffffffffffffffffffff166001600085815260200190815260200160002060009054906101000a900473ffffffffffffffffffffffffffffffffffffffff1673ffffffffffffffffffffffffffffffffffffffff1614612355576040517f08c379a0000000000000000000000000000000000000000000000000000000008152600401808060200182810382526021815260200180613bfd6021913960400191505060405180910390fd5b816001600085815260200190815260200160002060006101000a81548173ffffffffffffffffffffffffffffffffffffffff021916908373ffffffffffffffffffffffffffffffffffffffff160217905550600460008373ffffffffffffffffffffffffffffffffffffffff1673ffffffffffffffffffffffffffffffffffffffff168152602001908152602001600020600081548092919060010191905055506001905092915050565b600085876001600083815260200190815260200160002060009054906101000a900473ffffffffffffffffffffffffffffffffffffffff1673ffffffffffffffffffffffffffffffffffffffff168173ffffffffffffffffffffffffffffffffffffffff161461246f57600080fd5b600073ffffffffffffffffffffffffffffffffffffffff16600160008a815260200190815260200160002060009054906101000a900473ffffffffffffffffffffffffffffffffffffffff1673ffffffffffffffffffffffffffffffffffffffff161415612545576040517f08c379a000000000000000000000000000000000000000000000000000000000815260040180806020018281038252601a8152602001807f46696c6520646f6573206e6f742068617320616e206f776e657200000000000081525060200191505060405180910390fd5b8587116125ba576040517f08c379a00000000000000000000000000000000000000000000000000000000081526004018080602001828103825260038152602001807f6e3e6b000000000000000000000000000000000000000000000000000000000081525060200191505060405180910390fd5b60018611612630576040517f08c379a00000000000000000000000000000000000000000000000000000000081526004018080602001828103825260118152602001807f6b2073686f756c64206e6f74206265203000000000000000000000000000000081525060200191505060405180910390fd5b60008514156126a7576040517f08c379a000000000000000000000000000000000000000000000000000000000815260040180806020018281038252600f8152602001807f53686f756c64206e6f742062652030000000000000000000000000000000000081525060200191505060405180910390fd5b604051806080016040528088815260200187815260200186815260200185815250600560008a81526020019081526020016000206000820151816000015560208201518160010155604082015181600201556060820151816003019080519060200190612715929190613b0f565b50905050836040518082805190602001908083835b6020831061274d578051825260208201915060208101905060208303925061272a565b6001836020036101000a0380198251168184511680821785525050505050509050019150506040518091039020888a73ffffffffffffffffffffffffffffffffffffffff167f3e73b9dec7331900012d58d71143bfd49168fb6d969fbd6c797e1b736a24dd068a8a8a60405180848152602001838152602001828152602001935050505060405180910390a4600460008a73ffffffffffffffffffffffffffffffffffffffff1673ffffffffffffffffffffffffffffffffffffffff168152602001908152602001600020600081548092919060010191905055506001925050509695505050505050565b600082846001600083815260200190815260200160002060009054906101000a900473ffffffffffffffffffffffffffffffffffffffff1673ffffffffffffffffffffffffffffffffffffffff168173ffffffffffffffffffffffffffffffffffffffff16146128a757600080fd5b600073ffffffffffffffffffffffffffffffffffffffff168473ffffffffffffffffffffffffffffffffffffffff16141561294a576040517f08c379a000000000000000000000000000000000000000000000000000000000815260040180806020018281038252600f8152602001807f496e76616c69642061646472657373000000000000000000000000000000000081525060200191505060405180910390fd5b836001600087815260200190815260200160002060006101000a81548173ffffffffffffffffffffffffffffffffffffffff021916908373ffffffffffffffffffffffffffffffffffffffff160217905550600460008773ffffffffffffffffffffffffffffffffffffffff1673ffffffffffffffffffffffffffffffffffffffff168152602001908152602001600020600081548092919060010191905055506001925050509392505050565b612a02858761229c565b50612a11868686868686612400565b50505050505050565b600080600090505b8551811015612f0f5760008090505b8551811015612f015760016000888481518110612a4a57fe5b6020026020010151815260200190815260200160002060009054906101000a900473ffffffffffffffffffffffffffffffffffffffff1673ffffffffffffffffffffffffffffffffffffffff168873ffffffffffffffffffffffffffffffffffffffff1614612ab857600080fd5b6000848281518110612ac657fe5b60200260200101511415612b42576040517f08c379a00000000000000000000000000000000000000000000000000000000081526004018080602001828103825260198152602001807f56616c6964697479206d757374206265206e6f6e207a65726f0000000000000081525060200191505060405180910390fd5b612b68848281518110612b5157fe5b602002602001015142613a2290919063ffffffff16565b60026000898581518110612b7857fe5b602002602001015181526020019081526020016000206000878481518110612b9c57fe5b602002602001015181526020019081526020016000206000888481518110612bc057fe5b602002602001015173ffffffffffffffffffffffffffffffffffffffff1673ffffffffffffffffffffffffffffffffffffffff1681526020019081526020016000208190555060036000888481518110612c1657fe5b602002602001015181526020019081526020016000206000868381518110612c3a57fe5b60200260200101518152602001908152602001600020868281518110612c5c57fe5b602002602001015190806001815401808255809150509060018203906000526020600020016000909192909190916101000a81548173ffffffffffffffffffffffffffffffffffffffff021916908373ffffffffffffffffffffffffffffffffffffffff16021790555050858181518110612cd357fe5b602002602001015173ffffffffffffffffffffffffffffffffffffffff16878381518110612cfd57fe5b60200260200101518973ffffffffffffffffffffffffffffffffffffffff167ffd417397adfcc8ca5b3f07719bf7c028a2e3b1748ac83e90888dfe7558f96f6c888581518110612d4957fe5b6020026020010151888681518110612d5d57fe5b6020026020010151600460008f73ffffffffffffffffffffffffffffffffffffffff1673ffffffffffffffffffffffffffffffffffffffff1681526020019081526020016000205460405180848152602001838152602001828152602001935050505060405180910390a460066000888481518110612dd857fe5b602002602001015181526020019081526020016000206001016000868381518110612dff57fe5b6020026020010151815260200190815260200160002060009054906101000a900460ff16612ef45760066000888481518110612e3757fe5b60200260200101518152602001908152602001600020600001858281518110612e5c57fe5b60200260200101519080600181540180825580915050906001820390600052602060002001600090919290919091505550600160066000898581518110612e9f57fe5b602002602001015181526020019081526020016000206001016000878481518110612ec657fe5b6020026020010151815260200190815260200160002060006101000a81548160ff0219169083151502179055505b8080600101915050612a31565b508080600101915050612a22565b50600460008773ffffffffffffffffffffffffffffffffffffffff1673ffffffffffffffffffffffffffffffffffffffff168152602001908152602001600020600081548092919060010191905055506001905095945050505050565b60008173ffffffffffffffffffffffffffffffffffffffff166001600085815260200190815260200160002060009054906101000a900473ffffffffffffffffffffffffffffffffffffffff1673ffffffffffffffffffffffffffffffffffffffff1614613042576040517f08c379a00000000000000000000000000000000000000000000000000000000081526004018080602001828103825260148152602001807f4f776e657220646f6573206e6f74206d6174636800000000000000000000000081525060200191505060405180910390fd5b6060600080600090505b600660008781526020019081526020016000206000018054905081101561330b576003600087815260200190815260200160002060006006600089815260200190815260200160002060000183815481106130a357fe5b9060005260206000200154815260200190815260200160002080548060200260200160405190810160405280929190818152602001828054801561313c57602002820191906000526020600020905b8160009054906101000a900473ffffffffffffffffffffffffffffffffffffffff1673ffffffffffffffffffffffffffffffffffffffff16815260200190600101908083116130f2575b5050505050925060008090505b83518110156132fd57600360008881526020019081526020016000206000600660008a8152602001908152602001600020600001848154811061318857fe5b9060005260206000200154815260200190815260200160002081815481106131ac57fe5b9060005260206000200160009054906101000a900473ffffffffffffffffffffffffffffffffffffffff169250600260008881526020019081526020016000206000600660008a8152602001908152602001600020600001848154811061320f57fe5b9060005260206000200154815260200190815260200160002060008473ffffffffffffffffffffffffffffffffffffffff1673ffffffffffffffffffffffffffffffffffffffff16815260200190815260200160002060009055600360008881526020019081526020016000206000600660008a8152602001908152602001600020600001848154811061329f57fe5b9060005260206000200154815260200190815260200160002081815481106132c357fe5b9060005260206000200160006101000a81549073ffffffffffffffffffffffffffffffffffffffff02191690558080600101915050613149565b50808060010191505061304c565b5060056000868152602001908152602001600020600080820160009055600182016000905560028201600090556003820160006133489190613b8f565b50506001600086815260200190815260200160002060006101000a81549073ffffffffffffffffffffffffffffffffffffffff0219169055600460008573ffffffffffffffffffffffffffffffffffffffff1673ffffffffffffffffffffffffffffffffffffffff16815260200190815260200160002060008154809291906001019190505550848473ffffffffffffffffffffffffffffffffffffffff167f81743a3708ed5c44fdbfae0d726dbd4b3df98e47b90eb1e58a23a392d67abb8260405160405180910390a360019250505092915050565b600084866001600083815260200190815260200160002060009054906101000a900473ffffffffffffffffffffffffffffffffffffffff1673ffffffffffffffffffffffffffffffffffffffff168173ffffffffffffffffffffffffffffffffffffffff161461348e57600080fd5b6134a18442613a2290919063ffffffff16565b60026000898152602001908152602001600020600087815260200190815260200160002060008873ffffffffffffffffffffffffffffffffffffffff1673ffffffffffffffffffffffffffffffffffffffff1681526020019081526020016000208190555060008414156136885760026000888152602001908152602001600020600086815260200190815260200160002060008773ffffffffffffffffffffffffffffffffffffffff1673ffffffffffffffffffffffffffffffffffffffff168152602001908152602001600020600090556000613628600360008a8152602001908152602001600020600088815260200190815260200160002080548060200260200160405190810160405280929190818152602001828054801561361d57602002820191906000526020600020905b8160009054906101000a900473ffffffffffffffffffffffffffffffffffffffff1673ffffffffffffffffffffffffffffffffffffffff16815260200190600101908083116135d3575b505050505088613aaa565b9050600360008981526020019081526020016000206000878152602001908152602001600020818154811061365957fe5b9060005260206000200160006101000a81549073ffffffffffffffffffffffffffffffffffffffff0219169055505b60066000888152602001908152602001600020600101600086815260200190815260200160002060009054906101000a900460ff166137425760066000888152602001908152602001600020600001859080600181540180825580915050906001820390600052602060002001600090919290919091505550600160066000898152602001908152602001600020600101600087815260200190815260200160002060006101000a81548160ff0219169083151502179055505b600460008973ffffffffffffffffffffffffffffffffffffffff1673ffffffffffffffffffffffffffffffffffffffff168152602001908152602001600020600081548092919060010191905055508573ffffffffffffffffffffffffffffffffffffffff16878973ffffffffffffffffffffffffffffffffffffffff167f906a970a1a9d2003fe06a6a1ed320bd719e31fd2676acca2e87710a2fe2f69e18888604051808381526020018281526020019250505060405180910390a460019250505095945050505050565b60008060026000858152602001908152602001600020600084815260200190815260200160002060008673ffffffffffffffffffffffffffffffffffffffff1673ffffffffffffffffffffffffffffffffffffffff1681526020019081526020016000205490506001600085815260200190815260200160002060009054906101000a900473ffffffffffffffffffffffffffffffffffffffff1673ffffffffffffffffffffffffffffffffffffffff168573ffffffffffffffffffffffffffffffffffffffff1614156138f9576138f2620f424042613a2290919063ffffffff16565b9050613971565b6000811415613970576040517f08c379a000000000000000000000000000000000000000000000000000000000815260040180806020018281038252600d8152602001807f56616c696469747920697320300000000000000000000000000000000000000081525060200191505060405180910390fd5b5b600460008673ffffffffffffffffffffffffffffffffffffffff1673ffffffffffffffffffffffffffffffffffffffff16815260200190815260200160002060008154809291906001019190505550838573ffffffffffffffffffffffffffffffffffffffff167f04ae3dbe53f49b64aa789955e7a9afcf971bb3210b68808773f4efe0aa8ad3be8386604051808381526020018281526020019250505060405180910390a3809150509392505050565b600080828401905083811015613aa0576040517f08c379a000000000000000000000000000000000000000000000000000000000815260040180806020018281038252601b8152602001807f536166654d6174683a206164646974696f6e206f766572666c6f77000000000081525060200191505060405180910390fd5b8091505092915050565b600080600090505b8273ffffffffffffffffffffffffffffffffffffffff16848281518110613ad557fe5b602002602001015173ffffffffffffffffffffffffffffffffffffffff1614613b05578080600101915050613ab2565b8091505092915050565b828054600181600116156101000203166002900490600052602060002090601f016020900481019282601f10613b5057805160ff1916838001178555613b7e565b82800160010185558215613b7e579182015b82811115613b7d578251825591602001919060010190613b62565b5b509050613b8b9190613bd7565b5090565b50805460018160011615610100020316600290046000825580601f10613bb55750613bd4565b601f016020900490600052602060002090810190613bd39190613bd7565b5b50565b613bf991905b80821115613bf5576000816000905550600101613bdd565b5090565b9056fe4f776e657220616c726561647920657869737420666f7220746869732066696c65a265627a7a723158200e459c38c89fbb48869ccc31c07c953c5026dc8f5a3cad2b7a862b1356a4d95c64736f6c63430005100032",
  "source": "pragma solidity ^0.5;\n\nimport './SafeMath.sol';\n\ncontract Skizzle {\n    using SafeMath for uint;\n    bytes32 public log;\n\n    // keccak256(storage index) => bytes32 newfang-specific-idbytes\n    mapping(bytes32 => address) public owners; // file owners\n    // file id => access type => user => validity\n    mapping(bytes32 => mapping(bytes32 => mapping(address => uint256))) public accessSpecifier;\n    // It is used to get all users of a particular type with particular access\n    mapping(bytes32 => mapping(bytes32 => address[])) public userAccess;\n    mapping(address => uint) public nonce;\n    mapping(bytes32 => File) public files;\n    mapping(bytes32 => Access) accessTypes;\n    mapping(address => Usage[]) usages;\n\n    // similar to sets\n    struct Access {\n        bytes32[] types;\n        mapping(bytes32 => bool) is_in;\n    }\n\n    struct File {\n        uint256 n;\n        uint256 k;\n        uint256 file_size;\n        bytes ueb;\n    }\n\n    struct Usage {\n        uint256 total_bytes;\n        bytes32 usage_type; // 0 => upload; 1 => download\n        bytes32 file;\n    }\n\n    modifier onlyFileOwner(bytes32 _file, address _identity) {\n        require(_identity == owners[_file]);\n        _;\n    }\n\n\n    function getSigner(bytes32 payloadHash, address signer, uint8 v, bytes32 r, bytes32 s) public pure returns (address){\n        bytes32 messageHash = keccak256(abi.encodePacked(\"\\x19Ethereum Signed Message:\\n32\", payloadHash));\n        address actualSigner = ecrecover(messageHash, v, r, s);\n        require(signer == actualSigner);\n        return actualSigner;\n    }\n\n\n    /**\n    * @dev This function will be used by createDID pubic function and createDIDSigned\n    * @return bool\n    */\n    function createDID(bytes32 _id, address _identity) internal returns (bool){\n        require(owners[_id] == address(0), \"Owner already exist for this file\");\n        owners[_id] = _identity;\n        nonce[_identity]++;\n        return true;\n    }\n\n    /**\n    * @dev _id will be the file index which is generated by newfang SDK on client side.\n    * @return bool\n    */\n    function createDID(bytes32 _id) public returns (bool){\n        return createDID(_id, msg.sender);\n    }\n\n    function createDIDSigned(bytes32 _id, address signer, uint8 v, bytes32 r, bytes32 s) public returns (bool) {\n        bytes32 payloadHash = keccak256(abi.encode(_id, nonce[signer]));\n        address actualSigner = getSigner(payloadHash, signer, v, r, s);\n        return createDID(_id, actualSigner);\n    }\n\n    event deleteFileEvent(\n        address indexed identity,\n        bytes32 indexed file\n    );\n\n    function deleteFile(bytes32 _id, address _identity) internal returns (bool) {\n        require(owners[_id] == _identity, \"Owner does not match\");\n\n        // Remove access of all the users\n        address[] memory users;\n        address user;\n        for (uint at = 0; at < accessTypes[_id].types.length; at++) {\n            users = userAccess[_id][accessTypes[_id].types[at]];\n            for (uint i = 0; i < users.length; i++) {\n                user = userAccess[_id][accessTypes[_id].types[at]][i];\n                delete accessSpecifier[_id][accessTypes[_id].types[at]][user];\n                delete userAccess[_id][accessTypes[_id].types[at]][i];\n            }\n        }\n        // end remove access of all users\n\n        // Remove file\n        delete files[_id];\n\n        // Remove file owner\n        delete owners[_id];\n\n        nonce[_identity]++;\n        emit deleteFileEvent(_identity, _id);\n        return true;\n    }\n\n    function deleteFile(bytes32 _id) public returns (bool){\n        return deleteFile(_id, msg.sender);\n    }\n\n    function deleteFileSigned(bytes32 _id, address signer, uint8 v, bytes32 r, bytes32 s) public returns (bool) {\n        bytes32 payloadHash = keccak256(abi.encode(_id, nonce[signer]));\n        address actualSigner = getSigner(payloadHash, signer, v, r, s);\n        return deleteFile(_id, actualSigner);\n    }\n\n\n    function getTotalUsers(bytes32 _file, bytes32 _access_type) public view returns (uint256){\n        address[] memory users = userAccess[_file][_access_type];\n        address user;\n        uint256 count = 0;\n        for (uint i = 0; i < users.length; i++) {\n            user = userAccess[_file][_access_type][i];\n            if (user != address(0) && accessSpecifier[_file][_access_type][user] > now) {\n                count = count.add(1);\n            }\n        }\n        return count;\n    }\n\n    function getAllUsers(bytes32 _file, bytes32 _access_type) public view returns (address[] memory){\n        address[] memory users = userAccess[_file][_access_type];\n        address user;\n        for (uint i = 0; i < users.length; i++) {\n            user = userAccess[_file][_access_type][i];\n            if (accessSpecifier[_file][_access_type][user] <= now) {\n                delete users[i];\n            }\n        }\n        return users;\n    }\n\n\n    event NewShare(\n        address indexed identity,\n        bytes32 indexed file,\n        address indexed user,\n        bytes32 access_type,\n        uint256 validity,\n        uint256 nonce\n    );\n\n    /**\n    * @dev key is encrypted with users public key and stored on a server hash of encrypted key is stored here in smart\n     contract along with its validity\n    * @return bool\n    */\n    function share(address _identity, bytes32[] memory _files, address[] memory _user, bytes32[] memory _access_type, uint256[] memory _validity) internal returns (bool){\n        for (uint j = 0; j < _files.length; j++) {\n            for (uint i = 0; i < _user.length; i++) {\n                require(_identity == owners[_files[j]]);\n                require(_validity[i] != 0, \"Validity must be non zero\");\n                accessSpecifier[_files[j]][_access_type[i]][_user[i]] = now.add(_validity[i]);\n                userAccess[_files[j]][_access_type[i]].push(_user[i]);\n                emit NewShare(_identity, _files[j], _user[i], _access_type[i], _validity[i], nonce[_identity]);\n\n                // Keep track of access types defined for a particular file\n                if (!accessTypes[_files[j]].is_in[_access_type[i]]) {\n                    accessTypes[_files[j]].types.push(_access_type[i]);\n                    accessTypes[_files[j]].is_in[_access_type[i]] = true;\n                }\n\n            }\n        }\n\n        nonce[_identity]++;\n        return true;\n    }\n\n    function share(bytes32[] memory _file, address[] memory _user, bytes32[] memory _access_type, uint256[] memory _validity) public returns (bool){\n        return share(msg.sender, _file, _user, _access_type, _validity);\n    }\n\n\n    function shareSigned(bytes32[] memory _file, address[] memory _user, bytes32[] memory _access_type, uint256[] memory _validity, address signer, uint8 v, bytes32 r, bytes32 s) public returns (bool) {\n        bytes32 payloadHash = keccak256(abi.encode(_file, _user, _access_type, _validity, nonce[signer]));\n        address actualSigner = getSigner(payloadHash, signer, v, r, s);\n        return share(actualSigner, _file, _user, _access_type, _validity);\n    }\n\n    event NewFileUpdate(\n        address indexed identity,\n        bytes32 indexed file,\n        uint256 n,\n        uint256 k,\n        uint256 file_size,\n        bytes indexed ueb\n    );\n\n    function fileUpdate(address _identity, bytes32 _file, uint256 n, uint256 k, uint256 file_size, bytes memory ueb) internal onlyFileOwner(_file, _identity) returns (bool){\n        require(owners[_file] != address(0), \"File does not has an owner\");\n        require(n > k, \"n>k\");\n        require(k > 1, \"k should not be 0\");\n        require(file_size != 0, \"Should not be 0\");\n        files[_file] = File(n, k, file_size, ueb);\n        emit NewFileUpdate(_identity, _file, n, k, file_size, ueb);\n        nonce[_identity]++;\n        return true;\n    }\n\n    function fileUpdate(bytes32 _file, uint256 n, uint256 k, uint256 file_size, bytes memory ueb) public returns (bool){\n        return fileUpdate(msg.sender, _file, n, k, file_size, ueb);\n    }\n\n    function fileUpdateSigned(bytes32 _file, uint256 n, uint256 k, uint256 file_size, bytes memory ueb, address signer, uint8 v, bytes32 r, bytes32 s) public returns (bool){\n        bytes32 payloadHash = keccak256(abi.encode(_file, n, k, file_size, ueb, nonce[signer]));\n        address actualSigner = getSigner(payloadHash, signer, v, r, s);\n        return fileUpdate(actualSigner, _file, n, k, file_size, ueb);\n    }\n\n    event NewDownload(\n        address indexed identity,\n        bytes32 indexed file,\n        uint256 validity,\n        bytes32 access_type\n    );\n\n\n    function download(address _identity, bytes32 _file, bytes32 _access_type) internal returns (uint256){\n        uint256 validity = accessSpecifier[_file][_access_type][_identity];\n        if (_identity == owners[_file]) {\n            validity =  now.add(1000000);\n        } else {\n            require(validity != uint256(0), \"Validity is 0\");\n        }\n        nonce[_identity]++;\n        emit NewDownload(_identity, _file, validity, _access_type);\n        return (validity);\n    }\n\n\n    /**\n    * @dev Fetch ACK hash of user\n    * @return encrypted hash and validity\n    */\n    function download(bytes32 _file, bytes32 _access_type) public returns (uint256){\n        return download(msg.sender, _file, _access_type);\n    }\n\n    function downloadSigned(bytes32 _file, bytes32 _access_type, address signer, uint8 v, bytes32 r, bytes32 s) public returns (uint256) {\n        bytes32 payloadHash = keccak256(abi.encode(_file, _access_type, nonce[signer]));\n        address actualSigner = getSigner(payloadHash, signer, v, r, s);\n        return download(actualSigner, _file, _access_type);\n    }\n\n\n    function IndexOf(address[] memory values, address value) internal pure returns (uint) {\n        uint i = 0;\n        while (values[i] != value) {\n            i++;\n        }\n        return i;\n    }\n\n    event NewUpdateACK(\n        address indexed identity,\n        bytes32 indexed file,\n        address indexed user,\n        bytes32 access_type,\n        uint256 validity\n    );\n\n\n    /**\n    * @dev Update ACK(Access Control Key) validity, it can not be used to change access_type, to change you have to share the\n    file again with desired access type and you may remove the previous access type\n    * @return bool\n    */\n    function updateACK(address _identity, bytes32 _file, address _user, bytes32 _access_type, uint256 _validity) internal onlyFileOwner(_file, _identity) returns (bool){\n        accessSpecifier[_file][_access_type][_user] = now.add(_validity);\n        if (_validity == 0) {\n            delete accessSpecifier[_file][_access_type][_user];\n            uint index = IndexOf(userAccess[_file][_access_type], _user);\n            delete userAccess[_file][_access_type][index];\n        }\n        if (!accessTypes[_file].is_in[_access_type]) {// check if access type is already declared\n            accessTypes[_file].types.push(_access_type);\n            // push the new access type\n            accessTypes[_file].is_in[_access_type] = true;\n        }\n        nonce[_identity]++;\n        emit NewUpdateACK(_identity, _file, _user, _access_type, _validity);\n        return true;\n    }\n\n    function updateACK(bytes32 _file, address _user, bytes32 _access_type, uint256 _validity) public returns (bool){\n        return updateACK(msg.sender, _file, _user, _access_type, _validity);\n    }\n\n    function updateACKSigned(bytes32 _file, address _user, bytes32 _access_type, uint256 _validity, address signer, uint8 v, bytes32 r, bytes32 s) public returns (bool) {\n        bytes32 payloadHash = keccak256(abi.encode(_file, _user, _access_type, _validity, nonce[signer]));\n        address actualSigner = getSigner(payloadHash, signer, v, r, s);\n        return updateACK(actualSigner, _file, _user, _access_type, _validity);\n    }\n\n\n\n    /**\n    * @dev Change file Owner\n    * @return bool\n    */\n    function changeFileOwner(address _identity, bytes32 _file, address _new_owner) internal onlyFileOwner(_file, _identity) returns (bool){\n        require(_new_owner != address(0), \"Invalid address\");\n        owners[_file] = _new_owner;\n        nonce[_identity]++;\n        return true;\n    }\n\n    function changeFileOwner(bytes32 _file, address _new_owner) public returns (bool){\n        return changeFileOwner(msg.sender, _file, _new_owner);\n    }\n\n    function changeOwnerSigned(bytes32 _file, address _new_owner, address signer, uint8 v, bytes32 r, bytes32 s) public returns (bool) {\n        bytes32 payloadHash = keccak256(abi.encode(_file, _new_owner, nonce[signer]));\n        address actualSigner = getSigner(payloadHash, signer, v, r, s);\n        return changeFileOwner(actualSigner, _file, _new_owner);\n    }\n\n\n    /**\n    * @dev this function is the combination of createDID, fileUpdate\n    */\n    function upload(address _identity, bytes32 _file_id, uint256 n, uint256 k, uint256 file_size, bytes memory ueb) internal {\n        createDID(_file_id, _identity);\n        fileUpdate(_identity, _file_id, n, k, file_size, ueb);\n    }\n\n    function upload(bytes32 _file_id, uint256 n, uint256 k, uint256 file_size, bytes memory ueb) public {\n        createDID(_file_id, msg.sender);\n        fileUpdate(msg.sender, _file_id, n, k, file_size, ueb);\n    }\n\n    function uploadSigned(bytes32 _file, uint256 n, uint256 k, uint256 file_size, bytes memory ueb, address signer, uint8 v, bytes32 r, bytes32 s) public {\n        bytes32 payloadHash = keccak256(abi.encode(_file, n, k, file_size, ueb, nonce[signer]));\n        address actualSigner = getSigner(payloadHash, signer, v, r, s);\n        upload(actualSigner, _file, n, k, file_size, ueb);\n    }\n}\n",
  "sourcePath": "/home/saurav/projects/skizzle_smart_contracts/contracts/Skizzle.sol",
  "compiler": {
    "name": "solc",
    "version": "0.5.16+commit.9c3226ce.Emscripten.clang"
  },
  "schemaVersion": "3.1.0",
  "updatedAt": "2020-06-19T08:22:15.567Z",
  "devdoc": {
    "methods": {
      "createDID(bytes32)": {
        "details": "_id will be the file index which is generated by newfang SDK on client side.",
        "return": "bool"
      },
      "download(bytes32,bytes32)": {
        "details": "Fetch ACK hash of user",
        "return": "encrypted hash and validity"
      }
    }
  },
  "userdoc": {
    "methods": {}
  }
}