{
  "contractName": "Skizzle",
  "abi": [
    {
      "anonymous": false,
      "inputs": [
        {
          "indexed": false,
          "internalType": "address",
          "name": "identity",
          "type": "address"
        },
        {
          "indexed": false,
          "internalType": "bytes32",
          "name": "file",
          "type": "bytes32"
        },
        {
          "indexed": false,
          "internalType": "bytes32",
          "name": "doc",
          "type": "bytes32"
        },
        {
          "indexed": false,
          "internalType": "uint256",
          "name": "n",
          "type": "uint256"
        },
        {
          "indexed": false,
          "internalType": "uint256",
          "name": "k",
          "type": "uint256"
        },
        {
          "indexed": false,
          "internalType": "uint256",
          "name": "size",
          "type": "uint256"
        }
      ],
      "name": "create",
      "type": "event"
    },
    {
      "anonymous": false,
      "inputs": [
        {
          "indexed": false,
          "internalType": "address",
          "name": "identity",
          "type": "address"
        },
        {
          "indexed": false,
          "internalType": "bytes32",
          "name": "file",
          "type": "bytes32"
        }
      ],
      "name": "deleteDID",
      "type": "event"
    },
    {
      "anonymous": false,
      "inputs": [
        {
          "indexed": false,
          "internalType": "address",
          "name": "identity",
          "type": "address"
        },
        {
          "indexed": false,
          "internalType": "bytes32",
          "name": "file",
          "type": "bytes32"
        }
      ],
      "name": "read",
      "type": "event"
    },
    {
      "anonymous": false,
      "inputs": [
        {
          "indexed": false,
          "internalType": "address",
          "name": "identity",
          "type": "address"
        },
        {
          "indexed": false,
          "internalType": "bytes32",
          "name": "file",
          "type": "bytes32"
        },
        {
          "indexed": false,
          "internalType": "bytes32",
          "name": "doc",
          "type": "bytes32"
        }
      ],
      "name": "update",
      "type": "event"
    },
    {
      "constant": true,
      "inputs": [
        {
          "internalType": "bytes32",
          "name": "",
          "type": "bytes32"
        }
      ],
      "name": "docs",
      "outputs": [
        {
          "internalType": "address",
          "name": "owner",
          "type": "address"
        },
        {
          "internalType": "bytes",
          "name": "ueb",
          "type": "bytes"
        },
        {
          "internalType": "bytes32",
          "name": "doc",
          "type": "bytes32"
        },
        {
          "internalType": "uint256",
          "name": "n",
          "type": "uint256"
        },
        {
          "internalType": "uint256",
          "name": "k",
          "type": "uint256"
        },
        {
          "internalType": "uint256",
          "name": "size",
          "type": "uint256"
        }
      ],
      "payable": false,
      "stateMutability": "view",
      "type": "function"
    },
    {
      "constant": true,
      "inputs": [
        {
          "internalType": "address",
          "name": "",
          "type": "address"
        }
      ],
      "name": "isNode",
      "outputs": [
        {
          "internalType": "bool",
          "name": "",
          "type": "bool"
        }
      ],
      "payable": false,
      "stateMutability": "view",
      "type": "function"
    },
    {
      "constant": true,
      "inputs": [
        {
          "internalType": "address",
          "name": "",
          "type": "address"
        }
      ],
      "name": "nonce",
      "outputs": [
        {
          "internalType": "uint256",
          "name": "",
          "type": "uint256"
        }
      ],
      "payable": false,
      "stateMutability": "view",
      "type": "function"
    },
    {
      "constant": true,
      "inputs": [],
      "name": "owner",
      "outputs": [
        {
          "internalType": "address",
          "name": "",
          "type": "address"
        }
      ],
      "payable": false,
      "stateMutability": "view",
      "type": "function"
    },
    {
      "constant": false,
      "inputs": [
        {
          "internalType": "address[]",
          "name": "_nodes",
          "type": "address[]"
        }
      ],
      "name": "initialize",
      "outputs": [],
      "payable": false,
      "stateMutability": "nonpayable",
      "type": "function"
    },
    {
      "constant": false,
      "inputs": [
        {
          "internalType": "address",
          "name": "_node",
          "type": "address"
        }
      ],
      "name": "addNode",
      "outputs": [],
      "payable": false,
      "stateMutability": "nonpayable",
      "type": "function"
    },
    {
      "constant": false,
      "inputs": [
        {
          "internalType": "address",
          "name": "_node",
          "type": "address"
        }
      ],
      "name": "deleteNode",
      "outputs": [],
      "payable": false,
      "stateMutability": "nonpayable",
      "type": "function"
    },
    {
      "constant": true,
      "inputs": [
        {
          "internalType": "bytes32",
          "name": "payloadHash",
          "type": "bytes32"
        },
        {
          "internalType": "address",
          "name": "signer",
          "type": "address"
        },
        {
          "internalType": "uint8",
          "name": "v",
          "type": "uint8"
        },
        {
          "internalType": "bytes32",
          "name": "r",
          "type": "bytes32"
        },
        {
          "internalType": "bytes32",
          "name": "s",
          "type": "bytes32"
        }
      ],
      "name": "getSigner",
      "outputs": [
        {
          "internalType": "address",
          "name": "",
          "type": "address"
        }
      ],
      "payable": false,
      "stateMutability": "pure",
      "type": "function"
    },
    {
      "constant": false,
      "inputs": [
        {
          "internalType": "bytes32",
          "name": "_file",
          "type": "bytes32"
        },
        {
          "internalType": "bytes32",
          "name": "_doc",
          "type": "bytes32"
        },
        {
          "internalType": "uint256",
          "name": "_n",
          "type": "uint256"
        },
        {
          "internalType": "uint256",
          "name": "_k",
          "type": "uint256"
        },
        {
          "internalType": "uint256",
          "name": "_size",
          "type": "uint256"
        },
        {
          "internalType": "bytes",
          "name": "_ueb",
          "type": "bytes"
        },
        {
          "internalType": "address",
          "name": "signer",
          "type": "address"
        },
        {
          "internalType": "uint8",
          "name": "v",
          "type": "uint8"
        },
        {
          "internalType": "bytes32",
          "name": "r",
          "type": "bytes32"
        },
        {
          "internalType": "bytes32",
          "name": "s",
          "type": "bytes32"
        }
      ],
      "name": "createSigned",
      "outputs": [],
      "payable": false,
      "stateMutability": "nonpayable",
      "type": "function"
    },
    {
      "constant": false,
      "inputs": [
        {
          "internalType": "bytes32",
          "name": "_file",
          "type": "bytes32"
        },
        {
          "internalType": "address",
          "name": "signer",
          "type": "address"
        },
        {
          "internalType": "uint8",
          "name": "v",
          "type": "uint8"
        },
        {
          "internalType": "bytes32",
          "name": "r",
          "type": "bytes32"
        },
        {
          "internalType": "bytes32",
          "name": "s",
          "type": "bytes32"
        }
      ],
      "name": "readSigned",
      "outputs": [],
      "payable": false,
      "stateMutability": "nonpayable",
      "type": "function"
    },
    {
      "constant": false,
      "inputs": [
        {
          "internalType": "bytes32",
          "name": "_file",
          "type": "bytes32"
        },
        {
          "internalType": "bytes32",
          "name": "_doc",
          "type": "bytes32"
        },
        {
          "internalType": "address",
          "name": "signer",
          "type": "address"
        },
        {
          "internalType": "uint8",
          "name": "v",
          "type": "uint8"
        },
        {
          "internalType": "bytes32",
          "name": "r",
          "type": "bytes32"
        },
        {
          "internalType": "bytes32",
          "name": "s",
          "type": "bytes32"
        }
      ],
      "name": "updateSigned",
      "outputs": [],
      "payable": false,
      "stateMutability": "nonpayable",
      "type": "function"
    },
    {
      "constant": false,
      "inputs": [
        {
          "internalType": "bytes32",
          "name": "_file",
          "type": "bytes32"
        },
        {
          "internalType": "address",
          "name": "signer",
          "type": "address"
        },
        {
          "internalType": "uint8",
          "name": "v",
          "type": "uint8"
        },
        {
          "internalType": "bytes32",
          "name": "r",
          "type": "bytes32"
        },
        {
          "internalType": "bytes32",
          "name": "s",
          "type": "bytes32"
        }
      ],
      "name": "deleteSigned",
      "outputs": [],
      "payable": false,
      "stateMutability": "nonpayable",
      "type": "function"
    }
  ],
  "bytecode": "0x608060405234801561001057600080fd5b5061169e806100206000396000f3fe608060405234801561001057600080fd5b50600436106100b45760003560e01c806370ae92d21161007157806370ae92d2146103e657806371baec421461043e5780638da5cb5b1461056d5780639d95f1cc146105b7578063a224cee7146105fb578063f7e3fe7c146106b3576100b4565b806301750152146100b9578063274a4bfe146101155780632d4ede93146101845780633999e232146101c85780635db27a30146102415780636fca1744146102f0575b600080fd5b6100fb600480360360208110156100cf57600080fd5b81019080803573ffffffffffffffffffffffffffffffffffffffff169060200190929190505050610722565b604051808215151515815260200191505060405180910390f35b610182600480360360a081101561012b57600080fd5b8101908080359060200190929190803573ffffffffffffffffffffffffffffffffffffffff169060200190929190803560ff1690602001909291908035906020019092919080359060200190929190505050610742565b005b6101c66004803603602081101561019a57600080fd5b81019080803573ffffffffffffffffffffffffffffffffffffffff169060200190929190505050610963565b005b61023f600480360360c08110156101de57600080fd5b810190808035906020019092919080359060200190929190803573ffffffffffffffffffffffffffffffffffffffff169060200190929190803560ff1690602001909291908035906020019092919080359060200190929190505050610a18565b005b6102ae600480360360a081101561025757600080fd5b8101908080359060200190929190803573ffffffffffffffffffffffffffffffffffffffff169060200190929190803560ff1690602001909291908035906020019092919080359060200190929190505050610bf8565b604051808273ffffffffffffffffffffffffffffffffffffffff1673ffffffffffffffffffffffffffffffffffffffff16815260200191505060405180910390f35b61031c6004803603602081101561030657600080fd5b8101908080359060200190929190505050610cfd565b604051808773ffffffffffffffffffffffffffffffffffffffff1673ffffffffffffffffffffffffffffffffffffffff16815260200180602001868152602001858152602001848152602001838152602001828103825287818151815260200191508051906020019080838360005b838110156103a657808201518184015260208101905061038b565b50505050905090810190601f1680156103d35780820380516001836020036101000a031916815260200191505b5097505050505050505060405180910390f35b610428600480360360208110156103fc57600080fd5b81019080803573ffffffffffffffffffffffffffffffffffffffff169060200190929190505050610df1565b6040518082815260200191505060405180910390f35b61056b600480360361014081101561045557600080fd5b810190808035906020019092919080359060200190929190803590602001909291908035906020019092919080359060200190929190803590602001906401000000008111156104a457600080fd5b8201836020820111156104b657600080fd5b803590602001918460018302840111640100000000831117156104d857600080fd5b91908080601f016020809104026020016040519081016040528093929190818152602001838380828437600081840152601f19601f820116905080830192505050505050509192919290803573ffffffffffffffffffffffffffffffffffffffff169060200190929190803560ff1690602001909291908035906020019092919080359060200190929190505050610e09565b005b610575611130565b604051808273ffffffffffffffffffffffffffffffffffffffff1673ffffffffffffffffffffffffffffffffffffffff16815260200191505060405180910390f35b6105f9600480360360208110156105cd57600080fd5b81019080803573ffffffffffffffffffffffffffffffffffffffff169060200190929190505050611156565b005b6106b16004803603602081101561061157600080fd5b810190808035906020019064010000000081111561062e57600080fd5b82018360208201111561064057600080fd5b8035906020019184602083028401116401000000008311171561066257600080fd5b919080806020026020016040519081016040528093929190818152602001838360200280828437600081840152601f19601f82011690508083019250505050505050919291929050505061120b565b005b610720600480360360a08110156106c957600080fd5b8101908080359060200190929190803573ffffffffffffffffffffffffffffffffffffffff169060200190929190803560ff16906020019092919080359060200190929190803590602001909291905050506113d4565b005b60356020528060005260406000206000915054906101000a900460ff1681565b84846034600083815260200190815260200160002060000160009054906101000a900473ffffffffffffffffffffffffffffffffffffffff1673ffffffffffffffffffffffffffffffffffffffff168173ffffffffffffffffffffffffffffffffffffffff16146107b257600080fd5b600087603660008973ffffffffffffffffffffffffffffffffffffffff1673ffffffffffffffffffffffffffffffffffffffff1681526020019081526020016000205460405160200180838152602001828152602001925050506040516020818303038152906040528051906020012090506108318188888888610bf8565b5060346000898152602001908152602001600020600080820160006101000a81549073ffffffffffffffffffffffffffffffffffffffff021916905560018201600061087d919061152d565b60028201600090556003820160009055600482016000905560058201600090555050603660008873ffffffffffffffffffffffffffffffffffffffff1673ffffffffffffffffffffffffffffffffffffffff168152602001908152602001600020600081548092919060010191905055507f53da5bb6fb2488b67fc3b382a27cdd1b443b9a5260c981d63b4ab4888a0de7a08789604051808373ffffffffffffffffffffffffffffffffffffffff1673ffffffffffffffffffffffffffffffffffffffff1681526020018281526020019250505060405180910390a15050505050505050565b603360009054906101000a900473ffffffffffffffffffffffffffffffffffffffff1673ffffffffffffffffffffffffffffffffffffffff163373ffffffffffffffffffffffffffffffffffffffff16146109bd57600080fd5b6000603560008373ffffffffffffffffffffffffffffffffffffffff1673ffffffffffffffffffffffffffffffffffffffff16815260200190815260200160002060006101000a81548160ff02191690831515021790555050565b85846034600083815260200190815260200160002060000160009054906101000a900473ffffffffffffffffffffffffffffffffffffffff1673ffffffffffffffffffffffffffffffffffffffff168173ffffffffffffffffffffffffffffffffffffffff1614610a8857600080fd5b60008888603660008a73ffffffffffffffffffffffffffffffffffffffff1673ffffffffffffffffffffffffffffffffffffffff16815260200190815260200160002054604051602001808481526020018381526020018281526020019350505050604051602081830303815290604052805190602001209050610b0f8188888888610bf8565b5087603460008b815260200190815260200160002060020181905550603660008873ffffffffffffffffffffffffffffffffffffffff1673ffffffffffffffffffffffffffffffffffffffff168152602001908152602001600020600081548092919060010191905055507f64ff300490db33ebe938012595e872cf5714c2849c9ae66ef75e758e314bb0fd878a8a604051808473ffffffffffffffffffffffffffffffffffffffff1673ffffffffffffffffffffffffffffffffffffffff168152602001838152602001828152602001935050505060405180910390a1505050505050505050565b6000808660405160200180807f19457468657265756d205369676e6564204d6573736167653a0a333200000000815250601c01828152602001915050604051602081830303815290604052805190602001209050600060018287878760405160008152602001604052604051808581526020018460ff1660ff1681526020018381526020018281526020019450505050506020604051602081039080840390855afa158015610cab573d6000803e3d6000fd5b5050506020604051035190508073ffffffffffffffffffffffffffffffffffffffff168773ffffffffffffffffffffffffffffffffffffffff1614610cef57600080fd5b809250505095945050505050565b60346020528060005260406000206000915090508060000160009054906101000a900473ffffffffffffffffffffffffffffffffffffffff1690806001018054600181600116156101000203166002900480601f016020809104026020016040519081016040528092919081815260200182805460018160011615610100020316600290048015610dcf5780601f10610da457610100808354040283529160200191610dcf565b820191906000526020600020905b815481529060010190602001808311610db257829003601f168201915b5050505050908060020154908060030154908060040154908060050154905086565b60366020528060005260406000206000915090505481565b600073ffffffffffffffffffffffffffffffffffffffff16603460008c815260200190815260200160002060000160009054906101000a900473ffffffffffffffffffffffffffffffffffffffff1673ffffffffffffffffffffffffffffffffffffffff1614610ec4576040517f08c379a00000000000000000000000000000000000000000000000000000000081526004018080602001828103825260218152602001806116496021913960400191505060405180910390fd5b60008a8a8a8a8a603660008b73ffffffffffffffffffffffffffffffffffffffff1673ffffffffffffffffffffffffffffffffffffffff16815260200190815260200160002054604051602001808781526020018681526020018581526020018481526020018381526020018281526020019650505050505050604051602081830303815290604052805190602001209050610f638186868686610bf8565b506040518060c001604052808673ffffffffffffffffffffffffffffffffffffffff1681526020018781526020018b81526020018a815260200189815260200188815250603460008d815260200190815260200160002060008201518160000160006101000a81548173ffffffffffffffffffffffffffffffffffffffff021916908373ffffffffffffffffffffffffffffffffffffffff160217905550602082015181600101908051906020019061101d929190611575565b5060408201518160020155606082015181600301556080820151816004015560a08201518160050155905050603660008673ffffffffffffffffffffffffffffffffffffffff1673ffffffffffffffffffffffffffffffffffffffff168152602001908152602001600020600081548092919060010191905055507fc454824fa47a26d21f32717f7c2efe949d4e65fb518bddf8cd2f1e0a382c2e63858c8c8c8c8c604051808773ffffffffffffffffffffffffffffffffffffffff1673ffffffffffffffffffffffffffffffffffffffff168152602001868152602001858152602001848152602001838152602001828152602001965050505050505060405180910390a15050505050505050505050565b603360009054906101000a900473ffffffffffffffffffffffffffffffffffffffff1681565b603360009054906101000a900473ffffffffffffffffffffffffffffffffffffffff1673ffffffffffffffffffffffffffffffffffffffff163373ffffffffffffffffffffffffffffffffffffffff16146111b057600080fd5b6001603560008373ffffffffffffffffffffffffffffffffffffffff1673ffffffffffffffffffffffffffffffffffffffff16815260200190815260200160002060006101000a81548160ff02191690831515021790555050565b600060019054906101000a900460ff168061122a5750611229611516565b5b8061124157506000809054906101000a900460ff16155b611296576040517f08c379a000000000000000000000000000000000000000000000000000000000815260040180806020018281038252602e81526020018061161b602e913960400191505060405180910390fd5b60008060019054906101000a900460ff1615905080156112e6576001600060016101000a81548160ff02191690831515021790555060016000806101000a81548160ff0219169083151502179055505b33603360006101000a81548173ffffffffffffffffffffffffffffffffffffffff021916908373ffffffffffffffffffffffffffffffffffffffff16021790555060008090505b82518110156113ae5760016035600085848151811061134857fe5b602002602001015173ffffffffffffffffffffffffffffffffffffffff1673ffffffffffffffffffffffffffffffffffffffff16815260200190815260200160002060006101000a81548160ff021916908315150217905550808060010191505061132d565b5080156113d05760008060016101000a81548160ff0219169083151502179055505b5050565b600085603660008773ffffffffffffffffffffffffffffffffffffffff1673ffffffffffffffffffffffffffffffffffffffff1681526020019081526020016000205460405160200180838152602001828152602001925050506040516020818303038152906040528051906020012090506114538186868686610bf8565b50603660008673ffffffffffffffffffffffffffffffffffffffff1673ffffffffffffffffffffffffffffffffffffffff168152602001908152602001600020600081548092919060010191905055507f7caed4526cefa7191f86fb4ed88927bb9fd8ce2e1147f036768e11346f4d1efb8587604051808373ffffffffffffffffffffffffffffffffffffffff1673ffffffffffffffffffffffffffffffffffffffff1681526020018281526020019250505060405180910390a1505050505050565b6000803090506000813b9050600081149250505090565b50805460018160011615610100020316600290046000825580601f106115535750611572565b601f01602090049060005260206000209081019061157191906115f5565b5b50565b828054600181600116156101000203166002900490600052602060002090601f016020900481019282601f106115b657805160ff19168380011785556115e4565b828001600101855582156115e4579182015b828111156115e35782518255916020019190600101906115c8565b5b5090506115f191906115f5565b5090565b61161791905b808211156116135760008160009055506001016115fb565b5090565b9056fe436f6e747261637420696e7374616e63652068617320616c7265616479206265656e20696e697469616c697a65644f776e657220616c726561647920657869737420666f7220746869732066696c65a265627a7a7231582069adc78fb982d6b9625b6afb35cd5ed579b1b0842eb1c1dbf50261edbf85383064736f6c63430005100032",
  "source": "pragma solidity ^0.5;\n\nimport \"./SafeMath.sol\";\nimport \"./Initializable.sol\";\n\ncontract Skizzle is Initializable {\n    address public owner;\n    using SafeMath for uint256;\n\n    // keccak256(storage index) => bytes32 newfang-specific-idbytes\n    mapping(bytes32 => File) public docs;\n    mapping(address => bool) public isNode;\n    mapping(address => uint256) public nonce;\n\n    struct File {\n        address owner;\n        bytes ueb;\n        bytes32 doc;\n        uint256 n;\n        uint256 k;\n        uint256 size;\n    }\n\n    // Modifier to check whether the functions are called by file owners.\n    modifier onlyFileOwner(bytes32 _file, address _identity) {\n        require(_identity == docs[_file].owner);\n        _;\n    }\n\n    // Modifier to check whether then functions are called only by contract owners.\n    modifier onlyOwner() {\n        require(msg.sender == owner);\n        _;\n    }\n\n    // Modifier to check whether functions are called by SNA nodes.\n    modifier onlyNode() {\n        require(isNode[msg.sender], \"Should be called by owner\");\n        _;\n    }\n\n    // Initialize is called when contract is deployed.\n    // It does 2 things:\n    // 1. Set's the contract owner\n    // 2. It adds default nodes to the contract.\n    function initialize(address[] memory _nodes) public initializer {\n        owner = msg.sender;\n        for (uint256 i = 0; i < _nodes.length; i++) {\n            isNode[_nodes[i]] = true;\n        }\n    }\n\n    function addNode(address _node) public onlyOwner {\n        isNode[_node] = true;\n    }\n\n    function deleteNode(address _node) public onlyOwner {\n        isNode[_node] = false;\n    }\n\n    function getSigner(\n        bytes32 payloadHash,\n        address signer,\n        uint8 v,\n        bytes32 r,\n        bytes32 s\n    ) public pure returns (address) {\n        bytes32 messageHash = keccak256(\n            abi.encodePacked(\"\\x19Ethereum Signed Message:\\n32\", payloadHash)\n        );\n        address actualSigner = ecrecover(messageHash, v, r, s);\n        require(signer == actualSigner);\n        return actualSigner;\n    }\n\n    event create(address identity, bytes32 file, bytes32 doc, uint256 n, uint256 k, uint256 size);\n    event read(address identity, bytes32 file);\n    event update(address identity, bytes32 file, bytes32 doc);\n    event deleteDID(address identity, bytes32 file);\n\n    function createSigned(\n        bytes32 _file,\n        bytes32 _doc,\n        uint256 _n,\n        uint256 _k,\n        uint256 _size,\n        bytes memory _ueb,\n        address signer,\n        uint8 v,\n        bytes32 r,\n        bytes32 s\n    ) public {\n        require(\n            docs[_file].owner == address(0),\n            \"Owner already exist for this file\"\n        );\n        bytes32 payloadHash = keccak256(abi.encode(_file, _doc, _n, _k, _size,nonce[signer]));\n        getSigner(payloadHash, signer, v, r, s); // Just to check signature is valid or not.\n        docs[_file] = File(signer,_ueb, _doc, _n, _k, _size);\n        nonce[signer]++;\n        emit create(signer, _file, _doc, _n, _k, _size);\n    }\n\n    // This function does not checks wether the signer has permission to read/download the file or not.\n    // Permission should be checked offline only.\n    // User will sign a transaction and send it to SNA, SNA will verify wether user is having permission or not.\n    // If user has permission then this function will be called.\n    // This functions verifies the email and emit a read event on the file.\n    function readSigned(\n        bytes32 _file,\n        address signer,\n        uint8 v,\n        bytes32 r,\n        bytes32 s\n    ) public {\n        bytes32 payloadHash = keccak256(abi.encode(_file, nonce[signer]));\n        getSigner(payloadHash, signer, v, r, s); // Just to check signature is valid or not.\n        nonce[signer]++;\n        emit read(signer, _file);\n    }\n\n    // This function is used for share and revoke. The DID Document is updated and the merkle root is calculated again and update here.\n    // onlyFileOwner modifier checks whether user has the permission to call the function or not.\n    // It does not checks for signature.\n    // Signature is checked in getSigner function.\n    function updateSigned(\n        bytes32 _file,\n        bytes32 _doc,\n        address signer,\n        uint8 v,\n        bytes32 r,\n        bytes32 s\n    ) onlyFileOwner(_file, signer) public {\n        bytes32 payloadHash = keccak256(abi.encode(_file, _doc, nonce[signer]));\n        getSigner(payloadHash, signer, v, r, s); // Just to check signature is valid or not.\n        docs[_file].doc = _doc;\n        nonce[signer]++;\n        emit update(signer, _file, _doc);\n    }\n\n    function deleteSigned(\n        bytes32 _file,\n        address signer,\n        uint8 v,\n        bytes32 r,\n        bytes32 s\n    ) onlyFileOwner(_file, signer) public {\n        bytes32 payloadHash = keccak256(abi.encode(_file, nonce[signer]));\n        getSigner(payloadHash, signer, v, r, s); // Just to check signature is valid or not.\n        delete docs[_file];\n        nonce[signer]++;\n        emit deleteDID(signer, _file);\n    }\n}\n",
  "sourcePath": "/home/saurav/projects/skizzle_smart_contracts/contracts/Skizzle.sol",
  "compiler": {
    "name": "solc",
    "version": "0.5.16+commit.9c3226ce.Emscripten.clang"
  },
  "schemaVersion": "3.1.0",
  "updatedAt": "2020-12-11T06:19:17.905Z",
  "devdoc": {
    "methods": {}
  },
  "userdoc": {
    "methods": {}
  }
}