{
  "contractName": "Skizzle",
  "abi": [
    {
      "anonymous": false,
      "inputs": [
        {
          "indexed": false,
          "internalType": "address",
          "name": "identity",
          "type": "address"
        },
        {
          "indexed": false,
          "internalType": "bytes32",
          "name": "file",
          "type": "bytes32"
        },
        {
          "indexed": false,
          "internalType": "bytes32",
          "name": "doc",
          "type": "bytes32"
        },
        {
          "indexed": false,
          "internalType": "uint256",
          "name": "size",
          "type": "uint256"
        }
      ],
      "name": "create",
      "type": "event"
    },
    {
      "anonymous": false,
      "inputs": [
        {
          "indexed": false,
          "internalType": "address",
          "name": "identity",
          "type": "address"
        },
        {
          "indexed": false,
          "internalType": "bytes32",
          "name": "file",
          "type": "bytes32"
        }
      ],
      "name": "deleteDID",
      "type": "event"
    },
    {
      "anonymous": false,
      "inputs": [
        {
          "indexed": false,
          "internalType": "address",
          "name": "identity",
          "type": "address"
        },
        {
          "indexed": false,
          "internalType": "bytes32",
          "name": "file",
          "type": "bytes32"
        }
      ],
      "name": "read",
      "type": "event"
    },
    {
      "anonymous": false,
      "inputs": [
        {
          "indexed": false,
          "internalType": "address",
          "name": "identity",
          "type": "address"
        },
        {
          "indexed": false,
          "internalType": "bytes32",
          "name": "file",
          "type": "bytes32"
        },
        {
          "indexed": false,
          "internalType": "bytes32",
          "name": "doc",
          "type": "bytes32"
        }
      ],
      "name": "update",
      "type": "event"
    },
    {
      "constant": true,
      "inputs": [
        {
          "internalType": "bytes32",
          "name": "",
          "type": "bytes32"
        }
      ],
      "name": "docs",
      "outputs": [
        {
          "internalType": "address",
          "name": "owner",
          "type": "address"
        },
        {
          "internalType": "bytes",
          "name": "ueb",
          "type": "bytes"
        },
        {
          "internalType": "bytes32",
          "name": "doc",
          "type": "bytes32"
        },
        {
          "internalType": "uint256",
          "name": "size",
          "type": "uint256"
        }
      ],
      "payable": false,
      "stateMutability": "view",
      "type": "function"
    },
    {
      "constant": true,
      "inputs": [
        {
          "internalType": "address",
          "name": "",
          "type": "address"
        }
      ],
      "name": "isNode",
      "outputs": [
        {
          "internalType": "bool",
          "name": "",
          "type": "bool"
        }
      ],
      "payable": false,
      "stateMutability": "view",
      "type": "function"
    },
    {
      "constant": true,
      "inputs": [
        {
          "internalType": "address",
          "name": "",
          "type": "address"
        },
        {
          "internalType": "uint256",
          "name": "",
          "type": "uint256"
        }
      ],
      "name": "nonce",
      "outputs": [
        {
          "internalType": "bool",
          "name": "",
          "type": "bool"
        }
      ],
      "payable": false,
      "stateMutability": "view",
      "type": "function"
    },
    {
      "constant": true,
      "inputs": [],
      "name": "owner",
      "outputs": [
        {
          "internalType": "address",
          "name": "",
          "type": "address"
        }
      ],
      "payable": false,
      "stateMutability": "view",
      "type": "function"
    },
    {
      "constant": false,
      "inputs": [
        {
          "internalType": "address[]",
          "name": "_nodes",
          "type": "address[]"
        }
      ],
      "name": "initialize",
      "outputs": [],
      "payable": false,
      "stateMutability": "nonpayable",
      "type": "function"
    },
    {
      "constant": false,
      "inputs": [
        {
          "internalType": "address",
          "name": "_node",
          "type": "address"
        }
      ],
      "name": "addNode",
      "outputs": [],
      "payable": false,
      "stateMutability": "nonpayable",
      "type": "function"
    },
    {
      "constant": false,
      "inputs": [
        {
          "internalType": "address",
          "name": "_node",
          "type": "address"
        }
      ],
      "name": "deleteNode",
      "outputs": [],
      "payable": false,
      "stateMutability": "nonpayable",
      "type": "function"
    },
    {
      "constant": true,
      "inputs": [
        {
          "internalType": "bytes32",
          "name": "payloadHash",
          "type": "bytes32"
        },
        {
          "internalType": "address",
          "name": "signer",
          "type": "address"
        },
        {
          "internalType": "uint8",
          "name": "v",
          "type": "uint8"
        },
        {
          "internalType": "bytes32",
          "name": "r",
          "type": "bytes32"
        },
        {
          "internalType": "bytes32",
          "name": "s",
          "type": "bytes32"
        }
      ],
      "name": "getSigner",
      "outputs": [
        {
          "internalType": "address",
          "name": "",
          "type": "address"
        }
      ],
      "payable": false,
      "stateMutability": "pure",
      "type": "function"
    },
    {
      "constant": false,
      "inputs": [
        {
          "internalType": "bytes32",
          "name": "_file",
          "type": "bytes32"
        },
        {
          "internalType": "bytes32",
          "name": "_doc",
          "type": "bytes32"
        },
        {
          "internalType": "uint256",
          "name": "_size",
          "type": "uint256"
        },
        {
          "internalType": "uint256",
          "name": "_nonce",
          "type": "uint256"
        },
        {
          "internalType": "bytes",
          "name": "_ueb",
          "type": "bytes"
        },
        {
          "internalType": "address",
          "name": "signer",
          "type": "address"
        },
        {
          "internalType": "uint8",
          "name": "v",
          "type": "uint8"
        },
        {
          "internalType": "bytes32",
          "name": "r",
          "type": "bytes32"
        },
        {
          "internalType": "bytes32",
          "name": "s",
          "type": "bytes32"
        }
      ],
      "name": "createSigned",
      "outputs": [],
      "payable": false,
      "stateMutability": "nonpayable",
      "type": "function"
    },
    {
      "constant": false,
      "inputs": [
        {
          "internalType": "bytes32",
          "name": "_file",
          "type": "bytes32"
        },
        {
          "internalType": "uint256",
          "name": "_nonce",
          "type": "uint256"
        },
        {
          "internalType": "address",
          "name": "signer",
          "type": "address"
        },
        {
          "internalType": "uint8",
          "name": "v",
          "type": "uint8"
        },
        {
          "internalType": "bytes32",
          "name": "r",
          "type": "bytes32"
        },
        {
          "internalType": "bytes32",
          "name": "s",
          "type": "bytes32"
        }
      ],
      "name": "readSigned",
      "outputs": [],
      "payable": false,
      "stateMutability": "nonpayable",
      "type": "function"
    },
    {
      "constant": false,
      "inputs": [
        {
          "internalType": "bytes32[]",
          "name": "_files",
          "type": "bytes32[]"
        },
        {
          "internalType": "bytes32[]",
          "name": "_docs",
          "type": "bytes32[]"
        },
        {
          "internalType": "uint256",
          "name": "_nonce",
          "type": "uint256"
        },
        {
          "internalType": "address",
          "name": "signer",
          "type": "address"
        },
        {
          "internalType": "uint8",
          "name": "v",
          "type": "uint8"
        },
        {
          "internalType": "bytes32",
          "name": "r",
          "type": "bytes32"
        },
        {
          "internalType": "bytes32",
          "name": "s",
          "type": "bytes32"
        }
      ],
      "name": "updateSigned",
      "outputs": [],
      "payable": false,
      "stateMutability": "nonpayable",
      "type": "function"
    },
    {
      "constant": false,
      "inputs": [
        {
          "internalType": "bytes32",
          "name": "_file",
          "type": "bytes32"
        },
        {
          "internalType": "uint256",
          "name": "_nonce",
          "type": "uint256"
        },
        {
          "internalType": "address",
          "name": "signer",
          "type": "address"
        },
        {
          "internalType": "uint8",
          "name": "v",
          "type": "uint8"
        },
        {
          "internalType": "bytes32",
          "name": "r",
          "type": "bytes32"
        },
        {
          "internalType": "bytes32",
          "name": "s",
          "type": "bytes32"
        }
      ],
      "name": "deleteSigned",
      "outputs": [],
      "payable": false,
      "stateMutability": "nonpayable",
      "type": "function"
    }
  ],
  "bytecode": "0x608060405234801561001057600080fd5b50611bc4806100206000396000f3fe608060405234801561001057600080fd5b50600436106100b35760003560e01c80636fca1744116100715780636fca17441461053c57806389f09318146106245780638da5cb5b1461069d5780639d95f1cc146106e7578063a224cee71461072b578063e8b1a9b2146107e3576100b3565b8062e2f273146100b857806301750152146101dd57806317ea1d55146102395780632d4ede93146103d057806349c79763146104145780635db27a301461048d575b600080fd5b6101db60048036036101208110156100cf57600080fd5b81019080803590602001909291908035906020019092919080359060200190929190803590602001909291908035906020019064010000000081111561011457600080fd5b82018360208201111561012657600080fd5b8035906020019184600183028401116401000000008311171561014857600080fd5b91908080601f016020809104026020016040519081016040528093929190818152602001838380828437600081840152601f19601f820116905080830192505050505050509192919290803573ffffffffffffffffffffffffffffffffffffffff169060200190929190803560ff1690602001909291908035906020019092919080359060200190929190505050610849565b005b61021f600480360360208110156101f357600080fd5b81019080803573ffffffffffffffffffffffffffffffffffffffff169060200190929190505050610bdb565b604051808215151515815260200191505060405180910390f35b6103ce600480360360e081101561024f57600080fd5b810190808035906020019064010000000081111561026c57600080fd5b82018360208201111561027e57600080fd5b803590602001918460208302840111640100000000831117156102a057600080fd5b919080806020026020016040519081016040528093929190818152602001838360200280828437600081840152601f19601f8201169050808301925050505050505091929192908035906020019064010000000081111561030057600080fd5b82018360208201111561031257600080fd5b8035906020019184602083028401116401000000008311171561033457600080fd5b919080806020026020016040519081016040528093929190818152602001838360200280828437600081840152601f19601f82011690508083019250505050505050919291929080359060200190929190803573ffffffffffffffffffffffffffffffffffffffff169060200190929190803560ff1690602001909291908035906020019092919080359060200190929190505050610bfb565b005b610412600480360360208110156103e657600080fd5b81019080803573ffffffffffffffffffffffffffffffffffffffff16906020019092919050505061101a565b005b61048b600480360360c081101561042a57600080fd5b810190808035906020019092919080359060200190929190803573ffffffffffffffffffffffffffffffffffffffff169060200190929190803560ff16906020019092919080359060200190929190803590602001909291905050506110cf565b005b6104fa600480360360a08110156104a357600080fd5b8101908080359060200190929190803573ffffffffffffffffffffffffffffffffffffffff169060200190929190803560ff16906020019092919080359060200190929190803590602001909291905050506112be565b604051808273ffffffffffffffffffffffffffffffffffffffff1673ffffffffffffffffffffffffffffffffffffffff16815260200191505060405180910390f35b6105686004803603602081101561055257600080fd5b81019080803590602001909291905050506113c3565b604051808573ffffffffffffffffffffffffffffffffffffffff1673ffffffffffffffffffffffffffffffffffffffff16815260200180602001848152602001838152602001828103825285818151815260200191508051906020019080838360005b838110156105e65780820151818401526020810190506105cb565b50505050905090810190601f1680156106135780820380516001836020036101000a031916815260200191505b509550505050505060405180910390f35b61069b600480360360c081101561063a57600080fd5b810190808035906020019092919080359060200190929190803573ffffffffffffffffffffffffffffffffffffffff169060200190929190803560ff16906020019092919080359060200190929190803590602001909291905050506114ab565b005b6106a5611769565b604051808273ffffffffffffffffffffffffffffffffffffffff1673ffffffffffffffffffffffffffffffffffffffff16815260200191505060405180910390f35b610729600480360360208110156106fd57600080fd5b81019080803573ffffffffffffffffffffffffffffffffffffffff16906020019092919050505061178f565b005b6107e16004803603602081101561074157600080fd5b810190808035906020019064010000000081111561075e57600080fd5b82018360208201111561077057600080fd5b8035906020019184602083028401116401000000008311171561079257600080fd5b919080806020026020016040519081016040528093929190818152602001838360200280828437600081840152601f19601f820116905080830192505050505050509192919290505050611844565b005b61082f600480360360408110156107f957600080fd5b81019080803573ffffffffffffffffffffffffffffffffffffffff16906020019092919080359060200190929190505050611a0d565b604051808215151515815260200191505060405180910390f35b603660008573ffffffffffffffffffffffffffffffffffffffff1673ffffffffffffffffffffffffffffffffffffffff168152602001908152602001600020600087815260200190815260200160002060009054906101000a900460ff161561091a576040517f08c379a00000000000000000000000000000000000000000000000000000000081526004018080602001828103825260118152602001807f4e6f6e6520616c7265616479207573656400000000000000000000000000000081525060200191505060405180910390fd5b600073ffffffffffffffffffffffffffffffffffffffff16603460008b815260200190815260200160002060000160009054906101000a900473ffffffffffffffffffffffffffffffffffffffff1673ffffffffffffffffffffffffffffffffffffffff16146109d5576040517f08c379a0000000000000000000000000000000000000000000000000000000008152600401808060200182810382526021815260200180611b6f6021913960400191505060405180910390fd5b60008989898960405160200180858152602001848152602001838152602001828152602001945050505050604051602081830303815290604052805190602001209050610a2581868686866112be565b5060405180608001604052808673ffffffffffffffffffffffffffffffffffffffff1681526020018781526020018a815260200189815250603460008c815260200190815260200160002060008201518160000160006101000a81548173ffffffffffffffffffffffffffffffffffffffff021916908373ffffffffffffffffffffffffffffffffffffffff1602179055506020820151816001019080519060200190610ad3929190611a53565b5060408201518160020155606082015181600301559050506001603660008773ffffffffffffffffffffffffffffffffffffffff1673ffffffffffffffffffffffffffffffffffffffff168152602001908152602001600020600089815260200190815260200160002060006101000a81548160ff0219169083151502179055507fe7fb71b86ebdcfa9c02393cd15d69affb76770176f01125d50f9d125aeef68fd858b8b8b604051808573ffffffffffffffffffffffffffffffffffffffff1673ffffffffffffffffffffffffffffffffffffffff16815260200184815260200183815260200182815260200194505050505060405180910390a150505050505050505050565b60356020528060005260406000206000915054906101000a900460ff1681565b868460008090505b8251811015610c9a5760346000848381518110610c1c57fe5b6020026020010151815260200190815260200160002060000160009054906101000a900473ffffffffffffffffffffffffffffffffffffffff1673ffffffffffffffffffffffffffffffffffffffff168273ffffffffffffffffffffffffffffffffffffffff1614610c8d57600080fd5b8080600101915050610c03565b50603660008773ffffffffffffffffffffffffffffffffffffffff1673ffffffffffffffffffffffffffffffffffffffff168152602001908152602001600020600088815260200190815260200160002060009054906101000a900460ff1615610d6c576040517f08c379a00000000000000000000000000000000000000000000000000000000081526004018080602001828103825260118152602001807f4e6f6e6520616c7265616479207573656400000000000000000000000000000081525060200191505060405180910390fd5b8751895114610de3576040517f08c379a00000000000000000000000000000000000000000000000000000000081526004018080602001828103825260158152602001807f4c656e67746820646f6573206e6f74206d61746368000000000000000000000081525060200191505060405180910390fd5b6000898989604051602001808060200180602001848152602001838103835286818151815260200191508051906020019060200280838360005b83811015610e38578082015181840152602081019050610e1d565b50505050905001838103825285818151815260200191508051906020019060200280838360005b83811015610e7a578082015181840152602081019050610e5f565b5050505090500195505050505050604051602081830303815290604052805190602001209050610ead81888888886112be565b5060008090505b8a51811015610fa457898181518110610ec957fe5b6020026020010151603460008d8481518110610ee157fe5b60200260200101518152602001908152602001600020600201819055507f64ff300490db33ebe938012595e872cf5714c2849c9ae66ef75e758e314bb0fd888c8381518110610f2c57fe5b60200260200101518c8481518110610f4057fe5b6020026020010151604051808473ffffffffffffffffffffffffffffffffffffffff1673ffffffffffffffffffffffffffffffffffffffff168152602001838152602001828152602001935050505060405180910390a18080600101915050610eb4565b506001603660008973ffffffffffffffffffffffffffffffffffffffff1673ffffffffffffffffffffffffffffffffffffffff16815260200190815260200160002060008a815260200190815260200160002060006101000a81548160ff02191690831515021790555050505050505050505050565b603360009054906101000a900473ffffffffffffffffffffffffffffffffffffffff1673ffffffffffffffffffffffffffffffffffffffff163373ffffffffffffffffffffffffffffffffffffffff161461107457600080fd5b6000603560008373ffffffffffffffffffffffffffffffffffffffff1673ffffffffffffffffffffffffffffffffffffffff16815260200190815260200160002060006101000a81548160ff02191690831515021790555050565b603660008573ffffffffffffffffffffffffffffffffffffffff1673ffffffffffffffffffffffffffffffffffffffff168152602001908152602001600020600086815260200190815260200160002060009054906101000a900460ff16156111a0576040517f08c379a00000000000000000000000000000000000000000000000000000000081526004018080602001828103825260118152602001807f4e6f6e6520616c7265616479207573656400000000000000000000000000000081525060200191505060405180910390fd5b6000868660405160200180838152602001828152602001925050506040516020818303038152906040528051906020012090506111e081868686866112be565b506001603660008773ffffffffffffffffffffffffffffffffffffffff1673ffffffffffffffffffffffffffffffffffffffff168152602001908152602001600020600088815260200190815260200160002060006101000a81548160ff0219169083151502179055507f7caed4526cefa7191f86fb4ed88927bb9fd8ce2e1147f036768e11346f4d1efb8588604051808373ffffffffffffffffffffffffffffffffffffffff1673ffffffffffffffffffffffffffffffffffffffff1681526020018281526020019250505060405180910390a150505050505050565b6000808660405160200180807f19457468657265756d205369676e6564204d6573736167653a0a333200000000815250601c01828152602001915050604051602081830303815290604052805190602001209050600060018287878760405160008152602001604052604051808581526020018460ff1660ff1681526020018381526020018281526020019450505050506020604051602081039080840390855afa158015611371573d6000803e3d6000fd5b5050506020604051035190508073ffffffffffffffffffffffffffffffffffffffff168773ffffffffffffffffffffffffffffffffffffffff16146113b557600080fd5b809250505095945050505050565b60346020528060005260406000206000915090508060000160009054906101000a900473ffffffffffffffffffffffffffffffffffffffff1690806001018054600181600116156101000203166002900480601f0160208091040260200160405190810160405280929190818152602001828054600181600116156101000203166002900480156114955780601f1061146a57610100808354040283529160200191611495565b820191906000526020600020905b81548152906001019060200180831161147857829003601f168201915b5050505050908060020154908060030154905084565b85846034600083815260200190815260200160002060000160009054906101000a900473ffffffffffffffffffffffffffffffffffffffff1673ffffffffffffffffffffffffffffffffffffffff168173ffffffffffffffffffffffffffffffffffffffff161461151b57600080fd5b603660008773ffffffffffffffffffffffffffffffffffffffff1673ffffffffffffffffffffffffffffffffffffffff168152602001908152602001600020600088815260200190815260200160002060009054906101000a900460ff16156115ec576040517f08c379a00000000000000000000000000000000000000000000000000000000081526004018080602001828103825260118152602001807f4e6f6e6520616c7265616479207573656400000000000000000000000000000081525060200191505060405180910390fd5b60008888604051602001808381526020018281526020019250505060405160208183030381529060405280519060200120905061162c81888888886112be565b50603460008a8152602001908152602001600020600080820160006101000a81549073ffffffffffffffffffffffffffffffffffffffff02191690556001820160006116789190611ad3565b6002820160009055600382016000905550506001603660008973ffffffffffffffffffffffffffffffffffffffff1673ffffffffffffffffffffffffffffffffffffffff16815260200190815260200160002060008a815260200190815260200160002060006101000a81548160ff0219169083151502179055507f53da5bb6fb2488b67fc3b382a27cdd1b443b9a5260c981d63b4ab4888a0de7a0878a604051808373ffffffffffffffffffffffffffffffffffffffff1673ffffffffffffffffffffffffffffffffffffffff1681526020018281526020019250505060405180910390a1505050505050505050565b603360009054906101000a900473ffffffffffffffffffffffffffffffffffffffff1681565b603360009054906101000a900473ffffffffffffffffffffffffffffffffffffffff1673ffffffffffffffffffffffffffffffffffffffff163373ffffffffffffffffffffffffffffffffffffffff16146117e957600080fd5b6001603560008373ffffffffffffffffffffffffffffffffffffffff1673ffffffffffffffffffffffffffffffffffffffff16815260200190815260200160002060006101000a81548160ff02191690831515021790555050565b600060019054906101000a900460ff16806118635750611862611a3c565b5b8061187a57506000809054906101000a900460ff16155b6118cf576040517f08c379a000000000000000000000000000000000000000000000000000000000815260040180806020018281038252602e815260200180611b41602e913960400191505060405180910390fd5b60008060019054906101000a900460ff16159050801561191f576001600060016101000a81548160ff02191690831515021790555060016000806101000a81548160ff0219169083151502179055505b33603360006101000a81548173ffffffffffffffffffffffffffffffffffffffff021916908373ffffffffffffffffffffffffffffffffffffffff16021790555060008090505b82518110156119e75760016035600085848151811061198157fe5b602002602001015173ffffffffffffffffffffffffffffffffffffffff1673ffffffffffffffffffffffffffffffffffffffff16815260200190815260200160002060006101000a81548160ff0219169083151502179055508080600101915050611966565b508015611a095760008060016101000a81548160ff0219169083151502179055505b5050565b60366020528160005260406000206020528060005260406000206000915091509054906101000a900460ff1681565b6000803090506000813b9050600081149250505090565b828054600181600116156101000203166002900490600052602060002090601f016020900481019282601f10611a9457805160ff1916838001178555611ac2565b82800160010185558215611ac2579182015b82811115611ac1578251825591602001919060010190611aa6565b5b509050611acf9190611b1b565b5090565b50805460018160011615610100020316600290046000825580601f10611af95750611b18565b601f016020900490600052602060002090810190611b179190611b1b565b5b50565b611b3d91905b80821115611b39576000816000905550600101611b21565b5090565b9056fe436f6e747261637420696e7374616e63652068617320616c7265616479206265656e20696e697469616c697a65644f776e657220616c726561647920657869737420666f7220746869732066696c65a265627a7a723158200087487ab319369204ec8c58665d45c99717fc542bf4bcc1292db35fc055b67864736f6c63430005100032",
  "source": "pragma solidity ^0.5;\n\nimport \"./SafeMath.sol\";\nimport \"./Initializable.sol\";\n\ncontract Skizzle is Initializable {\n    address public owner;\n    using SafeMath for uint256;\n\n    // keccak256(storage index) => bytes32 newfang-specific-idbytes\n    mapping(bytes32 => File) public docs;\n    mapping(address => bool) public isNode;\n    mapping(address => mapping(uint256 => bool)) public nonce;\n\n    struct File {\n        address owner;\n        bytes ueb;\n        bytes32 doc;\n        uint256 size;\n    }\n\n    // Modifier to check whether the functions are called by file owner.\n    modifier onlyFileOwner(bytes32 _file, address _identity) {\n        require(_identity == docs[_file].owner);\n        _;\n    }\n\n    // Modifier to check whether the functions are called by file owner(Multiple File)\n    modifier onlyFilesOwner(bytes32[] memory _files, address _identity) {\n        for (uint i = 0; i < _files.length; i++) {\n            require(_identity == docs[_files[i]].owner);\n        }\n        _;\n    }\n\n    // Modifier to check whether then functions are called only by contract owners.\n    modifier onlyOwner() {\n        require(msg.sender == owner);\n        _;\n    }\n\n    // Modifier to check whether functions are called by SNA nodes.\n    modifier onlyNode() {\n        require(isNode[msg.sender], \"Should be called by owner\");\n        _;\n    }\n\n    // Initialize is called when contract is deployed.\n    // It does 2 things:\n    // 1. Set's the contract owner\n    // 2. It adds default nodes to the contract.\n    function initialize(address[] memory _nodes) public initializer {\n        owner = msg.sender;\n        for (uint256 i = 0; i < _nodes.length; i++) {\n            isNode[_nodes[i]] = true;\n        }\n    }\n\n    function addNode(address _node) public onlyOwner {\n        isNode[_node] = true;\n    }\n\n    function deleteNode(address _node) public onlyOwner {\n        isNode[_node] = false;\n    }\n\n    function getSigner(\n        bytes32 payloadHash,\n        address signer,\n        uint8 v,\n        bytes32 r,\n        bytes32 s\n    ) public pure returns (address) {\n        bytes32 messageHash = keccak256(\n            abi.encodePacked(\"\\x19Ethereum Signed Message:\\n32\", payloadHash)\n        );\n        address actualSigner = ecrecover(messageHash, v, r, s);\n        require(signer == actualSigner);\n        return actualSigner;\n    }\n\n    event create(address identity, bytes32 file, bytes32 doc, uint256 size);\n    event read(address identity, bytes32 file);\n    event update(address identity, bytes32 file, bytes32 doc);\n    event deleteDID(address identity, bytes32 file);\n\n    function createSigned(\n        bytes32 _file,\n        bytes32 _doc,\n        uint256 _size,\n        uint256 _nonce,\n        bytes memory _ueb,\n        address signer,\n        uint8 v,\n        bytes32 r,\n        bytes32 s\n    ) public {\n        require(!nonce[signer][_nonce], \"None already used\");\n        require(\n            docs[_file].owner == address(0),\n            \"Owner already exist for this file\"\n        );\n        bytes32 payloadHash = keccak256(abi.encode(_file, _doc, _size, _nonce));\n        getSigner(payloadHash, signer, v, r, s);\n        // Just to check signature is valid or not.\n        docs[_file] = File(signer, _ueb, _doc, _size);\n        nonce[signer][_nonce] = true;\n        emit create(signer, _file, _doc, _size);\n    }\n\n    // This function does not checks wether the signer has permission to read/download the file or not.\n    // Permission should be checked offline only.\n    // User will sign a transaction and send it to SNA, SNA will verify wether user is having permission or not.\n    // If user has permission then this function will be called.\n    // This functions verifies the email and emit a read event on the file.\n    function readSigned(\n        bytes32 _file,\n        uint256 _nonce,\n        address signer,\n        uint8 v,\n        bytes32 r,\n        bytes32 s\n    ) public {\n        require(!nonce[signer][_nonce], \"None already used\");\n        bytes32 payloadHash = keccak256(abi.encode(_file, _nonce));\n        getSigner(payloadHash, signer, v, r, s);\n        // Just to check signature is valid or not.\n        nonce[signer][_nonce] = true;\n        emit read(signer, _file);\n    }\n\n    // This function is used for share and revoke. The DID Document is updated and the merkle root is calculated again and update here.\n    // onlyFileOwner modifier checks whether user has the permission to call the function or not.\n    // It does not checks for signature.\n    // Signature is checked in getSigner function.\n    function updateSigned(\n        bytes32[] memory _files,\n        bytes32[] memory _docs,\n        uint256 _nonce,\n        address signer,\n        uint8 v,\n        bytes32 r,\n        bytes32 s\n    ) public onlyFilesOwner(_files, signer) {\n        require(!nonce[signer][_nonce], \"None already used\");\n        require(_files.length == _docs.length, \"Length does not match\");\n        // Just to check signature is valid or not.\n        bytes32 payloadHash = keccak256(abi.encode(_files, _docs, _nonce));\n        getSigner(payloadHash, signer, v, r, s);\n        for (uint i = 0; i < _files.length; i++) {\n            // Check weather signer is the owner of the file.\n            docs[_files[i]].doc = _docs[i];\n            emit update(signer, _files[i], _docs[i]);\n        }\n        nonce[signer][_nonce] = true;\n    }\n\n    function deleteSigned(\n        bytes32 _file,\n        uint256 _nonce,\n        address signer,\n        uint8 v,\n        bytes32 r,\n        bytes32 s\n    ) onlyFileOwner(_file, signer) public {\n        require(!nonce[signer][_nonce], \"None already used\");\n        bytes32 payloadHash = keccak256(abi.encode(_file, _nonce));\n        getSigner(payloadHash, signer, v, r, s);\n        // Just to check signature is valid or not.\n        delete docs[_file];\n        nonce[signer][_nonce] = true;\n        emit deleteDID(signer, _file);\n    }\n}\n",
  "sourcePath": "/home/saurav/projects/skizzle_smart_contracts/contracts/Skizzle.sol",
  "compiler": {
    "name": "solc",
    "version": "0.5.16+commit.9c3226ce.Emscripten.clang"
  },
  "schemaVersion": "3.1.0",
  "updatedAt": "2021-01-19T14:42:53.231Z",
  "devdoc": {
    "methods": {}
  },
  "userdoc": {
    "methods": {}
  }
}