{
  "contractName": "Skizzle",
  "abi": [
    {
      "anonymous": false,
      "inputs": [
        {
          "indexed": false,
          "internalType": "address",
          "name": "identity",
          "type": "address"
        },
        {
          "indexed": false,
          "internalType": "bytes32",
          "name": "file",
          "type": "bytes32"
        },
        {
          "indexed": false,
          "internalType": "bytes32",
          "name": "doc",
          "type": "bytes32"
        },
        {
          "indexed": false,
          "internalType": "uint256",
          "name": "n",
          "type": "uint256"
        },
        {
          "indexed": false,
          "internalType": "uint256",
          "name": "k",
          "type": "uint256"
        },
        {
          "indexed": false,
          "internalType": "uint256",
          "name": "size",
          "type": "uint256"
        }
      ],
      "name": "create",
      "type": "event"
    },
    {
      "anonymous": false,
      "inputs": [
        {
          "indexed": false,
          "internalType": "address",
          "name": "identity",
          "type": "address"
        },
        {
          "indexed": false,
          "internalType": "bytes32",
          "name": "file",
          "type": "bytes32"
        }
      ],
      "name": "deleteDID",
      "type": "event"
    },
    {
      "anonymous": false,
      "inputs": [
        {
          "indexed": false,
          "internalType": "address",
          "name": "identity",
          "type": "address"
        },
        {
          "indexed": false,
          "internalType": "bytes32",
          "name": "file",
          "type": "bytes32"
        }
      ],
      "name": "read",
      "type": "event"
    },
    {
      "anonymous": false,
      "inputs": [
        {
          "indexed": false,
          "internalType": "address",
          "name": "identity",
          "type": "address"
        },
        {
          "indexed": false,
          "internalType": "bytes32",
          "name": "file",
          "type": "bytes32"
        },
        {
          "indexed": false,
          "internalType": "bytes32",
          "name": "doc",
          "type": "bytes32"
        }
      ],
      "name": "update",
      "type": "event"
    },
    {
      "constant": true,
      "inputs": [
        {
          "internalType": "bytes32",
          "name": "",
          "type": "bytes32"
        }
      ],
      "name": "docs",
      "outputs": [
        {
          "internalType": "address",
          "name": "owner",
          "type": "address"
        },
        {
          "internalType": "bytes",
          "name": "ueb",
          "type": "bytes"
        },
        {
          "internalType": "bytes32",
          "name": "doc",
          "type": "bytes32"
        },
        {
          "internalType": "uint256",
          "name": "n",
          "type": "uint256"
        },
        {
          "internalType": "uint256",
          "name": "k",
          "type": "uint256"
        },
        {
          "internalType": "uint256",
          "name": "size",
          "type": "uint256"
        }
      ],
      "payable": false,
      "stateMutability": "view",
      "type": "function"
    },
    {
      "constant": true,
      "inputs": [
        {
          "internalType": "address",
          "name": "",
          "type": "address"
        }
      ],
      "name": "isNode",
      "outputs": [
        {
          "internalType": "bool",
          "name": "",
          "type": "bool"
        }
      ],
      "payable": false,
      "stateMutability": "view",
      "type": "function"
    },
    {
      "constant": true,
      "inputs": [
        {
          "internalType": "address",
          "name": "",
          "type": "address"
        }
      ],
      "name": "nonce",
      "outputs": [
        {
          "internalType": "uint256",
          "name": "",
          "type": "uint256"
        }
      ],
      "payable": false,
      "stateMutability": "view",
      "type": "function"
    },
    {
      "constant": true,
      "inputs": [],
      "name": "owner",
      "outputs": [
        {
          "internalType": "address",
          "name": "",
          "type": "address"
        }
      ],
      "payable": false,
      "stateMutability": "view",
      "type": "function"
    },
    {
      "constant": false,
      "inputs": [
        {
          "internalType": "address[]",
          "name": "_nodes",
          "type": "address[]"
        }
      ],
      "name": "initialize",
      "outputs": [],
      "payable": false,
      "stateMutability": "nonpayable",
      "type": "function"
    },
    {
      "constant": false,
      "inputs": [
        {
          "internalType": "address",
          "name": "_node",
          "type": "address"
        }
      ],
      "name": "addNode",
      "outputs": [],
      "payable": false,
      "stateMutability": "nonpayable",
      "type": "function"
    },
    {
      "constant": false,
      "inputs": [
        {
          "internalType": "address",
          "name": "_node",
          "type": "address"
        }
      ],
      "name": "deleteNode",
      "outputs": [],
      "payable": false,
      "stateMutability": "nonpayable",
      "type": "function"
    },
    {
      "constant": true,
      "inputs": [
        {
          "internalType": "bytes32",
          "name": "payloadHash",
          "type": "bytes32"
        },
        {
          "internalType": "address",
          "name": "signer",
          "type": "address"
        },
        {
          "internalType": "uint8",
          "name": "v",
          "type": "uint8"
        },
        {
          "internalType": "bytes32",
          "name": "r",
          "type": "bytes32"
        },
        {
          "internalType": "bytes32",
          "name": "s",
          "type": "bytes32"
        }
      ],
      "name": "getSigner",
      "outputs": [
        {
          "internalType": "address",
          "name": "",
          "type": "address"
        }
      ],
      "payable": false,
      "stateMutability": "pure",
      "type": "function"
    },
    {
      "constant": false,
      "inputs": [
        {
          "internalType": "bytes32",
          "name": "_file",
          "type": "bytes32"
        },
        {
          "internalType": "bytes32",
          "name": "_doc",
          "type": "bytes32"
        },
        {
          "internalType": "uint256",
          "name": "_n",
          "type": "uint256"
        },
        {
          "internalType": "uint256",
          "name": "_k",
          "type": "uint256"
        },
        {
          "internalType": "uint256",
          "name": "_size",
          "type": "uint256"
        },
        {
          "internalType": "bytes",
          "name": "_ueb",
          "type": "bytes"
        },
        {
          "internalType": "address",
          "name": "signer",
          "type": "address"
        },
        {
          "internalType": "uint8",
          "name": "v",
          "type": "uint8"
        },
        {
          "internalType": "bytes32",
          "name": "r",
          "type": "bytes32"
        },
        {
          "internalType": "bytes32",
          "name": "s",
          "type": "bytes32"
        }
      ],
      "name": "createSigned",
      "outputs": [],
      "payable": false,
      "stateMutability": "nonpayable",
      "type": "function"
    },
    {
      "constant": false,
      "inputs": [
        {
          "internalType": "bytes32",
          "name": "_file",
          "type": "bytes32"
        },
        {
          "internalType": "address",
          "name": "signer",
          "type": "address"
        },
        {
          "internalType": "uint8",
          "name": "v",
          "type": "uint8"
        },
        {
          "internalType": "bytes32",
          "name": "r",
          "type": "bytes32"
        },
        {
          "internalType": "bytes32",
          "name": "s",
          "type": "bytes32"
        }
      ],
      "name": "readSigned",
      "outputs": [],
      "payable": false,
      "stateMutability": "nonpayable",
      "type": "function"
    },
    {
      "constant": false,
      "inputs": [
        {
          "internalType": "bytes32[]",
          "name": "_files",
          "type": "bytes32[]"
        },
        {
          "internalType": "bytes32[]",
          "name": "_docs",
          "type": "bytes32[]"
        },
        {
          "internalType": "address",
          "name": "signer",
          "type": "address"
        },
        {
          "internalType": "uint8",
          "name": "v",
          "type": "uint8"
        },
        {
          "internalType": "bytes32",
          "name": "r",
          "type": "bytes32"
        },
        {
          "internalType": "bytes32",
          "name": "s",
          "type": "bytes32"
        }
      ],
      "name": "updateSigned",
      "outputs": [],
      "payable": false,
      "stateMutability": "nonpayable",
      "type": "function"
    },
    {
      "constant": false,
      "inputs": [
        {
          "internalType": "bytes32",
          "name": "_file",
          "type": "bytes32"
        },
        {
          "internalType": "address",
          "name": "signer",
          "type": "address"
        },
        {
          "internalType": "uint8",
          "name": "v",
          "type": "uint8"
        },
        {
          "internalType": "bytes32",
          "name": "r",
          "type": "bytes32"
        },
        {
          "internalType": "bytes32",
          "name": "s",
          "type": "bytes32"
        }
      ],
      "name": "deleteSigned",
      "outputs": [],
      "payable": false,
      "stateMutability": "nonpayable",
      "type": "function"
    }
  ],
  "bytecode": "0x608060405234801561001057600080fd5b50611942806100206000396000f3fe608060405234801561001057600080fd5b50600436106100b45760003560e01c806371baec421161007157806371baec42146103c55780638da5cb5b146104f45780639d95f1cc1461053e578063a224cee714610582578063d9e8cbbe1461063a578063f7e3fe7c146107c7576100b4565b806301750152146100b9578063274a4bfe146101155780632d4ede93146101845780635db27a30146101c85780636fca17441461027757806370ae92d21461036d575b600080fd5b6100fb600480360360208110156100cf57600080fd5b81019080803573ffffffffffffffffffffffffffffffffffffffff169060200190929190505050610836565b604051808215151515815260200191505060405180910390f35b610182600480360360a081101561012b57600080fd5b8101908080359060200190929190803573ffffffffffffffffffffffffffffffffffffffff169060200190929190803560ff1690602001909291908035906020019092919080359060200190929190505050610856565b005b6101c66004803603602081101561019a57600080fd5b81019080803573ffffffffffffffffffffffffffffffffffffffff169060200190929190505050610a77565b005b610235600480360360a08110156101de57600080fd5b8101908080359060200190929190803573ffffffffffffffffffffffffffffffffffffffff169060200190929190803560ff1690602001909291908035906020019092919080359060200190929190505050610b2c565b604051808273ffffffffffffffffffffffffffffffffffffffff1673ffffffffffffffffffffffffffffffffffffffff16815260200191505060405180910390f35b6102a36004803603602081101561028d57600080fd5b8101908080359060200190929190505050610c31565b604051808773ffffffffffffffffffffffffffffffffffffffff1673ffffffffffffffffffffffffffffffffffffffff16815260200180602001868152602001858152602001848152602001838152602001828103825287818151815260200191508051906020019080838360005b8381101561032d578082015181840152602081019050610312565b50505050905090810190601f16801561035a5780820380516001836020036101000a031916815260200191505b5097505050505050505060405180910390f35b6103af6004803603602081101561038357600080fd5b81019080803573ffffffffffffffffffffffffffffffffffffffff169060200190929190505050610d25565b6040518082815260200191505060405180910390f35b6104f260048036036101408110156103dc57600080fd5b8101908080359060200190929190803590602001909291908035906020019092919080359060200190929190803590602001909291908035906020019064010000000081111561042b57600080fd5b82018360208201111561043d57600080fd5b8035906020019184600183028401116401000000008311171561045f57600080fd5b91908080601f016020809104026020016040519081016040528093929190818152602001838380828437600081840152601f19601f820116905080830192505050505050509192919290803573ffffffffffffffffffffffffffffffffffffffff169060200190929190803560ff1690602001909291908035906020019092919080359060200190929190505050610d3d565b005b6104fc611064565b604051808273ffffffffffffffffffffffffffffffffffffffff1673ffffffffffffffffffffffffffffffffffffffff16815260200191505060405180910390f35b6105806004803603602081101561055457600080fd5b81019080803573ffffffffffffffffffffffffffffffffffffffff16906020019092919050505061108a565b005b6106386004803603602081101561059857600080fd5b81019080803590602001906401000000008111156105b557600080fd5b8201836020820111156105c757600080fd5b803590602001918460208302840111640100000000831117156105e957600080fd5b919080806020026020016040519081016040528093929190818152602001838360200280828437600081840152601f19601f82011690508083019250505050505050919291929050505061113f565b005b6107c5600480360360c081101561065057600080fd5b810190808035906020019064010000000081111561066d57600080fd5b82018360208201111561067f57600080fd5b803590602001918460208302840111640100000000831117156106a157600080fd5b919080806020026020016040519081016040528093929190818152602001838360200280828437600081840152601f19601f8201169050808301925050505050505091929192908035906020019064010000000081111561070157600080fd5b82018360208201111561071357600080fd5b8035906020019184602083028401116401000000008311171561073557600080fd5b919080806020026020016040519081016040528093929190818152602001838360200280828437600081840152601f19601f820116905080830192505050505050509192919290803573ffffffffffffffffffffffffffffffffffffffff169060200190929190803560ff1690602001909291908035906020019092919080359060200190929190505050611308565b005b610834600480360360a08110156107dd57600080fd5b8101908080359060200190929190803573ffffffffffffffffffffffffffffffffffffffff169060200190929190803560ff1690602001909291908035906020019092919080359060200190929190505050611678565b005b60356020528060005260406000206000915054906101000a900460ff1681565b84846034600083815260200190815260200160002060000160009054906101000a900473ffffffffffffffffffffffffffffffffffffffff1673ffffffffffffffffffffffffffffffffffffffff168173ffffffffffffffffffffffffffffffffffffffff16146108c657600080fd5b600087603660008973ffffffffffffffffffffffffffffffffffffffff1673ffffffffffffffffffffffffffffffffffffffff1681526020019081526020016000205460405160200180838152602001828152602001925050506040516020818303038152906040528051906020012090506109458188888888610b2c565b5060346000898152602001908152602001600020600080820160006101000a81549073ffffffffffffffffffffffffffffffffffffffff021916905560018201600061099191906117d1565b60028201600090556003820160009055600482016000905560058201600090555050603660008873ffffffffffffffffffffffffffffffffffffffff1673ffffffffffffffffffffffffffffffffffffffff168152602001908152602001600020600081548092919060010191905055507f53da5bb6fb2488b67fc3b382a27cdd1b443b9a5260c981d63b4ab4888a0de7a08789604051808373ffffffffffffffffffffffffffffffffffffffff1673ffffffffffffffffffffffffffffffffffffffff1681526020018281526020019250505060405180910390a15050505050505050565b603360009054906101000a900473ffffffffffffffffffffffffffffffffffffffff1673ffffffffffffffffffffffffffffffffffffffff163373ffffffffffffffffffffffffffffffffffffffff1614610ad157600080fd5b6000603560008373ffffffffffffffffffffffffffffffffffffffff1673ffffffffffffffffffffffffffffffffffffffff16815260200190815260200160002060006101000a81548160ff02191690831515021790555050565b6000808660405160200180807f19457468657265756d205369676e6564204d6573736167653a0a333200000000815250601c01828152602001915050604051602081830303815290604052805190602001209050600060018287878760405160008152602001604052604051808581526020018460ff1660ff1681526020018381526020018281526020019450505050506020604051602081039080840390855afa158015610bdf573d6000803e3d6000fd5b5050506020604051035190508073ffffffffffffffffffffffffffffffffffffffff168773ffffffffffffffffffffffffffffffffffffffff1614610c2357600080fd5b809250505095945050505050565b60346020528060005260406000206000915090508060000160009054906101000a900473ffffffffffffffffffffffffffffffffffffffff1690806001018054600181600116156101000203166002900480601f016020809104026020016040519081016040528092919081815260200182805460018160011615610100020316600290048015610d035780601f10610cd857610100808354040283529160200191610d03565b820191906000526020600020905b815481529060010190602001808311610ce657829003601f168201915b5050505050908060020154908060030154908060040154908060050154905086565b60366020528060005260406000206000915090505481565b600073ffffffffffffffffffffffffffffffffffffffff16603460008c815260200190815260200160002060000160009054906101000a900473ffffffffffffffffffffffffffffffffffffffff1673ffffffffffffffffffffffffffffffffffffffff1614610df8576040517f08c379a00000000000000000000000000000000000000000000000000000000081526004018080602001828103825260218152602001806118ed6021913960400191505060405180910390fd5b60008a8a8a8a8a603660008b73ffffffffffffffffffffffffffffffffffffffff1673ffffffffffffffffffffffffffffffffffffffff16815260200190815260200160002054604051602001808781526020018681526020018581526020018481526020018381526020018281526020019650505050505050604051602081830303815290604052805190602001209050610e978186868686610b2c565b506040518060c001604052808673ffffffffffffffffffffffffffffffffffffffff1681526020018781526020018b81526020018a815260200189815260200188815250603460008d815260200190815260200160002060008201518160000160006101000a81548173ffffffffffffffffffffffffffffffffffffffff021916908373ffffffffffffffffffffffffffffffffffffffff1602179055506020820151816001019080519060200190610f51929190611819565b5060408201518160020155606082015181600301556080820151816004015560a08201518160050155905050603660008673ffffffffffffffffffffffffffffffffffffffff1673ffffffffffffffffffffffffffffffffffffffff168152602001908152602001600020600081548092919060010191905055507fc454824fa47a26d21f32717f7c2efe949d4e65fb518bddf8cd2f1e0a382c2e63858c8c8c8c8c604051808773ffffffffffffffffffffffffffffffffffffffff1673ffffffffffffffffffffffffffffffffffffffff168152602001868152602001858152602001848152602001838152602001828152602001965050505050505060405180910390a15050505050505050505050565b603360009054906101000a900473ffffffffffffffffffffffffffffffffffffffff1681565b603360009054906101000a900473ffffffffffffffffffffffffffffffffffffffff1673ffffffffffffffffffffffffffffffffffffffff163373ffffffffffffffffffffffffffffffffffffffff16146110e457600080fd5b6001603560008373ffffffffffffffffffffffffffffffffffffffff1673ffffffffffffffffffffffffffffffffffffffff16815260200190815260200160002060006101000a81548160ff02191690831515021790555050565b600060019054906101000a900460ff168061115e575061115d6117ba565b5b8061117557506000809054906101000a900460ff16155b6111ca576040517f08c379a000000000000000000000000000000000000000000000000000000000815260040180806020018281038252602e8152602001806118bf602e913960400191505060405180910390fd5b60008060019054906101000a900460ff16159050801561121a576001600060016101000a81548160ff02191690831515021790555060016000806101000a81548160ff0219169083151502179055505b33603360006101000a81548173ffffffffffffffffffffffffffffffffffffffff021916908373ffffffffffffffffffffffffffffffffffffffff16021790555060008090505b82518110156112e25760016035600085848151811061127c57fe5b602002602001015173ffffffffffffffffffffffffffffffffffffffff1673ffffffffffffffffffffffffffffffffffffffff16815260200190815260200160002060006101000a81548160ff0219169083151502179055508080600101915050611261565b5080156113045760008060016101000a81548160ff0219169083151502179055505b5050565b858460008090505b825181116113a6576034600084838151811061132857fe5b6020026020010151815260200190815260200160002060000160009054906101000a900473ffffffffffffffffffffffffffffffffffffffff1673ffffffffffffffffffffffffffffffffffffffff168273ffffffffffffffffffffffffffffffffffffffff161461139957600080fd5b8080600101915050611310565b50865188511461141e576040517f08c379a00000000000000000000000000000000000000000000000000000000081526004018080602001828103825260158152602001807f4c656e67746820646f6573206e6f74206d61746368000000000000000000000081525060200191505060405180910390fd5b60008888603660008a73ffffffffffffffffffffffffffffffffffffffff1673ffffffffffffffffffffffffffffffffffffffff16815260200190815260200160002054604051602001808060200180602001848152602001838103835286818151815260200191508051906020019060200280838360005b838110156114b2578082015181840152602081019050611497565b50505050905001838103825285818151815260200191508051906020019060200280838360005b838110156114f45780820151818401526020810190506114d9565b50505050905001955050505050506040516020818303038152906040528051906020012090506115278188888888610b2c565b5060008090505b8951811161161d5788818151811061154257fe5b6020026020010151603460008c848151811061155a57fe5b60200260200101518152602001908152602001600020600201819055507f64ff300490db33ebe938012595e872cf5714c2849c9ae66ef75e758e314bb0fd888b83815181106115a557fe5b60200260200101518b84815181106115b957fe5b6020026020010151604051808473ffffffffffffffffffffffffffffffffffffffff1673ffffffffffffffffffffffffffffffffffffffff168152602001838152602001828152602001935050505060405180910390a1808060010191505061152e565b50603660008873ffffffffffffffffffffffffffffffffffffffff1673ffffffffffffffffffffffffffffffffffffffff16815260200190815260200160002060008154809291906001019190505550505050505050505050565b600085603660008773ffffffffffffffffffffffffffffffffffffffff1673ffffffffffffffffffffffffffffffffffffffff1681526020019081526020016000205460405160200180838152602001828152602001925050506040516020818303038152906040528051906020012090506116f78186868686610b2c565b50603660008673ffffffffffffffffffffffffffffffffffffffff1673ffffffffffffffffffffffffffffffffffffffff168152602001908152602001600020600081548092919060010191905055507f7caed4526cefa7191f86fb4ed88927bb9fd8ce2e1147f036768e11346f4d1efb8587604051808373ffffffffffffffffffffffffffffffffffffffff1673ffffffffffffffffffffffffffffffffffffffff1681526020018281526020019250505060405180910390a1505050505050565b6000803090506000813b9050600081149250505090565b50805460018160011615610100020316600290046000825580601f106117f75750611816565b601f0160209004906000526020600020908101906118159190611899565b5b50565b828054600181600116156101000203166002900490600052602060002090601f016020900481019282601f1061185a57805160ff1916838001178555611888565b82800160010185558215611888579182015b8281111561188757825182559160200191906001019061186c565b5b5090506118959190611899565b5090565b6118bb91905b808211156118b757600081600090555060010161189f565b5090565b9056fe436f6e747261637420696e7374616e63652068617320616c7265616479206265656e20696e697469616c697a65644f776e657220616c726561647920657869737420666f7220746869732066696c65a265627a7a7231582030f9f7546360abe71aaa2923bb18d2243120c5dcc8d2e3ac9f0e8a77432f80e864736f6c63430005100032",
  "source": "pragma solidity ^0.5;\n\nimport \"./SafeMath.sol\";\nimport \"./Initializable.sol\";\n\ncontract Skizzle is Initializable {\n    address public owner;\n    using SafeMath for uint256;\n\n    // keccak256(storage index) => bytes32 newfang-specific-idbytes\n    mapping(bytes32 => File) public docs;\n    mapping(address => bool) public isNode;\n    mapping(address => uint256) public nonce;\n\n    struct File {\n        address owner;\n        bytes ueb;\n        bytes32 doc;\n        uint256 n;\n        uint256 k;\n        uint256 size;\n    }\n\n    // Modifier to check whether the functions are called by file owner.\n    modifier onlyFileOwner(bytes32 _file, address _identity) {\n        require(_identity == docs[_file].owner);\n        _;\n    }\n\n    // Modifier to check whether the functions are called by file owner(Multiple File)\n    modifier onlyFilesOwner(bytes32[] memory _files, address _identity) {\n        for(uint i=0; i<=_files.length;i++){\n            require(_identity == docs[_files[i]].owner);\n        }\n        _;\n    }\n\n    // Modifier to check whether then functions are called only by contract owners.\n    modifier onlyOwner() {\n        require(msg.sender == owner);\n        _;\n    }\n\n    // Modifier to check whether functions are called by SNA nodes.\n    modifier onlyNode() {\n        require(isNode[msg.sender], \"Should be called by owner\");\n        _;\n    }\n\n    // Initialize is called when contract is deployed.\n    // It does 2 things:\n    // 1. Set's the contract owner\n    // 2. It adds default nodes to the contract.\n    function initialize(address[] memory _nodes) public initializer {\n        owner = msg.sender;\n        for (uint256 i = 0; i < _nodes.length; i++) {\n            isNode[_nodes[i]] = true;\n        }\n    }\n\n    function addNode(address _node) public onlyOwner {\n        isNode[_node] = true;\n    }\n\n    function deleteNode(address _node) public onlyOwner {\n        isNode[_node] = false;\n    }\n\n    function getSigner(\n        bytes32 payloadHash,\n        address signer,\n        uint8 v,\n        bytes32 r,\n        bytes32 s\n    ) public pure returns (address) {\n        bytes32 messageHash = keccak256(\n            abi.encodePacked(\"\\x19Ethereum Signed Message:\\n32\", payloadHash)\n        );\n        address actualSigner = ecrecover(messageHash, v, r, s);\n        require(signer == actualSigner);\n        return actualSigner;\n    }\n\n    event create(address identity, bytes32 file, bytes32 doc, uint256 n, uint256 k, uint256 size);\n    event read(address identity, bytes32 file);\n    event update(address identity, bytes32 file, bytes32 doc);\n    event deleteDID(address identity, bytes32 file);\n\n    function createSigned(\n        bytes32 _file,\n        bytes32 _doc,\n        uint256 _n,\n        uint256 _k,\n        uint256 _size,\n        bytes memory _ueb,\n        address signer,\n        uint8 v,\n        bytes32 r,\n        bytes32 s\n    ) public {\n        require(\n            docs[_file].owner == address(0),\n            \"Owner already exist for this file\"\n        );\n        bytes32 payloadHash = keccak256(abi.encode(_file, _doc, _n, _k, _size, nonce[signer]));\n        getSigner(payloadHash, signer, v, r, s);\n        // Just to check signature is valid or not.\n        docs[_file] = File(signer, _ueb, _doc, _n, _k, _size);\n        nonce[signer]++;\n        emit create(signer, _file, _doc, _n, _k, _size);\n    }\n\n    // This function does not checks wether the signer has permission to read/download the file or not.\n    // Permission should be checked offline only.\n    // User will sign a transaction and send it to SNA, SNA will verify wether user is having permission or not.\n    // If user has permission then this function will be called.\n    // This functions verifies the email and emit a read event on the file.\n    function readSigned(\n        bytes32 _file,\n        address signer,\n        uint8 v,\n        bytes32 r,\n        bytes32 s\n    ) public {\n        bytes32 payloadHash = keccak256(abi.encode(_file, nonce[signer]));\n        getSigner(payloadHash, signer, v, r, s);\n        // Just to check signature is valid or not.\n        nonce[signer]++;\n        emit read(signer, _file);\n    }\n\n    // This function is used for share and revoke. The DID Document is updated and the merkle root is calculated again and update here.\n    // onlyFileOwner modifier checks whether user has the permission to call the function or not.\n    // It does not checks for signature.\n    // Signature is checked in getSigner function.\n    function updateSigned(\n        bytes32[] memory _files,\n        bytes32[] memory _docs,\n        address signer,\n        uint8 v,\n        bytes32 r,\n        bytes32 s\n    ) public onlyFilesOwner(_files, signer){\n//    ) public {\n        require(_files.length == _docs.length, \"Length does not match\");\n//        // Just to check signature is valid or not.\n        bytes32 payloadHash = keccak256(abi.encode(_files, _docs, nonce[signer]));\n        getSigner(payloadHash, signer, v, r, s);\n        for (uint i = 0; i <= _files.length; i++) {\n            // Check weather signer is the owner of the file.\n            docs[_files[i]].doc = _docs[i];\n            emit update(signer, _files[i], _docs[i]);\n        }\n        nonce[signer]++;\n    }\n\n    function deleteSigned(\n        bytes32 _file,\n        address signer,\n        uint8 v,\n        bytes32 r,\n        bytes32 s\n    ) onlyFileOwner(_file, signer) public {\n        bytes32 payloadHash = keccak256(abi.encode(_file, nonce[signer]));\n        getSigner(payloadHash, signer, v, r, s);\n        // Just to check signature is valid or not.\n        delete docs[_file];\n        nonce[signer]++;\n        emit deleteDID(signer, _file);\n    }\n}\n",
  "sourcePath": "/home/saurav/projects/skizzle_smart_contracts/contracts/Skizzle.sol",
  "compiler": {
    "name": "solc",
    "version": "0.5.16+commit.9c3226ce.Emscripten.clang"
  },
  "schemaVersion": "3.1.0",
  "updatedAt": "2020-12-12T03:21:38.074Z",
  "devdoc": {
    "methods": {}
  },
  "userdoc": {
    "methods": {}
  }
}